{
  "contractName": "Crowdsale",
  "abi": [
    {
      "constant": true,
      "inputs": [],
      "name": "reserveSupply",
      "outputs": [
        {
          "name": "",
          "type": "uint256"
        }
      ],
      "payable": false,
      "stateMutability": "view",
      "type": "function"
    },
    {
      "constant": true,
      "inputs": [],
      "name": "remainingPublicSupply",
      "outputs": [
        {
          "name": "",
          "type": "uint256"
        }
      ],
      "payable": false,
      "stateMutability": "view",
      "type": "function"
    },
    {
      "constant": true,
      "inputs": [],
      "name": "totalSupply",
      "outputs": [
        {
          "name": "",
          "type": "uint256"
        }
      ],
      "payable": false,
      "stateMutability": "view",
      "type": "function"
    },
    {
      "constant": true,
      "inputs": [],
      "name": "rate",
      "outputs": [
        {
          "name": "",
          "type": "uint256"
        }
      ],
      "payable": false,
      "stateMutability": "view",
      "type": "function"
    },
    {
      "constant": true,
      "inputs": [],
      "name": "preSaleSupply",
      "outputs": [
        {
          "name": "",
          "type": "uint256"
        }
      ],
      "payable": false,
      "stateMutability": "view",
      "type": "function"
    },
    {
      "constant": true,
      "inputs": [],
      "name": "preStartTime",
      "outputs": [
        {
          "name": "",
          "type": "uint256"
        }
      ],
      "payable": false,
      "stateMutability": "view",
      "type": "function"
    },
    {
      "constant": true,
      "inputs": [],
      "name": "icoSupply",
      "outputs": [
        {
          "name": "",
          "type": "uint256"
        }
      ],
      "payable": false,
      "stateMutability": "view",
      "type": "function"
    },
    {
      "constant": true,
      "inputs": [],
      "name": "publicSupply",
      "outputs": [
        {
          "name": "",
          "type": "uint256"
        }
      ],
      "payable": false,
      "stateMutability": "view",
      "type": "function"
    },
    {
      "constant": true,
      "inputs": [],
      "name": "preicoSupply",
      "outputs": [
        {
          "name": "",
          "type": "uint256"
        }
      ],
      "payable": false,
      "stateMutability": "view",
      "type": "function"
    },
    {
      "constant": true,
      "inputs": [],
      "name": "preIcoEndTime",
      "outputs": [
        {
          "name": "",
          "type": "uint256"
        }
      ],
      "payable": false,
      "stateMutability": "view",
      "type": "function"
    },
    {
      "constant": true,
      "inputs": [],
      "name": "bountySupply",
      "outputs": [
        {
          "name": "",
          "type": "uint256"
        }
      ],
      "payable": false,
      "stateMutability": "view",
      "type": "function"
    },
    {
      "constant": true,
      "inputs": [],
      "name": "remainingReserveSupply",
      "outputs": [
        {
          "name": "",
          "type": "uint256"
        }
      ],
      "payable": false,
      "stateMutability": "view",
      "type": "function"
    },
    {
      "constant": true,
      "inputs": [],
      "name": "preIcoStartTime",
      "outputs": [
        {
          "name": "",
          "type": "uint256"
        }
      ],
      "payable": false,
      "stateMutability": "view",
      "type": "function"
    },
    {
      "constant": true,
      "inputs": [],
      "name": "preEndTime",
      "outputs": [
        {
          "name": "",
          "type": "uint256"
        }
      ],
      "payable": false,
      "stateMutability": "view",
      "type": "function"
    },
    {
      "constant": true,
      "inputs": [],
      "name": "ICOEndTime",
      "outputs": [
        {
          "name": "",
          "type": "uint256"
        }
      ],
      "payable": false,
      "stateMutability": "view",
      "type": "function"
    },
    {
      "constant": true,
      "inputs": [],
      "name": "ICOstartTime",
      "outputs": [
        {
          "name": "",
          "type": "uint256"
        }
      ],
      "payable": false,
      "stateMutability": "view",
      "type": "function"
    },
    {
      "constant": false,
      "inputs": [
        {
          "name": "newOwner",
          "type": "address"
        }
      ],
      "name": "transferOwnership",
      "outputs": [],
      "payable": false,
      "stateMutability": "nonpayable",
      "type": "function"
    },
    {
      "constant": true,
      "inputs": [],
      "name": "remainingBountySupply",
      "outputs": [
        {
          "name": "",
          "type": "uint256"
        }
      ],
      "payable": false,
      "stateMutability": "view",
      "type": "function"
    },
    {
      "inputs": [
        {
          "name": "_startTime",
          "type": "uint256"
        },
        {
          "name": "_endTime",
          "type": "uint256"
        },
        {
          "name": "_rate",
          "type": "uint256"
        },
        {
          "name": "_wallet",
          "type": "address"
        }
      ],
      "payable": false,
      "stateMutability": "nonpayable",
      "type": "constructor"
    },
    {
      "payable": true,
      "stateMutability": "payable",
      "type": "fallback"
    },
    {
      "anonymous": false,
      "inputs": [
        {
          "indexed": true,
          "name": "purchaser",
          "type": "address"
        },
        {
          "indexed": true,
          "name": "beneficiary",
          "type": "address"
        },
        {
          "indexed": false,
          "name": "value",
          "type": "uint256"
        },
        {
          "indexed": false,
          "name": "amount",
          "type": "uint256"
        }
      ],
      "name": "TokenPurchase",
      "type": "event"
    },
    {
      "anonymous": false,
      "inputs": [
        {
          "indexed": true,
          "name": "previousOwner",
          "type": "address"
        },
        {
          "indexed": true,
          "name": "newOwner",
          "type": "address"
        }
      ],
      "name": "OwnershipTransferred",
      "type": "event"
    },
    {
      "constant": false,
      "inputs": [
        {
          "name": "beneficiary",
          "type": "address"
        }
      ],
      "name": "buyTokens",
      "outputs": [],
      "payable": true,
      "stateMutability": "payable",
      "type": "function"
    },
    {
      "constant": true,
      "inputs": [],
      "name": "hasEnded",
      "outputs": [
        {
          "name": "",
          "type": "bool"
        }
      ],
      "payable": false,
      "stateMutability": "view",
      "type": "function"
    },
    {
      "constant": false,
      "inputs": [],
      "name": "burnToken",
      "outputs": [
        {
          "name": "",
          "type": "bool"
        }
      ],
      "payable": false,
      "stateMutability": "nonpayable",
      "type": "function"
    },
    {
      "constant": false,
      "inputs": [
        {
          "name": "beneficiary",
          "type": "address"
        },
        {
          "name": "valueToken",
          "type": "uint256"
        }
      ],
      "name": "bountyFunds",
      "outputs": [],
      "payable": false,
      "stateMutability": "nonpayable",
      "type": "function"
    },
    {
      "constant": false,
      "inputs": [],
      "name": "grantRewardToken",
      "outputs": [],
      "payable": false,
      "stateMutability": "nonpayable",
      "type": "function"
    },
    {
      "constant": false,
      "inputs": [
        {
          "name": "beneficiary",
          "type": "address"
        },
        {
          "name": "tokens",
          "type": "uint256"
        }
      ],
      "name": "transferToken",
      "outputs": [],
      "payable": false,
      "stateMutability": "nonpayable",
      "type": "function"
    },
    {
      "constant": true,
      "inputs": [],
      "name": "getTokenAddress",
      "outputs": [
        {
          "name": "",
          "type": "address"
        }
      ],
      "payable": false,
      "stateMutability": "view",
      "type": "function"
    },
    {
      "constant": true,
      "inputs": [],
      "name": "getPublicSupply",
      "outputs": [
        {
          "name": "",
          "type": "uint256"
        }
      ],
      "payable": false,
      "stateMutability": "view",
      "type": "function"
    }
  ],
  "bytecode": "0x60606040526b014adf4b7320334b900000006013556af8277896582678ac0000006014556a084595161401484a00000060155569d3c21bcecceda10000006016556a069e10de76676d080000006017556a069e10de76676d080000006018556a0a2ca056093f046f800000601955601454601a55601654601b55601554601c5534156200008b57600080fd5b604051608080620044d283398101604052808051906020019091908051906020019091908051906020019091908051906020019091905050336000806101000a81548173ffffffffffffffffffffffffffffffffffffffff021916908373ffffffffffffffffffffffffffffffffffffffff1602179055504284101515156200011357600080fd5b8383101515156200012357600080fd5b6000821115156200013357600080fd5b60008173ffffffffffffffffffffffffffffffffffffffff16141515156200015a57600080fd5b6200017862000483640100000000026200152d176401000000009004565b600160006101000a81548173ffffffffffffffffffffffffffffffffffffffff021916908373ffffffffffffffffffffffffffffffffffffffff1602179055504260028190555061012c6002540160038190555060035460048190555061012c600454016005819055506005546006819055506103846006540160078190555081600e8190555080600d60006101000a81548173ffffffffffffffffffffffffffffffffffffffff021916908373ffffffffffffffffffffffffffffffffffffffff1602179055506200028362000267600e546019620004ab640100000000026200145f176401000000009004565b6064620004e16401000000000262001552176401000000009004565b600881905550620002cc620002b0600e54600a620004ab640100000000026200145f176401000000009004565b6064620004e16401000000000262001552176401000000009004565b60098190555062000315620002f9600e546014620004ab640100000000026200145f176401000000009004565b6064620004e16401000000000262001552176401000000009004565b600a819055506200035e62000342600e54600a620004ab640100000000026200145f176401000000009004565b6064620004e16401000000000262001552176401000000009004565b600b81905550620003a76200038b600e546005620004ab640100000000026200145f176401000000009004565b6064620004e16401000000000262001552176401000000009004565b600c81905550620003d060065460b4620004fd6401000000000262001492176401000000009004565b601081905550620003f960105460b4620004fd6401000000000262001492176401000000009004565b6011819055506200042260115460b4620004fd6401000000000262001492176401000000009004565b6012819055506000601d60006101000a81548160ff0219169083151502179055506000601d60016101000a81548160ff0219169083151502179055506000601d60026101000a81548160ff021916908315150217905550505050506200052d565b60006200048f6200051c565b604051809103906000f0801515620004a657600080fd5b905090565b60008082840290506000841480620004ce5750828482811515620004cb57fe5b04145b1515620004d757fe5b8091505092915050565b6000808284811515620004f057fe5b0490508091505092915050565b60008082840190508381101515156200051257fe5b8091505092915050565b6040516114f68062002fdc83390190565b612a9f806200053d6000396000f300606060405260043610610154576000357c0100000000000000000000000000000000000000000000000000000000900463ffffffff16806303d41eb61461015f57806310042e10146101885780631072cbea146101b157806310fe9ae8146101f357806318160ddd146102485780632c4e722e146102715780632e055bcc1461029a5780634c750bca146102c35780634dc41210146103055780634e8127f61461032e5780635e84d723146103575780636f1ca0c214610380578063716344f0146103a957806373cbd8ce146103d2578063743e79eb146103fb57806386852fd714610410578063887c7f9214610439578063910f5b8114610462578063a12c25641461048b578063a242f049146104b4578063c1da3923146104dd578063ec8ac4d814610506578063ecb70fb714610534578063f2fde38b14610561578063faa0a2641461059a578063fd138223146105c7575b61015d336105f0565b005b341561016a57600080fd5b610172610b62565b6040518082815260200191505060405180910390f35b341561019357600080fd5b61019b610b68565b6040518082815260200191505060405180910390f35b34156101bc57600080fd5b6101f1600480803573ffffffffffffffffffffffffffffffffffffffff16906020019091908035906020019091905050610b6e565b005b34156101fe57600080fd5b610206610cfd565b604051808273ffffffffffffffffffffffffffffffffffffffff1673ffffffffffffffffffffffffffffffffffffffff16815260200191505060405180910390f35b341561025357600080fd5b61025b610d82565b6040518082815260200191505060405180910390f35b341561027c57600080fd5b610284610d88565b6040518082815260200191505060405180910390f35b34156102a557600080fd5b6102ad610d8e565b6040518082815260200191505060405180910390f35b34156102ce57600080fd5b610303600480803573ffffffffffffffffffffffffffffffffffffffff16906020019091908035906020019091905050610d94565b005b341561031057600080fd5b610318610f13565b6040518082815260200191505060405180910390f35b341561033957600080fd5b610341610f19565b6040518082815260200191505060405180910390f35b341561036257600080fd5b61036a610f1f565b6040518082815260200191505060405180910390f35b341561038b57600080fd5b610393610f25565b6040518082815260200191505060405180910390f35b34156103b457600080fd5b6103bc610f2b565b6040518082815260200191505060405180910390f35b34156103dd57600080fd5b6103e5610f31565b6040518082815260200191505060405180910390f35b341561040657600080fd5b61040e610f96565b005b341561041b57600080fd5b610423611108565b6040518082815260200191505060405180910390f35b341561044457600080fd5b61044c61110e565b6040518082815260200191505060405180910390f35b341561046d57600080fd5b610475611114565b6040518082815260200191505060405180910390f35b341561049657600080fd5b61049e61111a565b6040518082815260200191505060405180910390f35b34156104bf57600080fd5b6104c7611120565b6040518082815260200191505060405180910390f35b34156104e857600080fd5b6104f0611126565b6040518082815260200191505060405180910390f35b610532600480803573ffffffffffffffffffffffffffffffffffffffff169060200190919050506105f0565b005b341561053f57600080fd5b61054761112c565b604051808215151515815260200191505060405180910390f35b341561056c57600080fd5b610598600480803573ffffffffffffffffffffffffffffffffffffffff16906020019091905050611138565b005b34156105a557600080fd5b6105ad61128d565b604051808215151515815260200191505060405180910390f35b34156105d257600080fd5b6105da611426565b6040518082815260200191505060405180910390f35b6000806000806000808673ffffffffffffffffffffffffffffffffffffffff161415151561061d57600080fd5b61062561142c565b151561063057600080fd5b34945067016345785d8a0000851015151561064a57600080fd5b429350600092506000915060009050600254841015801561066c575060035484105b1561074657600060175411151561068257600080fd5b6106a08161069b6008548861145f90919063ffffffff16565b611492565b90506106c0826106bb600e548861145f90919063ffffffff16565b611492565b91506106cc8183611492565b925081601754101515156106df57600080fd5b80601954101515156106f057600080fd5b610705826017546114b090919063ffffffff16565b601781905550610720816019546114b090919063ffffffff16565b60198190555061073b83601a546114b090919063ffffffff16565b601a819055506109e1565b6004548410158015610759575060055484105b1561088257601d60019054906101000a900460ff1615156107ad5761078b60175460185461149290919063ffffffff16565b6018819055506001601d60016101000a81548160ff0219169083151502179055505b60006018541115156107be57600080fd5b6107dc816107d76009548861145f90919063ffffffff16565b611492565b90506107fc826107f7600e548861145f90919063ffffffff16565b611492565b91506108088183611492565b9250816018541015151561081b57600080fd5b806019541015151561082c57600080fd5b610841826018546114b090919063ffffffff16565b60188190555061085c816019546114b090919063ffffffff16565b60198190555061087783601a546114b090919063ffffffff16565b601a819055506109e0565b600654841015801561089657506007548411155b156109da57601d60029054906101000a900460ff1615156108e1576108bf601954601854611492565b6019819055506001601d60026101000a81548160ff0219169083151502179055505b60006019541115156108f257600080fd5b601054841115156109225761091b83610916600a548861145f90919063ffffffff16565b611492565b925061097f565b601154841115156109525761094b83610946600b548861145f90919063ffffffff16565b611492565b925061097e565b60125484101561097d5761097a83610975600c548861145f90919063ffffffff16565b611492565b92505b5b5b61099d83610998600e548861145f90919063ffffffff16565b611492565b92506109b4836019546114b090919063ffffffff16565b6019819055506109cf83601a546114b090919063ffffffff16565b601a819055506109df565b600080fd5b5b5b6109f685600f5461149290919063ffffffff16565b600f81905550600160009054906101000a900473ffffffffffffffffffffffffffffffffffffffff1673ffffffffffffffffffffffffffffffffffffffff166340c10f1987856000604051602001526040518363ffffffff167c0100000000000000000000000000000000000000000000000000000000028152600401808373ffffffffffffffffffffffffffffffffffffffff1673ffffffffffffffffffffffffffffffffffffffff16815260200182815260200192505050602060405180830381600087803b1515610ac957600080fd5b6102c65a03f11515610ada57600080fd5b50505060405180519050508573ffffffffffffffffffffffffffffffffffffffff163373ffffffffffffffffffffffffffffffffffffffff167f623b3804fa71d67900d064613da8f94b9617215ee90799290593e1745087ad188786604051808381526020018281526020019250505060405180910390a3610b5a6114c9565b505050505050565b60155481565b601a5481565b6000809054906101000a900473ffffffffffffffffffffffffffffffffffffffff1673ffffffffffffffffffffffffffffffffffffffff163373ffffffffffffffffffffffffffffffffffffffff16141515610bc957600080fd5b42600754111515610bd957600080fd5b610beb81670de0b6b3a764000061145f565b905080601a5410151515610bfe57600080fd5b610c0a601a54826114b0565b601a81905550600160009054906101000a900473ffffffffffffffffffffffffffffffffffffffff1673ffffffffffffffffffffffffffffffffffffffff166340c10f1983836000604051602001526040518363ffffffff167c0100000000000000000000000000000000000000000000000000000000028152600401808373ffffffffffffffffffffffffffffffffffffffff1673ffffffffffffffffffffffffffffffffffffffff16815260200182815260200192505050602060405180830381600087803b1515610cdd57600080fd5b6102c65a03f11515610cee57600080fd5b50505060405180519050505050565b60008060009054906101000a900473ffffffffffffffffffffffffffffffffffffffff1673ffffffffffffffffffffffffffffffffffffffff163373ffffffffffffffffffffffffffffffffffffffff16141515610d5a57600080fd5b600160009054906101000a900473ffffffffffffffffffffffffffffffffffffffff16905090565b60135481565b600e5481565b60175481565b6000809054906101000a900473ffffffffffffffffffffffffffffffffffffffff1673ffffffffffffffffffffffffffffffffffffffff163373ffffffffffffffffffffffffffffffffffffffff16141515610def57600080fd5b610e0181670de0b6b3a764000061145f565b905080601b5410151515610e1457600080fd5b610e20601b54826114b0565b601b81905550600160009054906101000a900473ffffffffffffffffffffffffffffffffffffffff1673ffffffffffffffffffffffffffffffffffffffff166340c10f1983836000604051602001526040518363ffffffff167c0100000000000000000000000000000000000000000000000000000000028152600401808373ffffffffffffffffffffffffffffffffffffffff1673ffffffffffffffffffffffffffffffffffffffff16815260200182815260200192505050602060405180830381600087803b1515610ef357600080fd5b6102c65a03f11515610f0457600080fd5b50505060405180519050505050565b60025481565b60195481565b60145481565b60185481565b60055481565b60008060009054906101000a900473ffffffffffffffffffffffffffffffffffffffff1673ffffffffffffffffffffffffffffffffffffffff163373ffffffffffffffffffffffffffffffffffffffff16141515610f8e57600080fd5b601a54905090565b6000809054906101000a900473ffffffffffffffffffffffffffffffffffffffff1673ffffffffffffffffffffffffffffffffffffffff163373ffffffffffffffffffffffffffffffffffffffff16141515610ff157600080fd5b601d60039054906101000a900460ff1615151561100d57600080fd5b6001601d60036101000a81548160ff021916908315150217905550600160009054906101000a900473ffffffffffffffffffffffffffffffffffffffff1673ffffffffffffffffffffffffffffffffffffffff166340c10f196000601c546000604051602001526040518363ffffffff167c0100000000000000000000000000000000000000000000000000000000028152600401808373ffffffffffffffffffffffffffffffffffffffff16815260200182815260200192505050602060405180830381600087803b15156110e257600080fd5b6102c65a03f115156110f357600080fd5b50505060405180519050506000601c81905550565b60165481565b601c5481565b60045481565b60035481565b60075481565b60065481565b60006007544211905090565b6000809054906101000a900473ffffffffffffffffffffffffffffffffffffffff1673ffffffffffffffffffffffffffffffffffffffff163373ffffffffffffffffffffffffffffffffffffffff1614151561119357600080fd5b600073ffffffffffffffffffffffffffffffffffffffff168173ffffffffffffffffffffffffffffffffffffffff16141515156111cf57600080fd5b8073ffffffffffffffffffffffffffffffffffffffff166000809054906101000a900473ffffffffffffffffffffffffffffffffffffffff1673ffffffffffffffffffffffffffffffffffffffff167f8be0079c531659141344cd1fd0a4f28419497f9722a3daafe3b4186f6b6457e060405160405180910390a3806000806101000a81548173ffffffffffffffffffffffffffffffffffffffff021916908373ffffffffffffffffffffffffffffffffffffffff16021790555050565b60008060009054906101000a900473ffffffffffffffffffffffffffffffffffffffff1673ffffffffffffffffffffffffffffffffffffffff163373ffffffffffffffffffffffffffffffffffffffff161415156112ea57600080fd5b6112f261112c565b15156112fd57600080fd5b601d60009054906101000a900460ff1615151561131957600080fd5b6001601d60006101000a81548160ff021916908315150217905550600160009054906101000a900473ffffffffffffffffffffffffffffffffffffffff1673ffffffffffffffffffffffffffffffffffffffff16636d1b229d601a546000604051602001526040518263ffffffff167c010000000000000000000000000000000000000000000000000000000002815260040180828152602001915050602060405180830381600087803b15156113cf57600080fd5b6102c65a03f115156113e057600080fd5b50505060405180519050506113f9601354601a546114b0565b6013819055506000601a819055506000601781905550600060188190555060006019819055506001905090565b601b5481565b6000806000600254421015801561144557506007544211155b9150600034141590508180156114585750805b9250505090565b60008082840290506000841480611480575082848281151561147d57fe5b04145b151561148857fe5b8091505092915050565b60008082840190508381101515156114a657fe5b8091505092915050565b60008282111515156114be57fe5b818303905092915050565b600d60009054906101000a900473ffffffffffffffffffffffffffffffffffffffff1673ffffffffffffffffffffffffffffffffffffffff166108fc349081150290604051600060405180830381858888f19350505050151561152b57600080fd5b565b600061153761156d565b604051809103906000f080151561154d57600080fd5b905090565b600080828481151561156057fe5b0490508091505092915050565b6040516114f68061157e83390190560060606040526000600360146101000a81548160ff02191690831515021790555033600360006101000a81548173ffffffffffffffffffffffffffffffffffffffff021916908373ffffffffffffffffffffffffffffffffffffffff1602179055506114878061006f6000396000f3006060604052600436106100c5576000357c0100000000000000000000000000000000000000000000000000000000900463ffffffff16806305d2035b146100ca578063095ea7b3146100f757806318160ddd1461015157806323b872dd1461017a57806340c10f19146101f3578063661884631461024d5780636d1b229d146102a757806370a08231146102e25780637d64bcb41461032f578063a9059cbb1461035c578063d73dd623146103b6578063dd62ed3e14610410578063f2fde38b1461047c575b600080fd5b34156100d557600080fd5b6100dd6104b5565b604051808215151515815260200191505060405180910390f35b341561010257600080fd5b610137600480803573ffffffffffffffffffffffffffffffffffffffff169060200190919080359060200190919050506104c8565b604051808215151515815260200191505060405180910390f35b341561015c57600080fd5b6101646105ba565b6040518082815260200191505060405180910390f35b341561018557600080fd5b6101d9600480803573ffffffffffffffffffffffffffffffffffffffff1690602001909190803573ffffffffffffffffffffffffffffffffffffffff169060200190919080359060200190919050506105c0565b604051808215151515815260200191505060405180910390f35b34156101fe57600080fd5b610233600480803573ffffffffffffffffffffffffffffffffffffffff169060200190919080359060200190919050506108ac565b604051808215151515815260200191505060405180910390f35b341561025857600080fd5b61028d600480803573ffffffffffffffffffffffffffffffffffffffff16906020019091908035906020019091905050610a78565b604051808215151515815260200191505060405180910390f35b34156102b257600080fd5b6102c86004808035906020019091905050610d09565b604051808215151515815260200191505060405180910390f35b34156102ed57600080fd5b610319600480803573ffffffffffffffffffffffffffffffffffffffff16906020019091905050610d7e565b6040518082815260200191505060405180910390f35b341561033a57600080fd5b610342610dc7565b604051808215151515815260200191505060405180910390f35b341561036757600080fd5b61039c600480803573ffffffffffffffffffffffffffffffffffffffff16906020019091908035906020019091905050610e73565b604051808215151515815260200191505060405180910390f35b34156103c157600080fd5b6103f6600480803573ffffffffffffffffffffffffffffffffffffffff16906020019091908035906020019091905050611049565b604051808215151515815260200191505060405180910390f35b341561041b57600080fd5b610466600480803573ffffffffffffffffffffffffffffffffffffffff1690602001909190803573ffffffffffffffffffffffffffffffffffffffff16906020019091905050611245565b6040518082815260200191505060405180910390f35b341561048757600080fd5b6104b3600480803573ffffffffffffffffffffffffffffffffffffffff169060200190919050506112cc565b005b600360149054906101000a900460ff1681565b600081600260003373ffffffffffffffffffffffffffffffffffffffff1673ffffffffffffffffffffffffffffffffffffffff16815260200190815260200160002060008573ffffffffffffffffffffffffffffffffffffffff1673ffffffffffffffffffffffffffffffffffffffff168152602001908152602001600020819055508273ffffffffffffffffffffffffffffffffffffffff163373ffffffffffffffffffffffffffffffffffffffff167f8c5be1e5ebec7d5bd14f71427d1e84f3dd0314c0f7b2291e5b200ac8c7c3b925846040518082815260200191505060405180910390a36001905092915050565b60005481565b600080600073ffffffffffffffffffffffffffffffffffffffff168473ffffffffffffffffffffffffffffffffffffffff16141515156105ff57600080fd5b600260008673ffffffffffffffffffffffffffffffffffffffff1673ffffffffffffffffffffffffffffffffffffffff16815260200190815260200160002060003373ffffffffffffffffffffffffffffffffffffffff1673ffffffffffffffffffffffffffffffffffffffff1681526020019081526020016000205490506106d083600160008873ffffffffffffffffffffffffffffffffffffffff1673ffffffffffffffffffffffffffffffffffffffff1681526020019081526020016000205461142490919063ffffffff16565b600160008773ffffffffffffffffffffffffffffffffffffffff1673ffffffffffffffffffffffffffffffffffffffff1681526020019081526020016000208190555061076583600160008773ffffffffffffffffffffffffffffffffffffffff1673ffffffffffffffffffffffffffffffffffffffff1681526020019081526020016000205461143d90919063ffffffff16565b600160008673ffffffffffffffffffffffffffffffffffffffff1673ffffffffffffffffffffffffffffffffffffffff168152602001908152602001600020819055506107bb838261142490919063ffffffff16565b600260008773ffffffffffffffffffffffffffffffffffffffff1673ffffffffffffffffffffffffffffffffffffffff16815260200190815260200160002060003373ffffffffffffffffffffffffffffffffffffffff1673ffffffffffffffffffffffffffffffffffffffff168152602001908152602001600020819055508373ffffffffffffffffffffffffffffffffffffffff168573ffffffffffffffffffffffffffffffffffffffff167fddf252ad1be2c89b69c2b068fc378daa952ba7f163c4a11628f55a4df523b3ef856040518082815260200191505060405180910390a360019150509392505050565b6000600360009054906101000a900473ffffffffffffffffffffffffffffffffffffffff1673ffffffffffffffffffffffffffffffffffffffff163373ffffffffffffffffffffffffffffffffffffffff1614151561090a57600080fd5b600360149054906101000a900460ff1615151561092657600080fd5b61097882600160008673ffffffffffffffffffffffffffffffffffffffff1673ffffffffffffffffffffffffffffffffffffffff1681526020019081526020016000205461143d90919063ffffffff16565b600160008573ffffffffffffffffffffffffffffffffffffffff1673ffffffffffffffffffffffffffffffffffffffff168152602001908152602001600020819055508273ffffffffffffffffffffffffffffffffffffffff167f0f6798a560793a54c3bcfe86a93cde1e73087d944c0ea20544137d4121396885836040518082815260200191505060405180910390a28273ffffffffffffffffffffffffffffffffffffffff163373ffffffffffffffffffffffffffffffffffffffff167fddf252ad1be2c89b69c2b068fc378daa952ba7f163c4a11628f55a4df523b3ef846040518082815260200191505060405180910390a36001905092915050565b600080600260003373ffffffffffffffffffffffffffffffffffffffff1673ffffffffffffffffffffffffffffffffffffffff16815260200190815260200160002060008573ffffffffffffffffffffffffffffffffffffffff1673ffffffffffffffffffffffffffffffffffffffff16815260200190815260200160002054905080831115610b89576000600260003373ffffffffffffffffffffffffffffffffffffffff1673ffffffffffffffffffffffffffffffffffffffff16815260200190815260200160002060008673ffffffffffffffffffffffffffffffffffffffff1673ffffffffffffffffffffffffffffffffffffffff16815260200190815260200160002081905550610c1d565b610b9c838261142490919063ffffffff16565b600260003373ffffffffffffffffffffffffffffffffffffffff1673ffffffffffffffffffffffffffffffffffffffff16815260200190815260200160002060008673ffffffffffffffffffffffffffffffffffffffff1673ffffffffffffffffffffffffffffffffffffffff168152602001908152602001600020819055505b8373ffffffffffffffffffffffffffffffffffffffff163373ffffffffffffffffffffffffffffffffffffffff167f8c5be1e5ebec7d5bd14f71427d1e84f3dd0314c0f7b2291e5b200ac8c7c3b925600260003373ffffffffffffffffffffffffffffffffffffffff1673ffffffffffffffffffffffffffffffffffffffff16815260200190815260200160002060008873ffffffffffffffffffffffffffffffffffffffff1673ffffffffffffffffffffffffffffffffffffffff168152602001908152602001600020546040518082815260200191505060405180910390a3600191505092915050565b6000600360009054906101000a900473ffffffffffffffffffffffffffffffffffffffff1673ffffffffffffffffffffffffffffffffffffffff163373ffffffffffffffffffffffffffffffffffffffff16141515610d6757600080fd5b610d7360005483611424565b600081905550919050565b6000600160008373ffffffffffffffffffffffffffffffffffffffff1673ffffffffffffffffffffffffffffffffffffffff168152602001908152602001600020549050919050565b6000600360009054906101000a900473ffffffffffffffffffffffffffffffffffffffff1673ffffffffffffffffffffffffffffffffffffffff163373ffffffffffffffffffffffffffffffffffffffff16141515610e2557600080fd5b6001600360146101000a81548160ff0219169083151502179055507fae5184fba832cb2b1f702aca6117b8d265eaf03ad33eb133f19dde0f5920fa0860405160405180910390a16001905090565b60008073ffffffffffffffffffffffffffffffffffffffff168373ffffffffffffffffffffffffffffffffffffffff1614151515610eb057600080fd5b610f0282600160003373ffffffffffffffffffffffffffffffffffffffff1673ffffffffffffffffffffffffffffffffffffffff1681526020019081526020016000205461142490919063ffffffff16565b600160003373ffffffffffffffffffffffffffffffffffffffff1673ffffffffffffffffffffffffffffffffffffffff16815260200190815260200160002081905550610f9782600160008673ffffffffffffffffffffffffffffffffffffffff1673ffffffffffffffffffffffffffffffffffffffff1681526020019081526020016000205461143d90919063ffffffff16565b600160008573ffffffffffffffffffffffffffffffffffffffff1673ffffffffffffffffffffffffffffffffffffffff168152602001908152602001600020819055508273ffffffffffffffffffffffffffffffffffffffff163373ffffffffffffffffffffffffffffffffffffffff167fddf252ad1be2c89b69c2b068fc378daa952ba7f163c4a11628f55a4df523b3ef846040518082815260200191505060405180910390a36001905092915050565b60006110da82600260003373ffffffffffffffffffffffffffffffffffffffff1673ffffffffffffffffffffffffffffffffffffffff16815260200190815260200160002060008673ffffffffffffffffffffffffffffffffffffffff1673ffffffffffffffffffffffffffffffffffffffff1681526020019081526020016000205461143d90919063ffffffff16565b600260003373ffffffffffffffffffffffffffffffffffffffff1673ffffffffffffffffffffffffffffffffffffffff16815260200190815260200160002060008573ffffffffffffffffffffffffffffffffffffffff1673ffffffffffffffffffffffffffffffffffffffff168152602001908152602001600020819055508273ffffffffffffffffffffffffffffffffffffffff163373ffffffffffffffffffffffffffffffffffffffff167f8c5be1e5ebec7d5bd14f71427d1e84f3dd0314c0f7b2291e5b200ac8c7c3b925600260003373ffffffffffffffffffffffffffffffffffffffff1673ffffffffffffffffffffffffffffffffffffffff16815260200190815260200160002060008773ffffffffffffffffffffffffffffffffffffffff1673ffffffffffffffffffffffffffffffffffffffff168152602001908152602001600020546040518082815260200191505060405180910390a36001905092915050565b6000600260008473ffffffffffffffffffffffffffffffffffffffff1673ffffffffffffffffffffffffffffffffffffffff16815260200190815260200160002060008373ffffffffffffffffffffffffffffffffffffffff1673ffffffffffffffffffffffffffffffffffffffff16815260200190815260200160002054905092915050565b600360009054906101000a900473ffffffffffffffffffffffffffffffffffffffff1673ffffffffffffffffffffffffffffffffffffffff163373ffffffffffffffffffffffffffffffffffffffff1614151561132857600080fd5b600073ffffffffffffffffffffffffffffffffffffffff168173ffffffffffffffffffffffffffffffffffffffff161415151561136457600080fd5b8073ffffffffffffffffffffffffffffffffffffffff16600360009054906101000a900473ffffffffffffffffffffffffffffffffffffffff1673ffffffffffffffffffffffffffffffffffffffff167f8be0079c531659141344cd1fd0a4f28419497f9722a3daafe3b4186f6b6457e060405160405180910390a380600360006101000a81548173ffffffffffffffffffffffffffffffffffffffff021916908373ffffffffffffffffffffffffffffffffffffffff16021790555050565b600082821115151561143257fe5b818303905092915050565b600080828401905083811015151561145157fe5b80915050929150505600a165627a7a723058200f7fdd7cc32da7734de033efcf947f7f46cf9c8bac7e25c46b37d786b0d1f5dc0029a165627a7a723058205d63c9e7ab05761e4507a1fcc027b6ed198a5a9e790ba6a1dc7bd1c18e023b84002960606040526000600360146101000a81548160ff02191690831515021790555033600360006101000a81548173ffffffffffffffffffffffffffffffffffffffff021916908373ffffffffffffffffffffffffffffffffffffffff1602179055506114878061006f6000396000f3006060604052600436106100c5576000357c0100000000000000000000000000000000000000000000000000000000900463ffffffff16806305d2035b146100ca578063095ea7b3146100f757806318160ddd1461015157806323b872dd1461017a57806340c10f19146101f3578063661884631461024d5780636d1b229d146102a757806370a08231146102e25780637d64bcb41461032f578063a9059cbb1461035c578063d73dd623146103b6578063dd62ed3e14610410578063f2fde38b1461047c575b600080fd5b34156100d557600080fd5b6100dd6104b5565b604051808215151515815260200191505060405180910390f35b341561010257600080fd5b610137600480803573ffffffffffffffffffffffffffffffffffffffff169060200190919080359060200190919050506104c8565b604051808215151515815260200191505060405180910390f35b341561015c57600080fd5b6101646105ba565b6040518082815260200191505060405180910390f35b341561018557600080fd5b6101d9600480803573ffffffffffffffffffffffffffffffffffffffff1690602001909190803573ffffffffffffffffffffffffffffffffffffffff169060200190919080359060200190919050506105c0565b604051808215151515815260200191505060405180910390f35b34156101fe57600080fd5b610233600480803573ffffffffffffffffffffffffffffffffffffffff169060200190919080359060200190919050506108ac565b604051808215151515815260200191505060405180910390f35b341561025857600080fd5b61028d600480803573ffffffffffffffffffffffffffffffffffffffff16906020019091908035906020019091905050610a78565b604051808215151515815260200191505060405180910390f35b34156102b257600080fd5b6102c86004808035906020019091905050610d09565b604051808215151515815260200191505060405180910390f35b34156102ed57600080fd5b610319600480803573ffffffffffffffffffffffffffffffffffffffff16906020019091905050610d7e565b6040518082815260200191505060405180910390f35b341561033a57600080fd5b610342610dc7565b604051808215151515815260200191505060405180910390f35b341561036757600080fd5b61039c600480803573ffffffffffffffffffffffffffffffffffffffff16906020019091908035906020019091905050610e73565b604051808215151515815260200191505060405180910390f35b34156103c157600080fd5b6103f6600480803573ffffffffffffffffffffffffffffffffffffffff16906020019091908035906020019091905050611049565b604051808215151515815260200191505060405180910390f35b341561041b57600080fd5b610466600480803573ffffffffffffffffffffffffffffffffffffffff1690602001909190803573ffffffffffffffffffffffffffffffffffffffff16906020019091905050611245565b6040518082815260200191505060405180910390f35b341561048757600080fd5b6104b3600480803573ffffffffffffffffffffffffffffffffffffffff169060200190919050506112cc565b005b600360149054906101000a900460ff1681565b600081600260003373ffffffffffffffffffffffffffffffffffffffff1673ffffffffffffffffffffffffffffffffffffffff16815260200190815260200160002060008573ffffffffffffffffffffffffffffffffffffffff1673ffffffffffffffffffffffffffffffffffffffff168152602001908152602001600020819055508273ffffffffffffffffffffffffffffffffffffffff163373ffffffffffffffffffffffffffffffffffffffff167f8c5be1e5ebec7d5bd14f71427d1e84f3dd0314c0f7b2291e5b200ac8c7c3b925846040518082815260200191505060405180910390a36001905092915050565b60005481565b600080600073ffffffffffffffffffffffffffffffffffffffff168473ffffffffffffffffffffffffffffffffffffffff16141515156105ff57600080fd5b600260008673ffffffffffffffffffffffffffffffffffffffff1673ffffffffffffffffffffffffffffffffffffffff16815260200190815260200160002060003373ffffffffffffffffffffffffffffffffffffffff1673ffffffffffffffffffffffffffffffffffffffff1681526020019081526020016000205490506106d083600160008873ffffffffffffffffffffffffffffffffffffffff1673ffffffffffffffffffffffffffffffffffffffff1681526020019081526020016000205461142490919063ffffffff16565b600160008773ffffffffffffffffffffffffffffffffffffffff1673ffffffffffffffffffffffffffffffffffffffff1681526020019081526020016000208190555061076583600160008773ffffffffffffffffffffffffffffffffffffffff1673ffffffffffffffffffffffffffffffffffffffff1681526020019081526020016000205461143d90919063ffffffff16565b600160008673ffffffffffffffffffffffffffffffffffffffff1673ffffffffffffffffffffffffffffffffffffffff168152602001908152602001600020819055506107bb838261142490919063ffffffff16565b600260008773ffffffffffffffffffffffffffffffffffffffff1673ffffffffffffffffffffffffffffffffffffffff16815260200190815260200160002060003373ffffffffffffffffffffffffffffffffffffffff1673ffffffffffffffffffffffffffffffffffffffff168152602001908152602001600020819055508373ffffffffffffffffffffffffffffffffffffffff168573ffffffffffffffffffffffffffffffffffffffff167fddf252ad1be2c89b69c2b068fc378daa952ba7f163c4a11628f55a4df523b3ef856040518082815260200191505060405180910390a360019150509392505050565b6000600360009054906101000a900473ffffffffffffffffffffffffffffffffffffffff1673ffffffffffffffffffffffffffffffffffffffff163373ffffffffffffffffffffffffffffffffffffffff1614151561090a57600080fd5b600360149054906101000a900460ff1615151561092657600080fd5b61097882600160008673ffffffffffffffffffffffffffffffffffffffff1673ffffffffffffffffffffffffffffffffffffffff1681526020019081526020016000205461143d90919063ffffffff16565b600160008573ffffffffffffffffffffffffffffffffffffffff1673ffffffffffffffffffffffffffffffffffffffff168152602001908152602001600020819055508273ffffffffffffffffffffffffffffffffffffffff167f0f6798a560793a54c3bcfe86a93cde1e73087d944c0ea20544137d4121396885836040518082815260200191505060405180910390a28273ffffffffffffffffffffffffffffffffffffffff163373ffffffffffffffffffffffffffffffffffffffff167fddf252ad1be2c89b69c2b068fc378daa952ba7f163c4a11628f55a4df523b3ef846040518082815260200191505060405180910390a36001905092915050565b600080600260003373ffffffffffffffffffffffffffffffffffffffff1673ffffffffffffffffffffffffffffffffffffffff16815260200190815260200160002060008573ffffffffffffffffffffffffffffffffffffffff1673ffffffffffffffffffffffffffffffffffffffff16815260200190815260200160002054905080831115610b89576000600260003373ffffffffffffffffffffffffffffffffffffffff1673ffffffffffffffffffffffffffffffffffffffff16815260200190815260200160002060008673ffffffffffffffffffffffffffffffffffffffff1673ffffffffffffffffffffffffffffffffffffffff16815260200190815260200160002081905550610c1d565b610b9c838261142490919063ffffffff16565b600260003373ffffffffffffffffffffffffffffffffffffffff1673ffffffffffffffffffffffffffffffffffffffff16815260200190815260200160002060008673ffffffffffffffffffffffffffffffffffffffff1673ffffffffffffffffffffffffffffffffffffffff168152602001908152602001600020819055505b8373ffffffffffffffffffffffffffffffffffffffff163373ffffffffffffffffffffffffffffffffffffffff167f8c5be1e5ebec7d5bd14f71427d1e84f3dd0314c0f7b2291e5b200ac8c7c3b925600260003373ffffffffffffffffffffffffffffffffffffffff1673ffffffffffffffffffffffffffffffffffffffff16815260200190815260200160002060008873ffffffffffffffffffffffffffffffffffffffff1673ffffffffffffffffffffffffffffffffffffffff168152602001908152602001600020546040518082815260200191505060405180910390a3600191505092915050565b6000600360009054906101000a900473ffffffffffffffffffffffffffffffffffffffff1673ffffffffffffffffffffffffffffffffffffffff163373ffffffffffffffffffffffffffffffffffffffff16141515610d6757600080fd5b610d7360005483611424565b600081905550919050565b6000600160008373ffffffffffffffffffffffffffffffffffffffff1673ffffffffffffffffffffffffffffffffffffffff168152602001908152602001600020549050919050565b6000600360009054906101000a900473ffffffffffffffffffffffffffffffffffffffff1673ffffffffffffffffffffffffffffffffffffffff163373ffffffffffffffffffffffffffffffffffffffff16141515610e2557600080fd5b6001600360146101000a81548160ff0219169083151502179055507fae5184fba832cb2b1f702aca6117b8d265eaf03ad33eb133f19dde0f5920fa0860405160405180910390a16001905090565b60008073ffffffffffffffffffffffffffffffffffffffff168373ffffffffffffffffffffffffffffffffffffffff1614151515610eb057600080fd5b610f0282600160003373ffffffffffffffffffffffffffffffffffffffff1673ffffffffffffffffffffffffffffffffffffffff1681526020019081526020016000205461142490919063ffffffff16565b600160003373ffffffffffffffffffffffffffffffffffffffff1673ffffffffffffffffffffffffffffffffffffffff16815260200190815260200160002081905550610f9782600160008673ffffffffffffffffffffffffffffffffffffffff1673ffffffffffffffffffffffffffffffffffffffff1681526020019081526020016000205461143d90919063ffffffff16565b600160008573ffffffffffffffffffffffffffffffffffffffff1673ffffffffffffffffffffffffffffffffffffffff168152602001908152602001600020819055508273ffffffffffffffffffffffffffffffffffffffff163373ffffffffffffffffffffffffffffffffffffffff167fddf252ad1be2c89b69c2b068fc378daa952ba7f163c4a11628f55a4df523b3ef846040518082815260200191505060405180910390a36001905092915050565b60006110da82600260003373ffffffffffffffffffffffffffffffffffffffff1673ffffffffffffffffffffffffffffffffffffffff16815260200190815260200160002060008673ffffffffffffffffffffffffffffffffffffffff1673ffffffffffffffffffffffffffffffffffffffff1681526020019081526020016000205461143d90919063ffffffff16565b600260003373ffffffffffffffffffffffffffffffffffffffff1673ffffffffffffffffffffffffffffffffffffffff16815260200190815260200160002060008573ffffffffffffffffffffffffffffffffffffffff1673ffffffffffffffffffffffffffffffffffffffff168152602001908152602001600020819055508273ffffffffffffffffffffffffffffffffffffffff163373ffffffffffffffffffffffffffffffffffffffff167f8c5be1e5ebec7d5bd14f71427d1e84f3dd0314c0f7b2291e5b200ac8c7c3b925600260003373ffffffffffffffffffffffffffffffffffffffff1673ffffffffffffffffffffffffffffffffffffffff16815260200190815260200160002060008773ffffffffffffffffffffffffffffffffffffffff1673ffffffffffffffffffffffffffffffffffffffff168152602001908152602001600020546040518082815260200191505060405180910390a36001905092915050565b6000600260008473ffffffffffffffffffffffffffffffffffffffff1673ffffffffffffffffffffffffffffffffffffffff16815260200190815260200160002060008373ffffffffffffffffffffffffffffffffffffffff1673ffffffffffffffffffffffffffffffffffffffff16815260200190815260200160002054905092915050565b600360009054906101000a900473ffffffffffffffffffffffffffffffffffffffff1673ffffffffffffffffffffffffffffffffffffffff163373ffffffffffffffffffffffffffffffffffffffff1614151561132857600080fd5b600073ffffffffffffffffffffffffffffffffffffffff168173ffffffffffffffffffffffffffffffffffffffff161415151561136457600080fd5b8073ffffffffffffffffffffffffffffffffffffffff16600360009054906101000a900473ffffffffffffffffffffffffffffffffffffffff1673ffffffffffffffffffffffffffffffffffffffff167f8be0079c531659141344cd1fd0a4f28419497f9722a3daafe3b4186f6b6457e060405160405180910390a380600360006101000a81548173ffffffffffffffffffffffffffffffffffffffff021916908373ffffffffffffffffffffffffffffffffffffffff16021790555050565b600082821115151561143257fe5b818303905092915050565b600080828401905083811015151561145157fe5b80915050929150505600a165627a7a723058200f7fdd7cc32da7734de033efcf947f7f46cf9c8bac7e25c46b37d786b0d1f5dc0029",
  "source": "pragma solidity ^0.4.11;\n\nimport '../token/MintableToken.sol';\nimport '../SafeMath.sol';\nimport '../Ownable.sol';\n\n/**\n * @title Custom Deal Crowdsale\n * @author Aleksandar Djordjevic\n * @dev Crowdsale is a base contract for managing a token crowdsale.\n * Crowdsales have a start and end timestamps, where investors can make\n * token purchases and the crowdsale will assign them tokens based\n * on a token per ETH rate. Funds collected are forwarded to a wallet\n * as they arrive.\n */\ncontract Crowdsale is Ownable {\n\n    // Using SafeMath library for math operations\n    using SafeMath for uint256;\n\n    // The token being sold\n    MintableToken private token;\n\n    // Start and end timestamps where investments are allowed (both inclusive)\n    uint256 public preStartTime;\n    uint256 public preEndTime;\n    uint256 public preIcoStartTime;\n    uint256 public preIcoEndTime;\n    uint256 public ICOstartTime;\n    uint256 public ICOEndTime;\n\n    // Bonuses will be calculated here of ICO and Pre-ICO (both inclusive)\n    uint256 private preSaleBonus;\n    uint256 private preICOBonus;\n    uint256 private firstWeekBonus;\n    uint256 private secondWeekBonus;\n    uint256 private thirdWeekBonus;\n\n    // Wallet address where funds will be saved\n    address internal wallet;\n\n    // Base rate of a particular Custom Deal token\n    uint256 public rate;\n\n    // Amount of raised money in wei\n    uint256 internal weiRaised;\n\n    // Weeks in UTC\n    uint256 weekOne;\n    uint256 weekTwo;\n    uint256 weekThree;\n\n    // Total supply of token\n    uint256 public totalSupply = 400000000 * 1 ether;\n\n    // Public supply of token\n    uint256 public publicSupply = 300000000 * 1 ether;\n\n    // Reward supply of token\n    uint256 public reserveSupply = 10000000 * 1 ether;\n\n    // bounty supply of token\n    uint256 public bountySupply = 1000000 * 1 ether;\n\n    // PreSale supply of the token\n    uint256 public preSaleSupply = 8000000 * 1 ether;\n\n    // PreICO supply of token\n    uint256 public preicoSupply = 8000000 * 1 ether;\n\n    // ICO supply of token\n    uint256 public icoSupply = 12300000 * 1 ether;\n\n    // Remaining Public Supply of token\n    uint256 public remainingPublicSupply = publicSupply;\n\n    // Remaining Bounty Supply of token\n    uint256 public remainingBountySupply = bountySupply;\n\n    // Remaining company Supply of token\n    uint256 public remainingReserveSupply = reserveSupply;\n\n    /**\n     * @bool checkBurnTokens\n     * @bool upgradePreICOSupply\n     * @bool upgradeICOSupply\n     * @bool grantReserveSupply\n     */\n    bool private checkBurnTokens;\n    bool private upgradePreICOSupply;\n    bool private upgradeICOSupply;\n    bool private grantReserveSupply;\n\n    /**\n     * Event for token purchase logging\n     *\n     * @param purchaser Who paid for the tokens\n     * @param beneficiary Who got the tokens\n     * @param value Weis paid for purchase\n     * @param amount Amount of tokens purchased\n     */\n    event TokenPurchase(address indexed purchaser, address indexed beneficiary, uint256 value, uint256 amount);\n\n    /**\n     * @dev CustomDeal Crowdsale Constructor\n     * @param _startTime Start time of crowdsale\n     * @param _endTime End time of crowdsale\n     * @param _rate Base rate of the token\n     * @param _wallet Address of wallet\n     */\n    function Crowdsale(uint256 _startTime, uint256 _endTime, uint256 _rate, address _wallet) public {\n        require(_startTime >= now);\n        require(_endTime >= _startTime);\n        require(_rate > 0);\n        require(_wallet != 0x0);\n\n        // CustomDeal token creation\n        token = createTokenContract();\n\n        // Pre-sale start Time\n        preStartTime = now;\n\n        // Pre-sale end time\n        preEndTime = preStartTime + 5 minutes;\n\n        // Pre-ICO start time\n        preIcoStartTime = preEndTime;\n\n        // Pre-ICO end time\n        preIcoEndTime = preIcoStartTime + 5 minutes;\n\n        // ICO start Time\n        ICOstartTime = preIcoEndTime;\n\n        // ICO end Time\n        ICOEndTime = ICOstartTime + 15 minutes;\n\n        // Base rate of CDL Token\n        rate = _rate;\n\n        // Multi-sig wallet where funds will be saved\n        wallet = _wallet;\n\n        // Calculations of bonuses in ICO or Pre-ICO\n        preSaleBonus = SafeMath.div(SafeMath.mul(rate, 25), 100);\n        preICOBonus = SafeMath.div(SafeMath.mul(rate, 10), 100);\n        firstWeekBonus = SafeMath.div(SafeMath.mul(rate, 20), 100);\n        secondWeekBonus = SafeMath.div(SafeMath.mul(rate, 10), 100);\n        thirdWeekBonus = SafeMath.div(SafeMath.mul(rate, 5), 100);\n\n        // ICO bonuses week calculations 604800\n        weekOne = SafeMath.add(ICOstartTime, 3 minutes);\n        weekTwo = SafeMath.add(weekOne, 3 minutes);\n        weekThree = SafeMath.add(weekTwo, 3 minutes);\n\n        checkBurnTokens = false;\n        upgradePreICOSupply = false;\n        upgradeICOSupply = false;\n    }\n\n    /**\n     * @dev Creates the token to be sold\n     * Override this method to have crowdsale of a specific mintable token\n     * @return True instance of mintable token\n     */\n    function createTokenContract() internal returns (MintableToken) {\n        return new MintableToken();\n    }\n\n    /**\n     * @dev fallback function can be used to buy tokens\n     */\n    function() public payable {\n        buyTokens(msg.sender);\n    }\n\n    /**\n     * @dev High level token purchase function\n     */\n    function buyTokens(address beneficiary) public payable {\n        require(beneficiary != 0x0);\n        require(validPurchase());\n\n        uint256 weiAmount = msg.value;\n\n        // Minimum investment should be 0.10 ETH\n        require(weiAmount >= 0.10 * 1 ether);\n\n        uint256 accessTime = now;\n        uint256 tokens = 0;\n        uint256 supplyTokens = 0;\n        uint256 bonusTokens = 0;\n\n        // Calculating the Pre-Sale, Pre-ICO and ICO bonuses on the basis of timing\n        if ((accessTime >= preStartTime) && (accessTime < preEndTime)) {\n            require(preSaleSupply > 0);\n\n            bonusTokens = SafeMath.add(bonusTokens, weiAmount.mul(preSaleBonus));\n            supplyTokens = SafeMath.add(supplyTokens, weiAmount.mul(rate));\n            tokens = SafeMath.add(bonusTokens, supplyTokens);\n\n            require(preSaleSupply >= supplyTokens);\n            require(icoSupply >= bonusTokens);\n\n            preSaleSupply = preSaleSupply.sub(supplyTokens);\n            icoSupply = icoSupply.sub(bonusTokens);\n            remainingPublicSupply = remainingPublicSupply.sub(tokens);\n\n        } else if ((accessTime >= preIcoStartTime) && (accessTime < preIcoEndTime)) {\n            if (!upgradePreICOSupply) {\n                preicoSupply = preicoSupply.add(preSaleSupply);\n                upgradePreICOSupply = true;\n            }\n            require(preicoSupply > 0);\n\n            bonusTokens = SafeMath.add(bonusTokens, weiAmount.mul(preICOBonus));\n            supplyTokens = SafeMath.add(supplyTokens, weiAmount.mul(rate));\n            tokens = SafeMath.add(bonusTokens, supplyTokens);\n\n            require(preicoSupply >= supplyTokens);\n            require(icoSupply >= bonusTokens);\n\n            preicoSupply = preicoSupply.sub(supplyTokens);\n            icoSupply = icoSupply.sub(bonusTokens);\n            remainingPublicSupply = remainingPublicSupply.sub(tokens);\n\n        } else if ((accessTime >= ICOstartTime) && (accessTime <= ICOEndTime)) {\n            if (!upgradeICOSupply) {\n                icoSupply = SafeMath.add(icoSupply, preicoSupply);\n                upgradeICOSupply = true;\n            }\n            require(icoSupply > 0);\n\n            if (accessTime <= weekOne) {\n                tokens = SafeMath.add(tokens, weiAmount.mul(firstWeekBonus));\n            } else if (accessTime <= weekTwo) {\n                tokens = SafeMath.add(tokens, weiAmount.mul(secondWeekBonus));\n            } else if (accessTime < weekThree) {\n                tokens = SafeMath.add(tokens, weiAmount.mul(thirdWeekBonus));\n            }\n            tokens = SafeMath.add(tokens, weiAmount.mul(rate));\n            icoSupply = icoSupply.sub(tokens);\n            remainingPublicSupply = remainingPublicSupply.sub(tokens);\n        } else {\n            revert();\n        }\n\n        // Update state\n        weiRaised = weiRaised.add(weiAmount);\n\n        // Tokens are minting here\n        token.mint(beneficiary, tokens);\n        TokenPurchase(msg.sender, beneficiary, weiAmount, tokens);\n\n        // Funds are forwarding\n        forwardFunds();\n    }\n\n    /**\n     * @dev Send ether to the fund collection wallet\n     * Override to create custom fund forwarding mechanisms\n     */\n    function forwardFunds() internal {\n        wallet.transfer(msg.value);\n    }\n\n    /**\n     * @dev Overriding Crowdsale#validPurchase to add extra cap logic\n     * @return True if the transaction can buy tokens\n     */\n    function validPurchase() internal constant returns (bool) {\n        bool withinPeriod = now >= preStartTime && now <= ICOEndTime;\n        bool nonZeroPurchase = msg.value != 0;\n        return withinPeriod && nonZeroPurchase;\n    }\n\n    /**\n     * @dev Call to check if the crowdsale has been ended or not\n     * @return True if crowdsale event has ended\n     */\n    function hasEnded() public constant returns (bool) {\n        return now > ICOEndTime;\n    }\n\n    /**\n     * @dev Burn all remaining tokens after crowdsale has ended\n     * @return True if burnToken function has ended\n     */\n    function burnToken() onlyOwner public returns (bool) {\n        require(hasEnded());\n        require(!checkBurnTokens);\n        checkBurnTokens = true;\n        token.burnTokens(remainingPublicSupply);\n        totalSupply = SafeMath.sub(totalSupply, remainingPublicSupply);\n        remainingPublicSupply = 0;\n        preSaleSupply = 0;\n        preicoSupply = 0;\n        icoSupply = 0;\n        return true;\n    }\n\n    /**\n     * @dev Overriding Crowdsale#validPurchase to add extra cap logic\n     * @param beneficiary Address where owner wants to transfer tokens\n     * @param valueToken Value of token\n     */\n    function bountyFunds(address beneficiary, uint256 valueToken) onlyOwner public {\n        valueToken = SafeMath.mul(valueToken, 1 ether);\n        require(remainingBountySupply >= valueToken);\n        remainingBountySupply = SafeMath.sub(remainingBountySupply, valueToken);\n        token.mint(beneficiary, valueToken);\n    }\n\n    /**\n     * @dev Grant reward token when the crowdsale has ended\n     */\n    function grantRewardToken() onlyOwner public {\n        require(!grantReserveSupply);\n        grantReserveSupply = true;\n        token.mint(0x00000000000000000000000000000000, remainingReserveSupply);\n        remainingReserveSupply = 0;\n    }\n\n    /**\n     * @dev Function transferToken works to transfer tokens to the specified address on the\n     * call of owner within the crowdsale timestamp\n     * @param beneficiary Address where owner wants to transfer tokens\n     * @param tokens Value of token\n     */\n    function transferToken(address beneficiary, uint256 tokens) onlyOwner public {\n        require(ICOEndTime > now);\n        tokens = SafeMath.mul(tokens, 1 ether);\n        require(remainingPublicSupply >= tokens);\n        remainingPublicSupply = SafeMath.sub(remainingPublicSupply, tokens);\n        token.mint(beneficiary, tokens);\n    }\n\n    /**\n     * @dev Return token address\n     * @return True if the operation was successful\n     */\n    function getTokenAddress() onlyOwner public view returns (address) {\n        return token;\n    }\n\n    /**\n     * @dev Return remaining public supply of tokens\n     * @return Remaining public supply of tokens\n     */\n    function getPublicSupply() onlyOwner public view returns (uint256) {\n        return remainingPublicSupply;\n    }\n}\n\n",
  "sourcePath": "/Users/elly/custom-deal-ico-smart-contracts/contracts/crowdsale/Crowdsale.sol",
  "compiler": {
    "name": "solc",
    "version": "0.4.19+commit.c4cbbb05.Emscripten.clang"
  },
  "schemaVersion": "2.0.0",
  "updatedAt": "2018-03-20T12:52:52.639Z"
}