{
  "contractName": "CustomDealICO",
  "abi": [
    {
      "constant": true,
      "inputs": [],
      "name": "reserveSupply",
      "outputs": [
        {
          "name": "",
          "type": "uint256"
        }
      ],
      "payable": false,
      "stateMutability": "view",
      "type": "function"
    },
    {
      "constant": true,
      "inputs": [],
      "name": "remainingPublicSupply",
      "outputs": [
        {
          "name": "",
          "type": "uint256"
        }
      ],
      "payable": false,
      "stateMutability": "view",
      "type": "function"
    },
    {
      "constant": false,
      "inputs": [
        {
          "name": "beneficiary",
          "type": "address"
        },
        {
          "name": "tokens",
          "type": "uint256"
        }
      ],
      "name": "transferToken",
      "outputs": [],
      "payable": false,
      "stateMutability": "nonpayable",
      "type": "function"
    },
    {
      "constant": true,
      "inputs": [],
      "name": "getTokenAddress",
      "outputs": [
        {
          "name": "",
          "type": "address"
        }
      ],
      "payable": false,
      "stateMutability": "view",
      "type": "function"
    },
    {
      "constant": true,
      "inputs": [],
      "name": "totalSupply",
      "outputs": [
        {
          "name": "",
          "type": "uint256"
        }
      ],
      "payable": false,
      "stateMutability": "view",
      "type": "function"
    },
    {
      "constant": false,
      "inputs": [],
      "name": "updateGoalCheck",
      "outputs": [],
      "payable": false,
      "stateMutability": "nonpayable",
      "type": "function"
    },
    {
      "constant": true,
      "inputs": [],
      "name": "rate",
      "outputs": [
        {
          "name": "",
          "type": "uint256"
        }
      ],
      "payable": false,
      "stateMutability": "view",
      "type": "function"
    },
    {
      "constant": true,
      "inputs": [],
      "name": "preSaleSupply",
      "outputs": [
        {
          "name": "",
          "type": "uint256"
        }
      ],
      "payable": false,
      "stateMutability": "view",
      "type": "function"
    },
    {
      "constant": true,
      "inputs": [],
      "name": "cap",
      "outputs": [
        {
          "name": "",
          "type": "uint256"
        }
      ],
      "payable": false,
      "stateMutability": "view",
      "type": "function"
    },
    {
      "constant": true,
      "inputs": [],
      "name": "goal",
      "outputs": [
        {
          "name": "",
          "type": "uint256"
        }
      ],
      "payable": false,
      "stateMutability": "view",
      "type": "function"
    },
    {
      "constant": false,
      "inputs": [],
      "name": "finalize",
      "outputs": [],
      "payable": false,
      "stateMutability": "nonpayable",
      "type": "function"
    },
    {
      "constant": false,
      "inputs": [
        {
          "name": "beneficiary",
          "type": "address"
        },
        {
          "name": "valueToken",
          "type": "uint256"
        }
      ],
      "name": "bountyFunds",
      "outputs": [],
      "payable": false,
      "stateMutability": "nonpayable",
      "type": "function"
    },
    {
      "constant": true,
      "inputs": [],
      "name": "preStartTime",
      "outputs": [
        {
          "name": "",
          "type": "uint256"
        }
      ],
      "payable": false,
      "stateMutability": "view",
      "type": "function"
    },
    {
      "constant": true,
      "inputs": [],
      "name": "icoSupply",
      "outputs": [
        {
          "name": "",
          "type": "uint256"
        }
      ],
      "payable": false,
      "stateMutability": "view",
      "type": "function"
    },
    {
      "constant": true,
      "inputs": [],
      "name": "publicSupply",
      "outputs": [
        {
          "name": "",
          "type": "uint256"
        }
      ],
      "payable": false,
      "stateMutability": "view",
      "type": "function"
    },
    {
      "constant": true,
      "inputs": [],
      "name": "getVaultAddress",
      "outputs": [
        {
          "name": "",
          "type": "address"
        }
      ],
      "payable": false,
      "stateMutability": "view",
      "type": "function"
    },
    {
      "constant": true,
      "inputs": [],
      "name": "preicoSupply",
      "outputs": [
        {
          "name": "",
          "type": "uint256"
        }
      ],
      "payable": false,
      "stateMutability": "view",
      "type": "function"
    },
    {
      "constant": true,
      "inputs": [],
      "name": "preIcoEndTime",
      "outputs": [
        {
          "name": "",
          "type": "uint256"
        }
      ],
      "payable": false,
      "stateMutability": "view",
      "type": "function"
    },
    {
      "constant": true,
      "inputs": [],
      "name": "getPublicSupply",
      "outputs": [
        {
          "name": "",
          "type": "uint256"
        }
      ],
      "payable": false,
      "stateMutability": "view",
      "type": "function"
    },
    {
      "constant": false,
      "inputs": [],
      "name": "grantRewardToken",
      "outputs": [],
      "payable": false,
      "stateMutability": "nonpayable",
      "type": "function"
    },
    {
      "constant": false,
      "inputs": [],
      "name": "goalReached",
      "outputs": [
        {
          "name": "",
          "type": "bool"
        }
      ],
      "payable": true,
      "stateMutability": "payable",
      "type": "function"
    },
    {
      "constant": true,
      "inputs": [],
      "name": "bountySupply",
      "outputs": [
        {
          "name": "",
          "type": "uint256"
        }
      ],
      "payable": false,
      "stateMutability": "view",
      "type": "function"
    },
    {
      "constant": true,
      "inputs": [],
      "name": "remainingReserveSupply",
      "outputs": [
        {
          "name": "",
          "type": "uint256"
        }
      ],
      "payable": false,
      "stateMutability": "view",
      "type": "function"
    },
    {
      "constant": true,
      "inputs": [],
      "name": "preIcoStartTime",
      "outputs": [
        {
          "name": "",
          "type": "uint256"
        }
      ],
      "payable": false,
      "stateMutability": "view",
      "type": "function"
    },
    {
      "constant": true,
      "inputs": [],
      "name": "preEndTime",
      "outputs": [
        {
          "name": "",
          "type": "uint256"
        }
      ],
      "payable": false,
      "stateMutability": "view",
      "type": "function"
    },
    {
      "constant": true,
      "inputs": [],
      "name": "ICOEndTime",
      "outputs": [
        {
          "name": "",
          "type": "uint256"
        }
      ],
      "payable": false,
      "stateMutability": "view",
      "type": "function"
    },
    {
      "constant": false,
      "inputs": [],
      "name": "claimRefund",
      "outputs": [],
      "payable": false,
      "stateMutability": "nonpayable",
      "type": "function"
    },
    {
      "constant": true,
      "inputs": [],
      "name": "ICOstartTime",
      "outputs": [
        {
          "name": "",
          "type": "uint256"
        }
      ],
      "payable": false,
      "stateMutability": "view",
      "type": "function"
    },
    {
      "constant": false,
      "inputs": [
        {
          "name": "beneficiary",
          "type": "address"
        }
      ],
      "name": "buyTokens",
      "outputs": [],
      "payable": true,
      "stateMutability": "payable",
      "type": "function"
    },
    {
      "constant": true,
      "inputs": [],
      "name": "hasEnded",
      "outputs": [
        {
          "name": "",
          "type": "bool"
        }
      ],
      "payable": false,
      "stateMutability": "view",
      "type": "function"
    },
    {
      "constant": false,
      "inputs": [
        {
          "name": "newOwner",
          "type": "address"
        }
      ],
      "name": "transferOwnership",
      "outputs": [],
      "payable": false,
      "stateMutability": "nonpayable",
      "type": "function"
    },
    {
      "constant": false,
      "inputs": [],
      "name": "burnToken",
      "outputs": [
        {
          "name": "",
          "type": "bool"
        }
      ],
      "payable": false,
      "stateMutability": "nonpayable",
      "type": "function"
    },
    {
      "constant": true,
      "inputs": [],
      "name": "remainingBountySupply",
      "outputs": [
        {
          "name": "",
          "type": "uint256"
        }
      ],
      "payable": false,
      "stateMutability": "view",
      "type": "function"
    },
    {
      "inputs": [],
      "payable": false,
      "stateMutability": "nonpayable",
      "type": "constructor"
    },
    {
      "payable": true,
      "stateMutability": "payable",
      "type": "fallback"
    },
    {
      "anonymous": false,
      "inputs": [],
      "name": "Finalized",
      "type": "event"
    },
    {
      "anonymous": false,
      "inputs": [
        {
          "indexed": true,
          "name": "purchaser",
          "type": "address"
        },
        {
          "indexed": true,
          "name": "beneficiary",
          "type": "address"
        },
        {
          "indexed": false,
          "name": "value",
          "type": "uint256"
        },
        {
          "indexed": false,
          "name": "amount",
          "type": "uint256"
        }
      ],
      "name": "TokenPurchase",
      "type": "event"
    },
    {
      "anonymous": false,
      "inputs": [
        {
          "indexed": true,
          "name": "previousOwner",
          "type": "address"
        },
        {
          "indexed": true,
          "name": "newOwner",
          "type": "address"
        }
      ],
      "name": "OwnershipTransferred",
      "type": "event"
    }
  ],
  "bytecode": "0x60606040526b014adf4b7320334b900000006013556af8277896582678ac0000006014556a084595161401484a00000060155569d3c21bcecceda10000006016556a069e10de76676d080000006017556a069e10de76676d080000006018556a0a2ca056093f046f800000601955601454601a55601654601b55601554601c556000601f60006101000a81548160ff0219169083151502179055506000602160006101000a81548160ff021916908315150217905550426022556107084201602355610514602455686c6b935b8bbd40000060255569039992648a23c8a00000602655732f608b2e4e95a62d4b05e41131871cf3ce008068602760006101000a81548173ffffffffffffffffffffffffffffffffffffffff021916908373ffffffffffffffffffffffffffffffffffffffff16021790555034156200014357600080fd5b602554602654602254602354602454602760009054906101000a900473ffffffffffffffffffffffffffffffffffffffff16336000806101000a81548173ffffffffffffffffffffffffffffffffffffffff021916908373ffffffffffffffffffffffffffffffffffffffff160217905550428410151515620001c557600080fd5b838310151515620001d557600080fd5b600082111515620001e557600080fd5b60008173ffffffffffffffffffffffffffffffffffffffff16141515156200020c57600080fd5b6200022a6200061f6401000000000262001bd9176401000000009004565b600160006101000a81548173ffffffffffffffffffffffffffffffffffffffff021916908373ffffffffffffffffffffffffffffffffffffffff1602179055504260028190555061012c6002540160038190555060035460048190555061012c600454016005819055506005546006819055506103846006540160078190555081600e8190555080600d60006101000a81548173ffffffffffffffffffffffffffffffffffffffff021916908373ffffffffffffffffffffffffffffffffffffffff1602179055506200033562000319600e54601962000647640100000000026200190c176401000000009004565b60646200067d6401000000000262001bfe176401000000009004565b6008819055506200037e62000362600e54600a62000647640100000000026200190c176401000000009004565b60646200067d6401000000000262001bfe176401000000009004565b600981905550620003c7620003ab600e54601462000647640100000000026200190c176401000000009004565b60646200067d6401000000000262001bfe176401000000009004565b600a8190555062000410620003f4600e54600a62000647640100000000026200190c176401000000009004565b60646200067d6401000000000262001bfe176401000000009004565b600b81905550620004596200043d600e54600562000647640100000000026200190c176401000000009004565b60646200067d6401000000000262001bfe176401000000009004565b600c819055506200048260065460b462000699640100000000026200193f176401000000009004565b601081905550620004ab60105460b462000699640100000000026200193f176401000000009004565b601181905550620004d460115460b462000699640100000000026200193f176401000000009004565b6012819055506000601d60006101000a81548160ff0219169083151502179055506000601d60016101000a81548160ff0219169083151502179055506000601d60026101000a81548160ff021916908315150217905550505050506000811115156200053f57600080fd5b80601e81905550506000811115156200055757600080fd5b600d60009054906101000a900473ffffffffffffffffffffffffffffffffffffffff1662000584620006b8565b808273ffffffffffffffffffffffffffffffffffffffff1673ffffffffffffffffffffffffffffffffffffffff168152602001915050604051809103906000f0801515620005d157600080fd5b602160016101000a81548173ffffffffffffffffffffffffffffffffffffffff021916908373ffffffffffffffffffffffffffffffffffffffff1602179055508060208190555050620006da565b60006200062b620006c9565b604051809103906000f08015156200064257600080fd5b905090565b600080828402905060008414806200066a57508284828115156200066757fe5b04145b15156200067357fe5b8091505092915050565b60008082848115156200068c57fe5b0490508091505092915050565b6000808284019050838110151515620006ae57fe5b8091505092915050565b6040516109dc8062003a7483390190565b604051611735806200445083390190565b61338a80620006ea6000396000f3006060604052600436106101a1576000357c0100000000000000000000000000000000000000000000000000000000900463ffffffff16806303d41eb6146101ac57806310042e10146101d55780631072cbea146101fe57806310fe9ae81461024057806318160ddd146102955780631df025d6146102be5780632c4e722e146102d35780632e055bcc146102fc578063355274ea14610325578063401938831461034e5780634bb278f3146103775780634c750bca1461038c5780634dc41210146103ce5780634e8127f6146103f75780635e84d7231461042057806365cacaa4146104495780636f1ca0c21461049e578063716344f0146104c757806373cbd8ce146104f0578063743e79eb146105195780637d3d65221461052e57806386852fd714610550578063887c7f9214610579578063910f5b81146105a2578063a12c2564146105cb578063a242f049146105f4578063b5545a3c1461061d578063c1da392314610632578063ec8ac4d81461065b578063ecb70fb714610689578063f2fde38b146106b6578063faa0a264146106ef578063fd1382231461071c575b6101aa33610745565b005b34156101b757600080fd5b6101bf610cb7565b6040518082815260200191505060405180910390f35b34156101e057600080fd5b6101e8610cbd565b6040518082815260200191505060405180910390f35b341561020957600080fd5b61023e600480803573ffffffffffffffffffffffffffffffffffffffff16906020019091908035906020019091905050610cc3565b005b341561024b57600080fd5b610253610e52565b604051808273ffffffffffffffffffffffffffffffffffffffff1673ffffffffffffffffffffffffffffffffffffffff16815260200191505060405180910390f35b34156102a057600080fd5b6102a8610ed7565b6040518082815260200191505060405180910390f35b34156102c957600080fd5b6102d1610edd565b005b34156102de57600080fd5b6102e6610f55565b6040518082815260200191505060405180910390f35b341561030757600080fd5b61030f610f5b565b6040518082815260200191505060405180910390f35b341561033057600080fd5b610338610f61565b6040518082815260200191505060405180910390f35b341561035957600080fd5b610361610f67565b6040518082815260200191505060405180910390f35b341561038257600080fd5b61038a610f6d565b005b341561039757600080fd5b6103cc600480803573ffffffffffffffffffffffffffffffffffffffff16906020019091908035906020019091905050611048565b005b34156103d957600080fd5b6103e16111c7565b6040518082815260200191505060405180910390f35b341561040257600080fd5b61040a6111cd565b6040518082815260200191505060405180910390f35b341561042b57600080fd5b6104336111d3565b6040518082815260200191505060405180910390f35b341561045457600080fd5b61045c6111d9565b604051808273ffffffffffffffffffffffffffffffffffffffff1673ffffffffffffffffffffffffffffffffffffffff16815260200191505060405180910390f35b34156104a957600080fd5b6104b161125e565b6040518082815260200191505060405180910390f35b34156104d257600080fd5b6104da611264565b6040518082815260200191505060405180910390f35b34156104fb57600080fd5b61050361126a565b6040518082815260200191505060405180910390f35b341561052457600080fd5b61052c6112cf565b005b610536611441565b604051808215151515815260200191505060405180910390f35b341561055b57600080fd5b61056361149a565b6040518082815260200191505060405180910390f35b341561058457600080fd5b61058c6114a0565b6040518082815260200191505060405180910390f35b34156105ad57600080fd5b6105b56114a6565b6040518082815260200191505060405180910390f35b34156105d657600080fd5b6105de6114ac565b6040518082815260200191505060405180910390f35b34156105ff57600080fd5b6106076114b2565b6040518082815260200191505060405180910390f35b341561062857600080fd5b6106306114b8565b005b341561063d57600080fd5b6106456115b9565b6040518082815260200191505060405180910390f35b610687600480803573ffffffffffffffffffffffffffffffffffffffff16906020019091905050610745565b005b341561069457600080fd5b61069c6115bf565b604051808215151515815260200191505060405180910390f35b34156106c157600080fd5b6106ed600480803573ffffffffffffffffffffffffffffffffffffffff169060200190919050506115e2565b005b34156106fa57600080fd5b610702611737565b604051808215151515815260200191505060405180910390f35b341561072757600080fd5b61072f6118d0565b6040518082815260200191505060405180910390f35b6000806000806000808673ffffffffffffffffffffffffffffffffffffffff161415151561077257600080fd5b61077a6118d6565b151561078557600080fd5b34945067016345785d8a0000851015151561079f57600080fd5b42935060009250600091506000905060025484101580156107c1575060035484105b1561089b5760006017541115156107d757600080fd5b6107f5816107f06008548861190c90919063ffffffff16565b61193f565b905061081582610810600e548861190c90919063ffffffff16565b61193f565b9150610821818361193f565b9250816017541015151561083457600080fd5b806019541015151561084557600080fd5b61085a8260175461195d90919063ffffffff16565b6017819055506108758160195461195d90919063ffffffff16565b60198190555061089083601a5461195d90919063ffffffff16565b601a81905550610b36565b60045484101580156108ae575060055484105b156109d757601d60019054906101000a900460ff161515610902576108e060175460185461193f90919063ffffffff16565b6018819055506001601d60016101000a81548160ff0219169083151502179055505b600060185411151561091357600080fd5b6109318161092c6009548861190c90919063ffffffff16565b61193f565b90506109518261094c600e548861190c90919063ffffffff16565b61193f565b915061095d818361193f565b9250816018541015151561097057600080fd5b806019541015151561098157600080fd5b6109968260185461195d90919063ffffffff16565b6018819055506109b18160195461195d90919063ffffffff16565b6019819055506109cc83601a5461195d90919063ffffffff16565b601a81905550610b35565b60065484101580156109eb57506007548411155b15610b2f57601d60029054906101000a900460ff161515610a3657610a1460195460185461193f565b6019819055506001601d60026101000a81548160ff0219169083151502179055505b6000601954111515610a4757600080fd5b60105484111515610a7757610a7083610a6b600a548861190c90919063ffffffff16565b61193f565b9250610ad4565b60115484111515610aa757610aa083610a9b600b548861190c90919063ffffffff16565b61193f565b9250610ad3565b601254841015610ad257610acf83610aca600c548861190c90919063ffffffff16565b61193f565b92505b5b5b610af283610aed600e548861190c90919063ffffffff16565b61193f565b9250610b098360195461195d90919063ffffffff16565b601981905550610b2483601a5461195d90919063ffffffff16565b601a81905550610b34565b600080fd5b5b5b610b4b85600f5461193f90919063ffffffff16565b600f81905550600160009054906101000a900473ffffffffffffffffffffffffffffffffffffffff1673ffffffffffffffffffffffffffffffffffffffff166340c10f1987856000604051602001526040518363ffffffff167c0100000000000000000000000000000000000000000000000000000000028152600401808373ffffffffffffffffffffffffffffffffffffffff1673ffffffffffffffffffffffffffffffffffffffff16815260200182815260200192505050602060405180830381600087803b1515610c1e57600080fd5b6102c65a03f11515610c2f57600080fd5b50505060405180519050508573ffffffffffffffffffffffffffffffffffffffff163373ffffffffffffffffffffffffffffffffffffffff167f623b3804fa71d67900d064613da8f94b9617215ee90799290593e1745087ad188786604051808381526020018281526020019250505060405180910390a3610caf611976565b505050505050565b60155481565b601a5481565b6000809054906101000a900473ffffffffffffffffffffffffffffffffffffffff1673ffffffffffffffffffffffffffffffffffffffff163373ffffffffffffffffffffffffffffffffffffffff16141515610d1e57600080fd5b42600754111515610d2e57600080fd5b610d4081670de0b6b3a764000061190c565b905080601a5410151515610d5357600080fd5b610d5f601a548261195d565b601a81905550600160009054906101000a900473ffffffffffffffffffffffffffffffffffffffff1673ffffffffffffffffffffffffffffffffffffffff166340c10f1983836000604051602001526040518363ffffffff167c0100000000000000000000000000000000000000000000000000000000028152600401808373ffffffffffffffffffffffffffffffffffffffff1673ffffffffffffffffffffffffffffffffffffffff16815260200182815260200192505050602060405180830381600087803b1515610e3257600080fd5b6102c65a03f11515610e4357600080fd5b50505060405180519050505050565b60008060009054906101000a900473ffffffffffffffffffffffffffffffffffffffff1673ffffffffffffffffffffffffffffffffffffffff163373ffffffffffffffffffffffffffffffffffffffff16141515610eaf57600080fd5b600160009054906101000a900473ffffffffffffffffffffffffffffffffffffffff16905090565b60135481565b6000809054906101000a900473ffffffffffffffffffffffffffffffffffffffff1673ffffffffffffffffffffffffffffffffffffffff163373ffffffffffffffffffffffffffffffffffffffff16141515610f3857600080fd5b6001602160006101000a81548160ff021916908315150217905550565b600e5481565b60175481565b601e5481565b60205481565b6000809054906101000a900473ffffffffffffffffffffffffffffffffffffffff1673ffffffffffffffffffffffffffffffffffffffff163373ffffffffffffffffffffffffffffffffffffffff16141515610fc857600080fd5b601f60009054906101000a900460ff16151515610fe457600080fd5b610fec6115bf565b1515610ff757600080fd5b610fff611a49565b7f6823b073d48d6e3a7d385eeb601452d680e74bb46afe3255a7d778f3a9b1768160405160405180910390a16001601f60006101000a81548160ff021916908315150217905550565b6000809054906101000a900473ffffffffffffffffffffffffffffffffffffffff1673ffffffffffffffffffffffffffffffffffffffff163373ffffffffffffffffffffffffffffffffffffffff161415156110a357600080fd5b6110b581670de0b6b3a764000061190c565b905080601b54101515156110c857600080fd5b6110d4601b548261195d565b601b81905550600160009054906101000a900473ffffffffffffffffffffffffffffffffffffffff1673ffffffffffffffffffffffffffffffffffffffff166340c10f1983836000604051602001526040518363ffffffff167c0100000000000000000000000000000000000000000000000000000000028152600401808373ffffffffffffffffffffffffffffffffffffffff1673ffffffffffffffffffffffffffffffffffffffff16815260200182815260200192505050602060405180830381600087803b15156111a757600080fd5b6102c65a03f115156111b857600080fd5b50505060405180519050505050565b60025481565b60195481565b60145481565b60008060009054906101000a900473ffffffffffffffffffffffffffffffffffffffff1673ffffffffffffffffffffffffffffffffffffffff163373ffffffffffffffffffffffffffffffffffffffff1614151561123657600080fd5b602160019054906101000a900473ffffffffffffffffffffffffffffffffffffffff16905090565b60185481565b60055481565b60008060009054906101000a900473ffffffffffffffffffffffffffffffffffffffff1673ffffffffffffffffffffffffffffffffffffffff163373ffffffffffffffffffffffffffffffffffffffff161415156112c757600080fd5b601a54905090565b6000809054906101000a900473ffffffffffffffffffffffffffffffffffffffff1673ffffffffffffffffffffffffffffffffffffffff163373ffffffffffffffffffffffffffffffffffffffff1614151561132a57600080fd5b601d60039054906101000a900460ff1615151561134657600080fd5b6001601d60036101000a81548160ff021916908315150217905550600160009054906101000a900473ffffffffffffffffffffffffffffffffffffffff1673ffffffffffffffffffffffffffffffffffffffff166340c10f196000601c546000604051602001526040518363ffffffff167c0100000000000000000000000000000000000000000000000000000000028152600401808373ffffffffffffffffffffffffffffffffffffffff16815260200182815260200192505050602060405180830381600087803b151561141b57600080fd5b6102c65a03f1151561142c57600080fd5b50505060405180519050506000601c81905550565b6000602054600f54101515611474576001602160006101000a81548160ff02191690831515021790555060019050611497565b602160009054906101000a900460ff16156114925760019050611497565b600090505b90565b60165481565b601c5481565b60045481565b60035481565b60075481565b601f60009054906101000a900460ff1615156114d357600080fd5b6114db611441565b1515156114e757600080fd5b602160019054906101000a900473ffffffffffffffffffffffffffffffffffffffff1673ffffffffffffffffffffffffffffffffffffffff1663fa89401a336040518263ffffffff167c0100000000000000000000000000000000000000000000000000000000028152600401808273ffffffffffffffffffffffffffffffffffffffff1673ffffffffffffffffffffffffffffffffffffffff168152602001915050600060405180830381600087803b15156115a357600080fd5b6102c65a03f115156115b457600080fd5b505050565b60065481565b600080601e54600f54101590506115d4611b98565b806115dc5750805b91505090565b6000809054906101000a900473ffffffffffffffffffffffffffffffffffffffff1673ffffffffffffffffffffffffffffffffffffffff163373ffffffffffffffffffffffffffffffffffffffff1614151561163d57600080fd5b600073ffffffffffffffffffffffffffffffffffffffff168173ffffffffffffffffffffffffffffffffffffffff161415151561167957600080fd5b8073ffffffffffffffffffffffffffffffffffffffff166000809054906101000a900473ffffffffffffffffffffffffffffffffffffffff1673ffffffffffffffffffffffffffffffffffffffff167f8be0079c531659141344cd1fd0a4f28419497f9722a3daafe3b4186f6b6457e060405160405180910390a3806000806101000a81548173ffffffffffffffffffffffffffffffffffffffff021916908373ffffffffffffffffffffffffffffffffffffffff16021790555050565b60008060009054906101000a900473ffffffffffffffffffffffffffffffffffffffff1673ffffffffffffffffffffffffffffffffffffffff163373ffffffffffffffffffffffffffffffffffffffff1614151561179457600080fd5b61179c6115bf565b15156117a757600080fd5b601d60009054906101000a900460ff161515156117c357600080fd5b6001601d60006101000a81548160ff021916908315150217905550600160009054906101000a900473ffffffffffffffffffffffffffffffffffffffff1673ffffffffffffffffffffffffffffffffffffffff16636d1b229d601a546000604051602001526040518263ffffffff167c010000000000000000000000000000000000000000000000000000000002815260040180828152602001915050602060405180830381600087803b151561187957600080fd5b6102c65a03f1151561188a57600080fd5b50505060405180519050506118a3601354601a5461195d565b6013819055506000601a819055506000601781905550600060188190555060006019819055506001905090565b601b5481565b600080601e546118f134600f5461193f90919063ffffffff16565b111590506118fd611ba4565b80156119065750805b91505090565b6000808284029050600084148061192d575082848281151561192a57fe5b04145b151561193557fe5b8091505092915050565b600080828401905083811015151561195357fe5b8091505092915050565b600082821115151561196b57fe5b818303905092915050565b602160019054906101000a900473ffffffffffffffffffffffffffffffffffffffff1673ffffffffffffffffffffffffffffffffffffffff1663f340fa0134336040518363ffffffff167c0100000000000000000000000000000000000000000000000000000000028152600401808273ffffffffffffffffffffffffffffffffffffffff1673ffffffffffffffffffffffffffffffffffffffff1681526020019150506000604051808303818588803b1515611a3257600080fd5b6125ee5a03f11515611a4357600080fd5b50505050565b611a51611441565b15611af457602160019054906101000a900473ffffffffffffffffffffffffffffffffffffffff1673ffffffffffffffffffffffffffffffffffffffff166343d726d66040518163ffffffff167c0100000000000000000000000000000000000000000000000000000000028152600401600060405180830381600087803b1515611adb57600080fd5b6102c65a03f11515611aec57600080fd5b505050611b8e565b602160019054906101000a900473ffffffffffffffffffffffffffffffffffffffff1673ffffffffffffffffffffffffffffffffffffffff16638c52dc416040518163ffffffff167c0100000000000000000000000000000000000000000000000000000000028152600401600060405180830381600087803b1515611b7957600080fd5b6102c65a03f11515611b8a57600080fd5b5050505b611b96611bd7565b565b60006007544211905090565b60008060006002544210158015611bbd57506007544211155b915060003414159050818015611bd05750805b9250505090565b565b6000611be3611c19565b604051809103906000f0801515611bf957600080fd5b905090565b6000808284811515611c0c57fe5b0490508091505092915050565b60405161173580611c2a83390190560060606040526000600360146101000a81548160ff021916908315150217905550341561002a57600080fd5b33600360006101000a81548173ffffffffffffffffffffffffffffffffffffffff021916908373ffffffffffffffffffffffffffffffffffffffff1602179055506b014adf4b7320334b900000006000819055506116a88061008d6000396000f3006060604052600436106100f1576000357c0100000000000000000000000000000000000000000000000000000000900463ffffffff16806305d2035b146100f657806306fdde0314610123578063095ea7b3146101b157806318160ddd1461020b57806323b872dd14610234578063313ce567146102ad5780633eaaf86b146102d657806340c10f19146102ff57806366188463146103595780636d1b229d146103b357806370a08231146103ee5780637d64bcb41461043b57806395d89b4114610468578063a9059cbb146104f6578063d73dd62314610550578063dd62ed3e146105aa578063f2fde38b14610616575b600080fd5b341561010157600080fd5b61010961064f565b604051808215151515815260200191505060405180910390f35b341561012e57600080fd5b610136610662565b6040518080602001828103825283818151815260200191508051906020019080838360005b8381101561017657808201518184015260208101905061015b565b50505050905090810190601f1680156101a35780820380516001836020036101000a031916815260200191505b509250505060405180910390f35b34156101bc57600080fd5b6101f1600480803573ffffffffffffffffffffffffffffffffffffffff1690602001909190803590602001909190505061069b565b604051808215151515815260200191505060405180910390f35b341561021657600080fd5b61021e61078d565b6040518082815260200191505060405180910390f35b341561023f57600080fd5b610293600480803573ffffffffffffffffffffffffffffffffffffffff1690602001909190803573ffffffffffffffffffffffffffffffffffffffff16906020019091908035906020019091905050610793565b604051808215151515815260200191505060405180910390f35b34156102b857600080fd5b6102c0610a7f565b6040518082815260200191505060405180910390f35b34156102e157600080fd5b6102e9610a84565b6040518082815260200191505060405180910390f35b341561030a57600080fd5b61033f600480803573ffffffffffffffffffffffffffffffffffffffff16906020019091908035906020019091905050610a94565b604051808215151515815260200191505060405180910390f35b341561036457600080fd5b610399600480803573ffffffffffffffffffffffffffffffffffffffff16906020019091908035906020019091905050610c60565b604051808215151515815260200191505060405180910390f35b34156103be57600080fd5b6103d46004808035906020019091905050610ef1565b604051808215151515815260200191505060405180910390f35b34156103f957600080fd5b610425600480803573ffffffffffffffffffffffffffffffffffffffff16906020019091905050610f66565b6040518082815260200191505060405180910390f35b341561044657600080fd5b61044e610faf565b604051808215151515815260200191505060405180910390f35b341561047357600080fd5b61047b61105b565b6040518080602001828103825283818151815260200191508051906020019080838360005b838110156104bb5780820151818401526020810190506104a0565b50505050905090810190601f1680156104e85780820380516001836020036101000a031916815260200191505b509250505060405180910390f35b341561050157600080fd5b610536600480803573ffffffffffffffffffffffffffffffffffffffff16906020019091908035906020019091905050611094565b604051808215151515815260200191505060405180910390f35b341561055b57600080fd5b610590600480803573ffffffffffffffffffffffffffffffffffffffff1690602001909190803590602001909190505061126a565b604051808215151515815260200191505060405180910390f35b34156105b557600080fd5b610600600480803573ffffffffffffffffffffffffffffffffffffffff1690602001909190803573ffffffffffffffffffffffffffffffffffffffff16906020019091905050611466565b6040518082815260200191505060405180910390f35b341561062157600080fd5b61064d600480803573ffffffffffffffffffffffffffffffffffffffff169060200190919050506114ed565b005b600360149054906101000a900460ff1681565b6040805190810160405280601181526020017f437573746f6d204465616c20546f6b656e00000000000000000000000000000081525081565b600081600260003373ffffffffffffffffffffffffffffffffffffffff1673ffffffffffffffffffffffffffffffffffffffff16815260200190815260200160002060008573ffffffffffffffffffffffffffffffffffffffff1673ffffffffffffffffffffffffffffffffffffffff168152602001908152602001600020819055508273ffffffffffffffffffffffffffffffffffffffff163373ffffffffffffffffffffffffffffffffffffffff167f8c5be1e5ebec7d5bd14f71427d1e84f3dd0314c0f7b2291e5b200ac8c7c3b925846040518082815260200191505060405180910390a36001905092915050565b60005481565b600080600073ffffffffffffffffffffffffffffffffffffffff168473ffffffffffffffffffffffffffffffffffffffff16141515156107d257600080fd5b600260008673ffffffffffffffffffffffffffffffffffffffff1673ffffffffffffffffffffffffffffffffffffffff16815260200190815260200160002060003373ffffffffffffffffffffffffffffffffffffffff1673ffffffffffffffffffffffffffffffffffffffff1681526020019081526020016000205490506108a383600160008873ffffffffffffffffffffffffffffffffffffffff1673ffffffffffffffffffffffffffffffffffffffff1681526020019081526020016000205461164590919063ffffffff16565b600160008773ffffffffffffffffffffffffffffffffffffffff1673ffffffffffffffffffffffffffffffffffffffff1681526020019081526020016000208190555061093883600160008773ffffffffffffffffffffffffffffffffffffffff1673ffffffffffffffffffffffffffffffffffffffff1681526020019081526020016000205461165e90919063ffffffff16565b600160008673ffffffffffffffffffffffffffffffffffffffff1673ffffffffffffffffffffffffffffffffffffffff1681526020019081526020016000208190555061098e838261164590919063ffffffff16565b600260008773ffffffffffffffffffffffffffffffffffffffff1673ffffffffffffffffffffffffffffffffffffffff16815260200190815260200160002060003373ffffffffffffffffffffffffffffffffffffffff1673ffffffffffffffffffffffffffffffffffffffff168152602001908152602001600020819055508373ffffffffffffffffffffffffffffffffffffffff168573ffffffffffffffffffffffffffffffffffffffff167fddf252ad1be2c89b69c2b068fc378daa952ba7f163c4a11628f55a4df523b3ef856040518082815260200191505060405180910390a360019150509392505050565b601281565b6b014adf4b7320334b9000000081565b6000600360009054906101000a900473ffffffffffffffffffffffffffffffffffffffff1673ffffffffffffffffffffffffffffffffffffffff163373ffffffffffffffffffffffffffffffffffffffff16141515610af257600080fd5b600360149054906101000a900460ff16151515610b0e57600080fd5b610b6082600160008673ffffffffffffffffffffffffffffffffffffffff1673ffffffffffffffffffffffffffffffffffffffff1681526020019081526020016000205461165e90919063ffffffff16565b600160008573ffffffffffffffffffffffffffffffffffffffff1673ffffffffffffffffffffffffffffffffffffffff168152602001908152602001600020819055508273ffffffffffffffffffffffffffffffffffffffff167f0f6798a560793a54c3bcfe86a93cde1e73087d944c0ea20544137d4121396885836040518082815260200191505060405180910390a28273ffffffffffffffffffffffffffffffffffffffff163373ffffffffffffffffffffffffffffffffffffffff167fddf252ad1be2c89b69c2b068fc378daa952ba7f163c4a11628f55a4df523b3ef846040518082815260200191505060405180910390a36001905092915050565b600080600260003373ffffffffffffffffffffffffffffffffffffffff1673ffffffffffffffffffffffffffffffffffffffff16815260200190815260200160002060008573ffffffffffffffffffffffffffffffffffffffff1673ffffffffffffffffffffffffffffffffffffffff16815260200190815260200160002054905080831115610d71576000600260003373ffffffffffffffffffffffffffffffffffffffff1673ffffffffffffffffffffffffffffffffffffffff16815260200190815260200160002060008673ffffffffffffffffffffffffffffffffffffffff1673ffffffffffffffffffffffffffffffffffffffff16815260200190815260200160002081905550610e05565b610d84838261164590919063ffffffff16565b600260003373ffffffffffffffffffffffffffffffffffffffff1673ffffffffffffffffffffffffffffffffffffffff16815260200190815260200160002060008673ffffffffffffffffffffffffffffffffffffffff1673ffffffffffffffffffffffffffffffffffffffff168152602001908152602001600020819055505b8373ffffffffffffffffffffffffffffffffffffffff163373ffffffffffffffffffffffffffffffffffffffff167f8c5be1e5ebec7d5bd14f71427d1e84f3dd0314c0f7b2291e5b200ac8c7c3b925600260003373ffffffffffffffffffffffffffffffffffffffff1673ffffffffffffffffffffffffffffffffffffffff16815260200190815260200160002060008873ffffffffffffffffffffffffffffffffffffffff1673ffffffffffffffffffffffffffffffffffffffff168152602001908152602001600020546040518082815260200191505060405180910390a3600191505092915050565b6000600360009054906101000a900473ffffffffffffffffffffffffffffffffffffffff1673ffffffffffffffffffffffffffffffffffffffff163373ffffffffffffffffffffffffffffffffffffffff16141515610f4f57600080fd5b610f5b60005483611645565b600081905550919050565b6000600160008373ffffffffffffffffffffffffffffffffffffffff1673ffffffffffffffffffffffffffffffffffffffff168152602001908152602001600020549050919050565b6000600360009054906101000a900473ffffffffffffffffffffffffffffffffffffffff1673ffffffffffffffffffffffffffffffffffffffff163373ffffffffffffffffffffffffffffffffffffffff1614151561100d57600080fd5b6001600360146101000a81548160ff0219169083151502179055507fae5184fba832cb2b1f702aca6117b8d265eaf03ad33eb133f19dde0f5920fa0860405160405180910390a16001905090565b6040805190810160405280600381526020017f43444c000000000000000000000000000000000000000000000000000000000081525081565b60008073ffffffffffffffffffffffffffffffffffffffff168373ffffffffffffffffffffffffffffffffffffffff16141515156110d157600080fd5b61112382600160003373ffffffffffffffffffffffffffffffffffffffff1673ffffffffffffffffffffffffffffffffffffffff1681526020019081526020016000205461164590919063ffffffff16565b600160003373ffffffffffffffffffffffffffffffffffffffff1673ffffffffffffffffffffffffffffffffffffffff168152602001908152602001600020819055506111b882600160008673ffffffffffffffffffffffffffffffffffffffff1673ffffffffffffffffffffffffffffffffffffffff1681526020019081526020016000205461165e90919063ffffffff16565b600160008573ffffffffffffffffffffffffffffffffffffffff1673ffffffffffffffffffffffffffffffffffffffff168152602001908152602001600020819055508273ffffffffffffffffffffffffffffffffffffffff163373ffffffffffffffffffffffffffffffffffffffff167fddf252ad1be2c89b69c2b068fc378daa952ba7f163c4a11628f55a4df523b3ef846040518082815260200191505060405180910390a36001905092915050565b60006112fb82600260003373ffffffffffffffffffffffffffffffffffffffff1673ffffffffffffffffffffffffffffffffffffffff16815260200190815260200160002060008673ffffffffffffffffffffffffffffffffffffffff1673ffffffffffffffffffffffffffffffffffffffff1681526020019081526020016000205461165e90919063ffffffff16565b600260003373ffffffffffffffffffffffffffffffffffffffff1673ffffffffffffffffffffffffffffffffffffffff16815260200190815260200160002060008573ffffffffffffffffffffffffffffffffffffffff1673ffffffffffffffffffffffffffffffffffffffff168152602001908152602001600020819055508273ffffffffffffffffffffffffffffffffffffffff163373ffffffffffffffffffffffffffffffffffffffff167f8c5be1e5ebec7d5bd14f71427d1e84f3dd0314c0f7b2291e5b200ac8c7c3b925600260003373ffffffffffffffffffffffffffffffffffffffff1673ffffffffffffffffffffffffffffffffffffffff16815260200190815260200160002060008773ffffffffffffffffffffffffffffffffffffffff1673ffffffffffffffffffffffffffffffffffffffff168152602001908152602001600020546040518082815260200191505060405180910390a36001905092915050565b6000600260008473ffffffffffffffffffffffffffffffffffffffff1673ffffffffffffffffffffffffffffffffffffffff16815260200190815260200160002060008373ffffffffffffffffffffffffffffffffffffffff1673ffffffffffffffffffffffffffffffffffffffff16815260200190815260200160002054905092915050565b600360009054906101000a900473ffffffffffffffffffffffffffffffffffffffff1673ffffffffffffffffffffffffffffffffffffffff163373ffffffffffffffffffffffffffffffffffffffff1614151561154957600080fd5b600073ffffffffffffffffffffffffffffffffffffffff168173ffffffffffffffffffffffffffffffffffffffff161415151561158557600080fd5b8073ffffffffffffffffffffffffffffffffffffffff16600360009054906101000a900473ffffffffffffffffffffffffffffffffffffffff1673ffffffffffffffffffffffffffffffffffffffff167f8be0079c531659141344cd1fd0a4f28419497f9722a3daafe3b4186f6b6457e060405160405180910390a380600360006101000a81548173ffffffffffffffffffffffffffffffffffffffff021916908373ffffffffffffffffffffffffffffffffffffffff16021790555050565b600082821115151561165357fe5b818303905092915050565b600080828401905083811015151561167257fe5b80915050929150505600a165627a7a7230582055cd03058ef73fdb83fd5a5537ce4e95ee8f70cbfafcc6e9e6f94933e0b69b140029a165627a7a72305820ecf322289a52a6e72e087b54ee1750e87e9f19bd931ad5e9aaf7bc69fb00e19300296060604052341561000f57600080fd5b6040516020806109dc83398101604052808051906020019091905050336000806101000a81548173ffffffffffffffffffffffffffffffffffffffff021916908373ffffffffffffffffffffffffffffffffffffffff16021790555060008173ffffffffffffffffffffffffffffffffffffffff161415151561009157600080fd5b80600260006101000a81548173ffffffffffffffffffffffffffffffffffffffff021916908373ffffffffffffffffffffffffffffffffffffffff1602179055506000600260146101000a81548160ff021916908360028111156100f157fe5b0217905550506108d6806101066000396000f30060606040526004361061008e576000357c0100000000000000000000000000000000000000000000000000000000900463ffffffff16806343d726d614610093578063521eb273146100a85780638c52dc41146100fd578063c19d93fb14610112578063cb13cddb14610149578063f2fde38b14610196578063f340fa01146101cf578063fa89401a146101fd575b600080fd5b341561009e57600080fd5b6100a6610236565b005b34156100b357600080fd5b6100bb61038f565b604051808273ffffffffffffffffffffffffffffffffffffffff1673ffffffffffffffffffffffffffffffffffffffff16815260200191505060405180910390f35b341561010857600080fd5b6101106103b5565b005b341561011d57600080fd5b610125610496565b6040518082600281111561013557fe5b60ff16815260200191505060405180910390f35b341561015457600080fd5b610180600480803573ffffffffffffffffffffffffffffffffffffffff169060200190919050506104a9565b6040518082815260200191505060405180910390f35b34156101a157600080fd5b6101cd600480803573ffffffffffffffffffffffffffffffffffffffff169060200190919050506104c1565b005b6101fb600480803573ffffffffffffffffffffffffffffffffffffffff16906020019091905050610616565b005b341561020857600080fd5b610234600480803573ffffffffffffffffffffffffffffffffffffffff1690602001909190505061073d565b005b6000809054906101000a900473ffffffffffffffffffffffffffffffffffffffff1673ffffffffffffffffffffffffffffffffffffffff163373ffffffffffffffffffffffffffffffffffffffff1614151561029157600080fd5b6000600281111561029e57fe5b600260149054906101000a900460ff1660028111156102b957fe5b1415156102c557600080fd5b60028060146101000a81548160ff021916908360028111156102e357fe5b02179055507f1cdde67b72a90f19919ac732a437ac2f7a10fc128d28c2a6e525d89ce5cd9d3a60405160405180910390a1600260009054906101000a900473ffffffffffffffffffffffffffffffffffffffff1673ffffffffffffffffffffffffffffffffffffffff166108fc3073ffffffffffffffffffffffffffffffffffffffff16319081150290604051600060405180830381858888f19350505050151561038d57600080fd5b565b600260009054906101000a900473ffffffffffffffffffffffffffffffffffffffff1681565b6000809054906101000a900473ffffffffffffffffffffffffffffffffffffffff1673ffffffffffffffffffffffffffffffffffffffff163373ffffffffffffffffffffffffffffffffffffffff1614151561041057600080fd5b6000600281111561041d57fe5b600260149054906101000a900460ff16600281111561043857fe5b14151561044457600080fd5b6001600260146101000a81548160ff0219169083600281111561046357fe5b02179055507f599d8e5a83cffb867d051598c4d70e805d59802d8081c1c7d6dffc5b6aca2b8960405160405180910390a1565b600260149054906101000a900460ff1681565b60016020528060005260406000206000915090505481565b6000809054906101000a900473ffffffffffffffffffffffffffffffffffffffff1673ffffffffffffffffffffffffffffffffffffffff163373ffffffffffffffffffffffffffffffffffffffff1614151561051c57600080fd5b600073ffffffffffffffffffffffffffffffffffffffff168173ffffffffffffffffffffffffffffffffffffffff161415151561055857600080fd5b8073ffffffffffffffffffffffffffffffffffffffff166000809054906101000a900473ffffffffffffffffffffffffffffffffffffffff1673ffffffffffffffffffffffffffffffffffffffff167f8be0079c531659141344cd1fd0a4f28419497f9722a3daafe3b4186f6b6457e060405160405180910390a3806000806101000a81548173ffffffffffffffffffffffffffffffffffffffff021916908373ffffffffffffffffffffffffffffffffffffffff16021790555050565b6000809054906101000a900473ffffffffffffffffffffffffffffffffffffffff1673ffffffffffffffffffffffffffffffffffffffff163373ffffffffffffffffffffffffffffffffffffffff1614151561067157600080fd5b6000600281111561067e57fe5b600260149054906101000a900460ff16600281111561069957fe5b1415156106a557600080fd5b6106f734600160008473ffffffffffffffffffffffffffffffffffffffff1673ffffffffffffffffffffffffffffffffffffffff1681526020019081526020016000205461088c90919063ffffffff16565b600160008373ffffffffffffffffffffffffffffffffffffffff1673ffffffffffffffffffffffffffffffffffffffff1681526020019081526020016000208190555050565b60006001600281111561074c57fe5b600260149054906101000a900460ff16600281111561076757fe5b14151561077357600080fd5b600160008373ffffffffffffffffffffffffffffffffffffffff1673ffffffffffffffffffffffffffffffffffffffff1681526020019081526020016000205490506000600160008473ffffffffffffffffffffffffffffffffffffffff1673ffffffffffffffffffffffffffffffffffffffff168152602001908152602001600020819055508173ffffffffffffffffffffffffffffffffffffffff166108fc829081150290604051600060405180830381858888f19350505050151561083a57600080fd5b8173ffffffffffffffffffffffffffffffffffffffff167fd7dee2702d63ad89917b6a4da9981c90c4d24f8c2bdfd64c604ecae57d8d0651826040518082815260200191505060405180910390a25050565b60008082840190508381101515156108a057fe5b80915050929150505600a165627a7a723058200e3d57331f63ceddb173c194d6c1054b135df7458c24d534dda4f53802dca968002960606040526000600360146101000a81548160ff021916908315150217905550341561002a57600080fd5b33600360006101000a81548173ffffffffffffffffffffffffffffffffffffffff021916908373ffffffffffffffffffffffffffffffffffffffff1602179055506b014adf4b7320334b900000006000819055506116a88061008d6000396000f3006060604052600436106100f1576000357c0100000000000000000000000000000000000000000000000000000000900463ffffffff16806305d2035b146100f657806306fdde0314610123578063095ea7b3146101b157806318160ddd1461020b57806323b872dd14610234578063313ce567146102ad5780633eaaf86b146102d657806340c10f19146102ff57806366188463146103595780636d1b229d146103b357806370a08231146103ee5780637d64bcb41461043b57806395d89b4114610468578063a9059cbb146104f6578063d73dd62314610550578063dd62ed3e146105aa578063f2fde38b14610616575b600080fd5b341561010157600080fd5b61010961064f565b604051808215151515815260200191505060405180910390f35b341561012e57600080fd5b610136610662565b6040518080602001828103825283818151815260200191508051906020019080838360005b8381101561017657808201518184015260208101905061015b565b50505050905090810190601f1680156101a35780820380516001836020036101000a031916815260200191505b509250505060405180910390f35b34156101bc57600080fd5b6101f1600480803573ffffffffffffffffffffffffffffffffffffffff1690602001909190803590602001909190505061069b565b604051808215151515815260200191505060405180910390f35b341561021657600080fd5b61021e61078d565b6040518082815260200191505060405180910390f35b341561023f57600080fd5b610293600480803573ffffffffffffffffffffffffffffffffffffffff1690602001909190803573ffffffffffffffffffffffffffffffffffffffff16906020019091908035906020019091905050610793565b604051808215151515815260200191505060405180910390f35b34156102b857600080fd5b6102c0610a7f565b6040518082815260200191505060405180910390f35b34156102e157600080fd5b6102e9610a84565b6040518082815260200191505060405180910390f35b341561030a57600080fd5b61033f600480803573ffffffffffffffffffffffffffffffffffffffff16906020019091908035906020019091905050610a94565b604051808215151515815260200191505060405180910390f35b341561036457600080fd5b610399600480803573ffffffffffffffffffffffffffffffffffffffff16906020019091908035906020019091905050610c60565b604051808215151515815260200191505060405180910390f35b34156103be57600080fd5b6103d46004808035906020019091905050610ef1565b604051808215151515815260200191505060405180910390f35b34156103f957600080fd5b610425600480803573ffffffffffffffffffffffffffffffffffffffff16906020019091905050610f66565b6040518082815260200191505060405180910390f35b341561044657600080fd5b61044e610faf565b604051808215151515815260200191505060405180910390f35b341561047357600080fd5b61047b61105b565b6040518080602001828103825283818151815260200191508051906020019080838360005b838110156104bb5780820151818401526020810190506104a0565b50505050905090810190601f1680156104e85780820380516001836020036101000a031916815260200191505b509250505060405180910390f35b341561050157600080fd5b610536600480803573ffffffffffffffffffffffffffffffffffffffff16906020019091908035906020019091905050611094565b604051808215151515815260200191505060405180910390f35b341561055b57600080fd5b610590600480803573ffffffffffffffffffffffffffffffffffffffff1690602001909190803590602001909190505061126a565b604051808215151515815260200191505060405180910390f35b34156105b557600080fd5b610600600480803573ffffffffffffffffffffffffffffffffffffffff1690602001909190803573ffffffffffffffffffffffffffffffffffffffff16906020019091905050611466565b6040518082815260200191505060405180910390f35b341561062157600080fd5b61064d600480803573ffffffffffffffffffffffffffffffffffffffff169060200190919050506114ed565b005b600360149054906101000a900460ff1681565b6040805190810160405280601181526020017f437573746f6d204465616c20546f6b656e00000000000000000000000000000081525081565b600081600260003373ffffffffffffffffffffffffffffffffffffffff1673ffffffffffffffffffffffffffffffffffffffff16815260200190815260200160002060008573ffffffffffffffffffffffffffffffffffffffff1673ffffffffffffffffffffffffffffffffffffffff168152602001908152602001600020819055508273ffffffffffffffffffffffffffffffffffffffff163373ffffffffffffffffffffffffffffffffffffffff167f8c5be1e5ebec7d5bd14f71427d1e84f3dd0314c0f7b2291e5b200ac8c7c3b925846040518082815260200191505060405180910390a36001905092915050565b60005481565b600080600073ffffffffffffffffffffffffffffffffffffffff168473ffffffffffffffffffffffffffffffffffffffff16141515156107d257600080fd5b600260008673ffffffffffffffffffffffffffffffffffffffff1673ffffffffffffffffffffffffffffffffffffffff16815260200190815260200160002060003373ffffffffffffffffffffffffffffffffffffffff1673ffffffffffffffffffffffffffffffffffffffff1681526020019081526020016000205490506108a383600160008873ffffffffffffffffffffffffffffffffffffffff1673ffffffffffffffffffffffffffffffffffffffff1681526020019081526020016000205461164590919063ffffffff16565b600160008773ffffffffffffffffffffffffffffffffffffffff1673ffffffffffffffffffffffffffffffffffffffff1681526020019081526020016000208190555061093883600160008773ffffffffffffffffffffffffffffffffffffffff1673ffffffffffffffffffffffffffffffffffffffff1681526020019081526020016000205461165e90919063ffffffff16565b600160008673ffffffffffffffffffffffffffffffffffffffff1673ffffffffffffffffffffffffffffffffffffffff1681526020019081526020016000208190555061098e838261164590919063ffffffff16565b600260008773ffffffffffffffffffffffffffffffffffffffff1673ffffffffffffffffffffffffffffffffffffffff16815260200190815260200160002060003373ffffffffffffffffffffffffffffffffffffffff1673ffffffffffffffffffffffffffffffffffffffff168152602001908152602001600020819055508373ffffffffffffffffffffffffffffffffffffffff168573ffffffffffffffffffffffffffffffffffffffff167fddf252ad1be2c89b69c2b068fc378daa952ba7f163c4a11628f55a4df523b3ef856040518082815260200191505060405180910390a360019150509392505050565b601281565b6b014adf4b7320334b9000000081565b6000600360009054906101000a900473ffffffffffffffffffffffffffffffffffffffff1673ffffffffffffffffffffffffffffffffffffffff163373ffffffffffffffffffffffffffffffffffffffff16141515610af257600080fd5b600360149054906101000a900460ff16151515610b0e57600080fd5b610b6082600160008673ffffffffffffffffffffffffffffffffffffffff1673ffffffffffffffffffffffffffffffffffffffff1681526020019081526020016000205461165e90919063ffffffff16565b600160008573ffffffffffffffffffffffffffffffffffffffff1673ffffffffffffffffffffffffffffffffffffffff168152602001908152602001600020819055508273ffffffffffffffffffffffffffffffffffffffff167f0f6798a560793a54c3bcfe86a93cde1e73087d944c0ea20544137d4121396885836040518082815260200191505060405180910390a28273ffffffffffffffffffffffffffffffffffffffff163373ffffffffffffffffffffffffffffffffffffffff167fddf252ad1be2c89b69c2b068fc378daa952ba7f163c4a11628f55a4df523b3ef846040518082815260200191505060405180910390a36001905092915050565b600080600260003373ffffffffffffffffffffffffffffffffffffffff1673ffffffffffffffffffffffffffffffffffffffff16815260200190815260200160002060008573ffffffffffffffffffffffffffffffffffffffff1673ffffffffffffffffffffffffffffffffffffffff16815260200190815260200160002054905080831115610d71576000600260003373ffffffffffffffffffffffffffffffffffffffff1673ffffffffffffffffffffffffffffffffffffffff16815260200190815260200160002060008673ffffffffffffffffffffffffffffffffffffffff1673ffffffffffffffffffffffffffffffffffffffff16815260200190815260200160002081905550610e05565b610d84838261164590919063ffffffff16565b600260003373ffffffffffffffffffffffffffffffffffffffff1673ffffffffffffffffffffffffffffffffffffffff16815260200190815260200160002060008673ffffffffffffffffffffffffffffffffffffffff1673ffffffffffffffffffffffffffffffffffffffff168152602001908152602001600020819055505b8373ffffffffffffffffffffffffffffffffffffffff163373ffffffffffffffffffffffffffffffffffffffff167f8c5be1e5ebec7d5bd14f71427d1e84f3dd0314c0f7b2291e5b200ac8c7c3b925600260003373ffffffffffffffffffffffffffffffffffffffff1673ffffffffffffffffffffffffffffffffffffffff16815260200190815260200160002060008873ffffffffffffffffffffffffffffffffffffffff1673ffffffffffffffffffffffffffffffffffffffff168152602001908152602001600020546040518082815260200191505060405180910390a3600191505092915050565b6000600360009054906101000a900473ffffffffffffffffffffffffffffffffffffffff1673ffffffffffffffffffffffffffffffffffffffff163373ffffffffffffffffffffffffffffffffffffffff16141515610f4f57600080fd5b610f5b60005483611645565b600081905550919050565b6000600160008373ffffffffffffffffffffffffffffffffffffffff1673ffffffffffffffffffffffffffffffffffffffff168152602001908152602001600020549050919050565b6000600360009054906101000a900473ffffffffffffffffffffffffffffffffffffffff1673ffffffffffffffffffffffffffffffffffffffff163373ffffffffffffffffffffffffffffffffffffffff1614151561100d57600080fd5b6001600360146101000a81548160ff0219169083151502179055507fae5184fba832cb2b1f702aca6117b8d265eaf03ad33eb133f19dde0f5920fa0860405160405180910390a16001905090565b6040805190810160405280600381526020017f43444c000000000000000000000000000000000000000000000000000000000081525081565b60008073ffffffffffffffffffffffffffffffffffffffff168373ffffffffffffffffffffffffffffffffffffffff16141515156110d157600080fd5b61112382600160003373ffffffffffffffffffffffffffffffffffffffff1673ffffffffffffffffffffffffffffffffffffffff1681526020019081526020016000205461164590919063ffffffff16565b600160003373ffffffffffffffffffffffffffffffffffffffff1673ffffffffffffffffffffffffffffffffffffffff168152602001908152602001600020819055506111b882600160008673ffffffffffffffffffffffffffffffffffffffff1673ffffffffffffffffffffffffffffffffffffffff1681526020019081526020016000205461165e90919063ffffffff16565b600160008573ffffffffffffffffffffffffffffffffffffffff1673ffffffffffffffffffffffffffffffffffffffff168152602001908152602001600020819055508273ffffffffffffffffffffffffffffffffffffffff163373ffffffffffffffffffffffffffffffffffffffff167fddf252ad1be2c89b69c2b068fc378daa952ba7f163c4a11628f55a4df523b3ef846040518082815260200191505060405180910390a36001905092915050565b60006112fb82600260003373ffffffffffffffffffffffffffffffffffffffff1673ffffffffffffffffffffffffffffffffffffffff16815260200190815260200160002060008673ffffffffffffffffffffffffffffffffffffffff1673ffffffffffffffffffffffffffffffffffffffff1681526020019081526020016000205461165e90919063ffffffff16565b600260003373ffffffffffffffffffffffffffffffffffffffff1673ffffffffffffffffffffffffffffffffffffffff16815260200190815260200160002060008573ffffffffffffffffffffffffffffffffffffffff1673ffffffffffffffffffffffffffffffffffffffff168152602001908152602001600020819055508273ffffffffffffffffffffffffffffffffffffffff163373ffffffffffffffffffffffffffffffffffffffff167f8c5be1e5ebec7d5bd14f71427d1e84f3dd0314c0f7b2291e5b200ac8c7c3b925600260003373ffffffffffffffffffffffffffffffffffffffff1673ffffffffffffffffffffffffffffffffffffffff16815260200190815260200160002060008773ffffffffffffffffffffffffffffffffffffffff1673ffffffffffffffffffffffffffffffffffffffff168152602001908152602001600020546040518082815260200191505060405180910390a36001905092915050565b6000600260008473ffffffffffffffffffffffffffffffffffffffff1673ffffffffffffffffffffffffffffffffffffffff16815260200190815260200160002060008373ffffffffffffffffffffffffffffffffffffffff1673ffffffffffffffffffffffffffffffffffffffff16815260200190815260200160002054905092915050565b600360009054906101000a900473ffffffffffffffffffffffffffffffffffffffff1673ffffffffffffffffffffffffffffffffffffffff163373ffffffffffffffffffffffffffffffffffffffff1614151561154957600080fd5b600073ffffffffffffffffffffffffffffffffffffffff168173ffffffffffffffffffffffffffffffffffffffff161415151561158557600080fd5b8073ffffffffffffffffffffffffffffffffffffffff16600360009054906101000a900473ffffffffffffffffffffffffffffffffffffffff1673ffffffffffffffffffffffffffffffffffffffff167f8be0079c531659141344cd1fd0a4f28419497f9722a3daafe3b4186f6b6457e060405160405180910390a380600360006101000a81548173ffffffffffffffffffffffffffffffffffffffff021916908373ffffffffffffffffffffffffffffffffffffffff16021790555050565b600082821115151561165357fe5b818303905092915050565b600080828401905083811015151561167257fe5b80915050929150505600a165627a7a7230582055cd03058ef73fdb83fd5a5537ce4e95ee8f70cbfafcc6e9e6f94933e0b69b140029",
  "source": "pragma solidity ^0.4.13;\r\n\r\nimport './crowdsale/Crowdsale.sol';\r\nimport './crowdsale/CappedCrowdsale.sol';\r\nimport './crowdsale/RefundableCrowdsale.sol';\r\nimport './CustomDealToken.sol';\r\n\r\n/**\r\n * @title CustomDealICO\r\n * @author Aleksandar Djordjevic\r\n * @dev Crowdsale is a base contract for managing a token crowdsale\r\n * Crowdsales have a start and end timestamps, where investors can make\r\n * token purchases and the crowdsale will assign them CDL tokens based\r\n * on a CDL token per ETH rate. Funds collected are forwarded to a wallet\r\n * as they arrive\r\n */\r\ncontract CustomDealICO is Crowdsale, CappedCrowdsale, RefundableCrowdsale {\r\n\r\n    // Start time of the ICO\r\n    uint256 _startTime = now;\r\n\r\n    // End time of the ICO\r\n    uint256 _endTime = now + 30 minutes;\r\n\r\n    // Current token rate\r\n    uint256 _rate = 1300;\r\n\r\n    // Goal of the ICO amount - Soft cap\r\n    uint256 _goal = 2000 * 1 ether;\r\n\r\n    // Hard cap amount for the ICO\r\n    uint256 _cap = 17000 * 1 ether;\r\n\r\n    // Wallet address\r\n    address _wallet = 0x2F608B2E4e95a62d4b05e41131871cF3ce008068;\r\n\r\n    /**\r\n     * @dev CustomDealICO Constructor\r\n     */\r\n    function CustomDealICO()\r\n    CappedCrowdsale(_cap)\r\n    FinalizableCrowdsale()\r\n    RefundableCrowdsale(_goal)\r\n    Crowdsale(_startTime, _endTime, _rate, _wallet) public {\r\n    }\r\n\r\n    /**\r\n     * @dev Creating main token contract\r\n     * @return Token instance which is mintable\r\n     */\r\n    function createTokenContract() internal returns (MintableToken) {\r\n        return new CustomDealToken();\r\n    }\r\n}",
  "sourcePath": "/Users/elly/custom-deal-ico-smart-contracts/contracts/CustomDealICO.sol",
  "compiler": {
    "name": "solc",
    "version": "0.4.19+commit.c4cbbb05.Emscripten.clang"
  },
  "schemaVersion": "2.0.0",
  "updatedAt": "2018-03-20T12:52:52.583Z"
}