{
  "contractName": "CustomDealICO",
  "abi": [
    {
      "constant": true,
      "inputs": [],
      "name": "rate",
      "outputs": [
        {
          "name": "",
          "type": "uint256"
        }
      ],
      "payable": false,
      "stateMutability": "view",
      "type": "function"
    },
    {
      "constant": true,
      "inputs": [],
      "name": "endTime",
      "outputs": [
        {
          "name": "",
          "type": "uint256"
        }
      ],
      "payable": false,
      "stateMutability": "view",
      "type": "function"
    },
    {
      "constant": true,
      "inputs": [],
      "name": "cap",
      "outputs": [
        {
          "name": "",
          "type": "uint256"
        }
      ],
      "payable": false,
      "stateMutability": "view",
      "type": "function"
    },
    {
      "constant": true,
      "inputs": [],
      "name": "goal",
      "outputs": [
        {
          "name": "",
          "type": "uint256"
        }
      ],
      "payable": false,
      "stateMutability": "view",
      "type": "function"
    },
    {
      "constant": true,
      "inputs": [],
      "name": "weiRaised",
      "outputs": [
        {
          "name": "",
          "type": "uint256"
        }
      ],
      "payable": false,
      "stateMutability": "view",
      "type": "function"
    },
    {
      "constant": false,
      "inputs": [],
      "name": "finalize",
      "outputs": [],
      "payable": false,
      "stateMutability": "nonpayable",
      "type": "function"
    },
    {
      "constant": true,
      "inputs": [],
      "name": "tokensForEcosystem",
      "outputs": [
        {
          "name": "",
          "type": "uint256"
        }
      ],
      "payable": false,
      "stateMutability": "view",
      "type": "function"
    },
    {
      "constant": true,
      "inputs": [],
      "name": "wallet",
      "outputs": [
        {
          "name": "",
          "type": "address"
        }
      ],
      "payable": false,
      "stateMutability": "view",
      "type": "function"
    },
    {
      "constant": true,
      "inputs": [],
      "name": "totalTokensForSale",
      "outputs": [
        {
          "name": "",
          "type": "uint256"
        }
      ],
      "payable": false,
      "stateMutability": "view",
      "type": "function"
    },
    {
      "constant": true,
      "inputs": [],
      "name": "startTime",
      "outputs": [
        {
          "name": "",
          "type": "uint256"
        }
      ],
      "payable": false,
      "stateMutability": "view",
      "type": "function"
    },
    {
      "constant": true,
      "inputs": [],
      "name": "goalReached",
      "outputs": [
        {
          "name": "",
          "type": "bool"
        }
      ],
      "payable": false,
      "stateMutability": "view",
      "type": "function"
    },
    {
      "constant": true,
      "inputs": [],
      "name": "isFinalized",
      "outputs": [
        {
          "name": "",
          "type": "bool"
        }
      ],
      "payable": false,
      "stateMutability": "view",
      "type": "function"
    },
    {
      "constant": true,
      "inputs": [],
      "name": "owner",
      "outputs": [
        {
          "name": "",
          "type": "address"
        }
      ],
      "payable": false,
      "stateMutability": "view",
      "type": "function"
    },
    {
      "constant": true,
      "inputs": [],
      "name": "totalWeiRaisedDuringPreICO",
      "outputs": [
        {
          "name": "",
          "type": "uint256"
        }
      ],
      "payable": false,
      "stateMutability": "view",
      "type": "function"
    },
    {
      "constant": false,
      "inputs": [],
      "name": "claimRefund",
      "outputs": [],
      "payable": false,
      "stateMutability": "nonpayable",
      "type": "function"
    },
    {
      "constant": true,
      "inputs": [],
      "name": "totalTokensForSaleDuringPreICO",
      "outputs": [
        {
          "name": "",
          "type": "uint256"
        }
      ],
      "payable": false,
      "stateMutability": "view",
      "type": "function"
    },
    {
      "constant": true,
      "inputs": [],
      "name": "stage",
      "outputs": [
        {
          "name": "",
          "type": "uint8"
        }
      ],
      "payable": false,
      "stateMutability": "view",
      "type": "function"
    },
    {
      "constant": true,
      "inputs": [],
      "name": "maxTokens",
      "outputs": [
        {
          "name": "",
          "type": "uint256"
        }
      ],
      "payable": false,
      "stateMutability": "view",
      "type": "function"
    },
    {
      "constant": false,
      "inputs": [
        {
          "name": "beneficiary",
          "type": "address"
        }
      ],
      "name": "buyTokens",
      "outputs": [],
      "payable": true,
      "stateMutability": "payable",
      "type": "function"
    },
    {
      "constant": true,
      "inputs": [],
      "name": "hasEnded",
      "outputs": [
        {
          "name": "",
          "type": "bool"
        }
      ],
      "payable": false,
      "stateMutability": "view",
      "type": "function"
    },
    {
      "constant": false,
      "inputs": [
        {
          "name": "newOwner",
          "type": "address"
        }
      ],
      "name": "transferOwnership",
      "outputs": [],
      "payable": false,
      "stateMutability": "nonpayable",
      "type": "function"
    },
    {
      "constant": true,
      "inputs": [],
      "name": "vault",
      "outputs": [
        {
          "name": "",
          "type": "address"
        }
      ],
      "payable": false,
      "stateMutability": "view",
      "type": "function"
    },
    {
      "constant": true,
      "inputs": [],
      "name": "token",
      "outputs": [
        {
          "name": "",
          "type": "address"
        }
      ],
      "payable": false,
      "stateMutability": "view",
      "type": "function"
    },
    {
      "inputs": [
        {
          "name": "_startTime",
          "type": "uint256"
        },
        {
          "name": "_endTime",
          "type": "uint256"
        },
        {
          "name": "_rate",
          "type": "uint256"
        },
        {
          "name": "_wallet",
          "type": "address"
        },
        {
          "name": "_goal",
          "type": "uint256"
        },
        {
          "name": "_cap",
          "type": "uint256"
        }
      ],
      "payable": false,
      "stateMutability": "nonpayable",
      "type": "constructor"
    },
    {
      "payable": true,
      "stateMutability": "payable",
      "type": "fallback"
    },
    {
      "anonymous": false,
      "inputs": [
        {
          "indexed": false,
          "name": "text",
          "type": "string"
        }
      ],
      "name": "EthTransferred",
      "type": "event"
    },
    {
      "anonymous": false,
      "inputs": [
        {
          "indexed": false,
          "name": "text",
          "type": "string"
        }
      ],
      "name": "EthRefunded",
      "type": "event"
    },
    {
      "anonymous": false,
      "inputs": [],
      "name": "Finalized",
      "type": "event"
    },
    {
      "anonymous": false,
      "inputs": [
        {
          "indexed": true,
          "name": "previousOwner",
          "type": "address"
        },
        {
          "indexed": true,
          "name": "newOwner",
          "type": "address"
        }
      ],
      "name": "OwnershipTransferred",
      "type": "event"
    },
    {
      "anonymous": false,
      "inputs": [
        {
          "indexed": true,
          "name": "purchaser",
          "type": "address"
        },
        {
          "indexed": true,
          "name": "beneficiary",
          "type": "address"
        },
        {
          "indexed": false,
          "name": "value",
          "type": "uint256"
        },
        {
          "indexed": false,
          "name": "amount",
          "type": "uint256"
        }
      ],
      "name": "TokenPurchase",
      "type": "event"
    },
    {
      "constant": false,
      "inputs": [
        {
          "name": "value",
          "type": "uint256"
        }
      ],
      "name": "setCrowdsaleStage",
      "outputs": [],
      "payable": false,
      "stateMutability": "nonpayable",
      "type": "function"
    },
    {
      "constant": false,
      "inputs": [
        {
          "name": "_ecosystemFund",
          "type": "address"
        }
      ],
      "name": "finish",
      "outputs": [],
      "payable": false,
      "stateMutability": "nonpayable",
      "type": "function"
    }
  ],
  "bytecode": "0x60806040526000600760146101000a81548160ff0219169083151502179055506000600960146101000a81548160ff021916908360038111156200003f57fe5b02179055506b014adf4b7320334b90000000600a556a6342fd08f00f6378000000600b556ae79c4e6a3023e818000000600c556a52b7d2dcc80cd2e4000000600d553480156200008e57600080fd5b5060405160c08062004184833981018060405281019080805190602001909291908051906020019092919080519060200190929190805190602001909291908051906020019092919080519060200190929190505050818187878787428410151515620000fa57600080fd5b8383101515156200010a57600080fd5b6000821115156200011a57600080fd5b600073ffffffffffffffffffffffffffffffffffffffff168173ffffffffffffffffffffffffffffffffffffffff16141515156200015757600080fd5b6200017062000357640100000000026401000000009004565b6000806101000a81548173ffffffffffffffffffffffffffffffffffffffff021916908373ffffffffffffffffffffffffffffffffffffffff16021790555083600181905550826002819055508160048190555080600360006101000a81548173ffffffffffffffffffffffffffffffffffffffff021916908373ffffffffffffffffffffffffffffffffffffffff160217905550505050506000811115156200021957600080fd5b806006819055505033600760006101000a81548173ffffffffffffffffffffffffffffffffffffffff021916908373ffffffffffffffffffffffffffffffffffffffff1602179055506000811115156200027257600080fd5b600360009054906101000a900473ffffffffffffffffffffffffffffffffffffffff166200029f62000386565b808273ffffffffffffffffffffffffffffffffffffffff1673ffffffffffffffffffffffffffffffffffffffff168152602001915050604051809103906000f080158015620002f2573d6000803e3d6000fd5b50600960006101000a81548173ffffffffffffffffffffffffffffffffffffffff021916908373ffffffffffffffffffffffffffffffffffffffff16021790555080600881905550508082111515156200034b57600080fd5b505050505050620003a8565b60006200036362000397565b604051809103906000f08015801562000380573d6000803e3d6000fd5b50905090565b604051610abd8062001e6083390190565b604051611867806200291d83390190565b611aa880620003b86000396000f300608060405260043610610149576000357c0100000000000000000000000000000000000000000000000000000000900463ffffffff1680632c4e722e14610563578063305ec69e1461058e5780633197cbb6146105d1578063355274ea146105fc57806340193883146106275780634042b66f146106525780634bb278f31461067d5780634c4cfc3b14610694578063521eb273146106bf57806360219c7b1461071657806378e97925146107415780637d3d65221461076c5780638d4e40831461079b5780638da5cb5b146107ca578063a997f82f14610821578063abe8014a1461084e578063b5545a3c14610879578063c02aaea114610890578063c040e6b8146108bb578063e8315742146108f4578063ec8ac4d81461091f578063ecb70fb714610955578063f2fde38b14610984578063fbfa77cf146109c7578063fc0c546a14610a1e575b600061016060045434610a7590919063ffffffff16565b90506000600381111561016f57fe5b600960149054906101000a900460ff16600381111561018a57fe5b1480156102595750600d54816000809054906101000a900473ffffffffffffffffffffffffffffffffffffffff1673ffffffffffffffffffffffffffffffffffffffff166318160ddd6040518163ffffffff167c0100000000000000000000000000000000000000000000000000000000028152600401602060405180830381600087803b15801561021b57600080fd5b505af115801561022f573d6000803e3d6000fd5b505050506040513d602081101561024557600080fd5b810190808051906020019092919050505001115b15610312573373ffffffffffffffffffffffffffffffffffffffff166108fc349081150290604051600060405180830381858888f193505050501580156102a4573d6000803e3d6000fd5b507fc0283f9c45b2118c7ec26e4f4bf06fc486f94a186fb38dc5dff372d9cb709d376040518080602001828103825260158152602001807f50726549434f4669727374204c696d697420486974000000000000000000000081525060200191505060405180910390a1610560565b6001600381111561031f57fe5b600960149054906101000a900460ff16600381111561033a57fe5b1480156104095750600d54816000809054906101000a900473ffffffffffffffffffffffffffffffffffffffff1673ffffffffffffffffffffffffffffffffffffffff166318160ddd6040518163ffffffff167c0100000000000000000000000000000000000000000000000000000000028152600401602060405180830381600087803b1580156103cb57600080fd5b505af11580156103df573d6000803e3d6000fd5b505050506040513d60208110156103f557600080fd5b810190808051906020019092919050505001115b156104c2573373ffffffffffffffffffffffffffffffffffffffff166108fc349081150290604051600060405180830381858888f19350505050158015610454573d6000803e3d6000fd5b507fc0283f9c45b2118c7ec26e4f4bf06fc486f94a186fb38dc5dff372d9cb709d376040518080602001828103825260168152602001807f50726549434f5365636f6e64204c696d6974204869740000000000000000000081525060200191505060405180910390a1610560565b6104cb33610ab0565b600060038111156104d857fe5b600960149054906101000a900460ff1660038111156104f357fe5b14156105155761050e34600e54610cb190919063ffffffff16565b600e819055505b6001600381111561052257fe5b600960149054906101000a900460ff16600381111561053d57fe5b141561055f5761055834600e54610cb190919063ffffffff16565b600e819055505b5b50005b34801561056f57600080fd5b50610578610ccf565b6040518082815260200191505060405180910390f35b34801561059a57600080fd5b506105cf600480360381019080803573ffffffffffffffffffffffffffffffffffffffff169060200190929190505050610cd5565b005b3480156105dd57600080fd5b506105e6610f4d565b6040518082815260200191505060405180910390f35b34801561060857600080fd5b50610611610f53565b6040518082815260200191505060405180910390f35b34801561063357600080fd5b5061063c610f59565b6040518082815260200191505060405180910390f35b34801561065e57600080fd5b50610667610f5f565b6040518082815260200191505060405180910390f35b34801561068957600080fd5b50610692610f65565b005b3480156106a057600080fd5b506106a9611041565b6040518082815260200191505060405180910390f35b3480156106cb57600080fd5b506106d4611047565b604051808273ffffffffffffffffffffffffffffffffffffffff1673ffffffffffffffffffffffffffffffffffffffff16815260200191505060405180910390f35b34801561072257600080fd5b5061072b61106d565b6040518082815260200191505060405180910390f35b34801561074d57600080fd5b50610756611073565b6040518082815260200191505060405180910390f35b34801561077857600080fd5b50610781611079565b604051808215151515815260200191505060405180910390f35b3480156107a757600080fd5b506107b0611088565b604051808215151515815260200191505060405180910390f35b3480156107d657600080fd5b506107df61109b565b604051808273ffffffffffffffffffffffffffffffffffffffff1673ffffffffffffffffffffffffffffffffffffffff16815260200191505060405180910390f35b34801561082d57600080fd5b5061084c600480360381019080803590602001909291905050506110c1565b005b34801561085a57600080fd5b506108636112ae565b6040518082815260200191505060405180910390f35b34801561088557600080fd5b5061088e6112b4565b005b34801561089c57600080fd5b506108a56113ba565b6040518082815260200191505060405180910390f35b3480156108c757600080fd5b506108d06113c0565b604051808260038111156108e057fe5b60ff16815260200191505060405180910390f35b34801561090057600080fd5b506109096113d3565b6040518082815260200191505060405180910390f35b610953600480360381019080803573ffffffffffffffffffffffffffffffffffffffff169060200190929190505050610ab0565b005b34801561096157600080fd5b5061096a6113d9565b604051808215151515815260200191505060405180910390f35b34801561099057600080fd5b506109c5600480360381019080803573ffffffffffffffffffffffffffffffffffffffff1690602001909291905050506113fc565b005b3480156109d357600080fd5b506109dc611554565b604051808273ffffffffffffffffffffffffffffffffffffffff1673ffffffffffffffffffffffffffffffffffffffff16815260200191505060405180910390f35b348015610a2a57600080fd5b50610a3361157a565b604051808273ffffffffffffffffffffffffffffffffffffffff1673ffffffffffffffffffffffffffffffffffffffff16815260200191505060405180910390f35b6000806000841415610a8a5760009150610aa9565b8284029050828482811515610a9b57fe5b04141515610aa557fe5b8091505b5092915050565b600080600073ffffffffffffffffffffffffffffffffffffffff168373ffffffffffffffffffffffffffffffffffffffff1614151515610aef57600080fd5b610af761159f565b1515610b0257600080fd5b349150610b1a60045483610a7590919063ffffffff16565b9050610b3182600554610cb190919063ffffffff16565b6005819055506000809054906101000a900473ffffffffffffffffffffffffffffffffffffffff1673ffffffffffffffffffffffffffffffffffffffff166340c10f1984836040518363ffffffff167c0100000000000000000000000000000000000000000000000000000000028152600401808373ffffffffffffffffffffffffffffffffffffffff1673ffffffffffffffffffffffffffffffffffffffff16815260200182815260200192505050602060405180830381600087803b158015610bfb57600080fd5b505af1158015610c0f573d6000803e3d6000fd5b505050506040513d6020811015610c2557600080fd5b8101908080519060200190929190505050508273ffffffffffffffffffffffffffffffffffffffff163373ffffffffffffffffffffffffffffffffffffffff167f623b3804fa71d67900d064613da8f94b9617215ee90799290593e1745087ad188484604051808381526020018281526020019250505060405180910390a3610cac6115d5565b505050565b6000808284019050838110151515610cc557fe5b8091505092915050565b60045481565b600080600760009054906101000a900473ffffffffffffffffffffffffffffffffffffffff1673ffffffffffffffffffffffffffffffffffffffff163373ffffffffffffffffffffffffffffffffffffffff16141515610d3457600080fd5b600760149054906101000a900460ff16151515610d5057600080fd5b6000809054906101000a900473ffffffffffffffffffffffffffffffffffffffff1673ffffffffffffffffffffffffffffffffffffffff166318160ddd6040518163ffffffff167c0100000000000000000000000000000000000000000000000000000000028152600401602060405180830381600087803b158015610dd557600080fd5b505af1158015610de9573d6000803e3d6000fd5b505050506040513d6020811015610dff57600080fd5b81019080805190602001909291905050509150600a5482101515610e2257600080fd5b81600c540390506000811115610e3e5780600b5401600b819055505b6000809054906101000a900473ffffffffffffffffffffffffffffffffffffffff1673ffffffffffffffffffffffffffffffffffffffff166340c10f1984600b546040518363ffffffff167c0100000000000000000000000000000000000000000000000000000000028152600401808373ffffffffffffffffffffffffffffffffffffffff1673ffffffffffffffffffffffffffffffffffffffff16815260200182815260200192505050602060405180830381600087803b158015610f0457600080fd5b505af1158015610f18573d6000803e3d6000fd5b505050506040513d6020811015610f2e57600080fd5b810190808051906020019092919050505050610f48610f65565b505050565b60025481565b60065481565b60085481565b60055481565b600760009054906101000a900473ffffffffffffffffffffffffffffffffffffffff1673ffffffffffffffffffffffffffffffffffffffff163373ffffffffffffffffffffffffffffffffffffffff16141515610fc157600080fd5b600760149054906101000a900460ff16151515610fdd57600080fd5b610fe56113d9565b1515610ff057600080fd5b610ff8611800565b7f6823b073d48d6e3a7d385eeb601452d680e74bb46afe3255a7d778f3a9b1768160405160405180910390a16001600760146101000a81548160ff021916908315150217905550565b600b5481565b600360009054906101000a900473ffffffffffffffffffffffffffffffffffffffff1681565b600c5481565b60015481565b60006008546005541015905090565b600760149054906101000a900460ff1681565b600760009054906101000a900473ffffffffffffffffffffffffffffffffffffffff1681565b6000600760009054906101000a900473ffffffffffffffffffffffffffffffffffffffff1673ffffffffffffffffffffffffffffffffffffffff163373ffffffffffffffffffffffffffffffffffffffff1614151561111f57600080fd5b816000600381111561112d57fe5b141561113c5760009050611191565b816001600381111561114a57fe5b14156111595760019050611190565b816002600381111561116757fe5b1415611176576002905061118f565b8160038081111561118357fe5b141561118e57600390505b5b5b5b80600960146101000a81548160ff021916908360038111156111af57fe5b0217905550600060038111156111c157fe5b600960149054906101000a900460ff1660038111156111dc57fe5b14156111f2576111ed61aae6611959565b6112aa565b600160038111156111ff57fe5b600960149054906101000a900460ff16600381111561121a57fe5b14156112305761122b619664611959565b6112a9565b6002600381111561123d57fe5b600960149054906101000a900460ff16600381111561125857fe5b141561126e5761126961445c611959565b6112a8565b60038081111561127a57fe5b600960149054906101000a900460ff16600381111561129557fe5b14156112a7576112a6612d92611959565b5b5b5b5b5050565b600e5481565b600760149054906101000a900460ff1615156112cf57600080fd5b6112d7611079565b1515156112e357600080fd5b600960009054906101000a900473ffffffffffffffffffffffffffffffffffffffff1673ffffffffffffffffffffffffffffffffffffffff1663fa89401a336040518263ffffffff167c0100000000000000000000000000000000000000000000000000000000028152600401808273ffffffffffffffffffffffffffffffffffffffff1673ffffffffffffffffffffffffffffffffffffffff168152602001915050600060405180830381600087803b1580156113a057600080fd5b505af11580156113b4573d6000803e3d6000fd5b50505050565b600d5481565b600960149054906101000a900460ff1681565b600a5481565b600080600654600554101590506113ee611963565b806113f65750805b91505090565b600760009054906101000a900473ffffffffffffffffffffffffffffffffffffffff1673ffffffffffffffffffffffffffffffffffffffff163373ffffffffffffffffffffffffffffffffffffffff1614151561145857600080fd5b600073ffffffffffffffffffffffffffffffffffffffff168173ffffffffffffffffffffffffffffffffffffffff161415151561149457600080fd5b8073ffffffffffffffffffffffffffffffffffffffff16600760009054906101000a900473ffffffffffffffffffffffffffffffffffffffff1673ffffffffffffffffffffffffffffffffffffffff167f8be0079c531659141344cd1fd0a4f28419497f9722a3daafe3b4186f6b6457e060405160405180910390a380600760006101000a81548173ffffffffffffffffffffffffffffffffffffffff021916908373ffffffffffffffffffffffffffffffffffffffff16021790555050565b600960009054906101000a900473ffffffffffffffffffffffffffffffffffffffff1681565b6000809054906101000a900473ffffffffffffffffffffffffffffffffffffffff1681565b6000806006546115ba34600554610cb190919063ffffffff16565b111590506115c661196f565b80156115cf5750805b91505090565b600060038111156115e257fe5b600960149054906101000a900460ff1660038111156115fd57fe5b148061162e57506001600381111561161157fe5b600960149054906101000a900460ff16600381111561162c57fe5b145b1561170957600360009054906101000a900473ffffffffffffffffffffffffffffffffffffffff1673ffffffffffffffffffffffffffffffffffffffff166108fc349081150290604051600060405180830381858888f1935050505015801561169b573d6000803e3d6000fd5b507f47af8c4076c54a76f613f82e4296a2c5e2167698d368157a82e62398393e345e60405180806020018281038252601a8152602001807f666f7277617264696e672066756e647320746f2077616c6c657400000000000081525060200191505060405180910390a16117fe565b6002600381111561171657fe5b600960149054906101000a900460ff16600381111561173157fe5b1480611761575060038081111561174457fe5b600960149054906101000a900460ff16600381111561175f57fe5b145b156117fd577f47af8c4076c54a76f613f82e4296a2c5e2167698d368157a82e62398393e345e6040518080602001828103825260248152602001807f666f7277617264696e672066756e647320746f20726566756e6461626c65207681526020017f61756c740000000000000000000000000000000000000000000000000000000081525060400191505060405180910390a16117fc6119a2565b5b5b565b611808611079565b156118b057600960009054906101000a900473ffffffffffffffffffffffffffffffffffffffff1673ffffffffffffffffffffffffffffffffffffffff166343d726d66040518163ffffffff167c0100000000000000000000000000000000000000000000000000000000028152600401600060405180830381600087803b15801561189357600080fd5b505af11580156118a7573d6000803e3d6000fd5b5050505061194f565b600960009054906101000a900473ffffffffffffffffffffffffffffffffffffffff1673ffffffffffffffffffffffffffffffffffffffff16638c52dc416040518163ffffffff167c0100000000000000000000000000000000000000000000000000000000028152600401600060405180830381600087803b15801561193657600080fd5b505af115801561194a573d6000803e3d6000fd5b505050505b611957611a7a565b565b8060048190555050565b60006002544211905090565b6000806000600154421015801561198857506002544211155b91506000341415905081801561199b5750805b9250505090565b600960009054906101000a900473ffffffffffffffffffffffffffffffffffffffff1673ffffffffffffffffffffffffffffffffffffffff1663f340fa0134336040518363ffffffff167c0100000000000000000000000000000000000000000000000000000000028152600401808273ffffffffffffffffffffffffffffffffffffffff1673ffffffffffffffffffffffffffffffffffffffff1681526020019150506000604051808303818588803b158015611a5f57600080fd5b505af1158015611a73573d6000803e3d6000fd5b5050505050565b5600a165627a7a723058204ee7a69b6a64907dcb52aa4df5ee7be147752070634629853b4a1078f381e1050029608060405234801561001057600080fd5b50604051602080610abd83398101806040528101908080519060200190929190505050336000806101000a81548173ffffffffffffffffffffffffffffffffffffffff021916908373ffffffffffffffffffffffffffffffffffffffff160217905550600073ffffffffffffffffffffffffffffffffffffffff168173ffffffffffffffffffffffffffffffffffffffff16141515156100af57600080fd5b80600260006101000a81548173ffffffffffffffffffffffffffffffffffffffff021916908373ffffffffffffffffffffffffffffffffffffffff1602179055506000600260146101000a81548160ff0219169083600281111561010f57fe5b021790555050610999806101246000396000f300608060405260043610610099576000357c0100000000000000000000000000000000000000000000000000000000900463ffffffff16806343d726d61461009e578063521eb273146100b55780638c52dc411461010c5780638da5cb5b14610123578063c19d93fb1461017a578063cb13cddb146101b3578063f2fde38b1461020a578063f340fa011461024d578063fa89401a14610283575b600080fd5b3480156100aa57600080fd5b506100b36102c6565b005b3480156100c157600080fd5b506100ca610426565b604051808273ffffffffffffffffffffffffffffffffffffffff1673ffffffffffffffffffffffffffffffffffffffff16815260200191505060405180910390f35b34801561011857600080fd5b5061012161044c565b005b34801561012f57600080fd5b5061013861052d565b604051808273ffffffffffffffffffffffffffffffffffffffff1673ffffffffffffffffffffffffffffffffffffffff16815260200191505060405180910390f35b34801561018657600080fd5b5061018f610552565b6040518082600281111561019f57fe5b60ff16815260200191505060405180910390f35b3480156101bf57600080fd5b506101f4600480360381019080803573ffffffffffffffffffffffffffffffffffffffff169060200190929190505050610565565b6040518082815260200191505060405180910390f35b34801561021657600080fd5b5061024b600480360381019080803573ffffffffffffffffffffffffffffffffffffffff16906020019092919050505061057d565b005b610281600480360381019080803573ffffffffffffffffffffffffffffffffffffffff1690602001909291905050506106d2565b005b34801561028f57600080fd5b506102c4600480360381019080803573ffffffffffffffffffffffffffffffffffffffff1690602001909291905050506107f9565b005b6000809054906101000a900473ffffffffffffffffffffffffffffffffffffffff1673ffffffffffffffffffffffffffffffffffffffff163373ffffffffffffffffffffffffffffffffffffffff1614151561032157600080fd5b6000600281111561032e57fe5b600260149054906101000a900460ff16600281111561034957fe5b14151561035557600080fd5b60028060146101000a81548160ff0219169083600281111561037357fe5b02179055507f1cdde67b72a90f19919ac732a437ac2f7a10fc128d28c2a6e525d89ce5cd9d3a60405160405180910390a1600260009054906101000a900473ffffffffffffffffffffffffffffffffffffffff1673ffffffffffffffffffffffffffffffffffffffff166108fc3073ffffffffffffffffffffffffffffffffffffffff16319081150290604051600060405180830381858888f19350505050158015610423573d6000803e3d6000fd5b50565b600260009054906101000a900473ffffffffffffffffffffffffffffffffffffffff1681565b6000809054906101000a900473ffffffffffffffffffffffffffffffffffffffff1673ffffffffffffffffffffffffffffffffffffffff163373ffffffffffffffffffffffffffffffffffffffff161415156104a757600080fd5b600060028111156104b457fe5b600260149054906101000a900460ff1660028111156104cf57fe5b1415156104db57600080fd5b6001600260146101000a81548160ff021916908360028111156104fa57fe5b02179055507f599d8e5a83cffb867d051598c4d70e805d59802d8081c1c7d6dffc5b6aca2b8960405160405180910390a1565b6000809054906101000a900473ffffffffffffffffffffffffffffffffffffffff1681565b600260149054906101000a900460ff1681565b60016020528060005260406000206000915090505481565b6000809054906101000a900473ffffffffffffffffffffffffffffffffffffffff1673ffffffffffffffffffffffffffffffffffffffff163373ffffffffffffffffffffffffffffffffffffffff161415156105d857600080fd5b600073ffffffffffffffffffffffffffffffffffffffff168173ffffffffffffffffffffffffffffffffffffffff161415151561061457600080fd5b8073ffffffffffffffffffffffffffffffffffffffff166000809054906101000a900473ffffffffffffffffffffffffffffffffffffffff1673ffffffffffffffffffffffffffffffffffffffff167f8be0079c531659141344cd1fd0a4f28419497f9722a3daafe3b4186f6b6457e060405160405180910390a3806000806101000a81548173ffffffffffffffffffffffffffffffffffffffff021916908373ffffffffffffffffffffffffffffffffffffffff16021790555050565b6000809054906101000a900473ffffffffffffffffffffffffffffffffffffffff1673ffffffffffffffffffffffffffffffffffffffff163373ffffffffffffffffffffffffffffffffffffffff1614151561072d57600080fd5b6000600281111561073a57fe5b600260149054906101000a900460ff16600281111561075557fe5b14151561076157600080fd5b6107b334600160008473ffffffffffffffffffffffffffffffffffffffff1673ffffffffffffffffffffffffffffffffffffffff1681526020019081526020016000205461094f90919063ffffffff16565b600160008373ffffffffffffffffffffffffffffffffffffffff1673ffffffffffffffffffffffffffffffffffffffff1681526020019081526020016000208190555050565b60006001600281111561080857fe5b600260149054906101000a900460ff16600281111561082357fe5b14151561082f57600080fd5b600160008373ffffffffffffffffffffffffffffffffffffffff1673ffffffffffffffffffffffffffffffffffffffff1681526020019081526020016000205490506000600160008473ffffffffffffffffffffffffffffffffffffffff1673ffffffffffffffffffffffffffffffffffffffff168152602001908152602001600020819055508173ffffffffffffffffffffffffffffffffffffffff166108fc829081150290604051600060405180830381858888f193505050501580156108fc573d6000803e3d6000fd5b508173ffffffffffffffffffffffffffffffffffffffff167fd7dee2702d63ad89917b6a4da9981c90c4d24f8c2bdfd64c604ecae57d8d0651826040518082815260200191505060405180910390a25050565b600080828401905083811015151561096357fe5b80915050929150505600a165627a7a72305820bd5ad6085dc078130025eb486ed4c2b268b2501d6b6fc26be8a4e58c1701298d002960806040526000600360146101000a81548160ff02191690831515021790555033600360006101000a81548173ffffffffffffffffffffffffffffffffffffffff021916908373ffffffffffffffffffffffffffffffffffffffff1602179055506117f88061006f6000396000f3006080604052600436106100e6576000357c0100000000000000000000000000000000000000000000000000000000900463ffffffff16806305d2035b146100eb57806306fdde031461011a578063095ea7b3146101aa57806318160ddd1461020f57806323b872dd1461023a578063313ce567146102bf57806340c10f19146102ea578063661884631461034f57806370a08231146103b45780637d64bcb41461040b5780638da5cb5b1461043a57806395d89b4114610491578063a9059cbb14610521578063d73dd62314610586578063dd62ed3e146105eb578063f2fde38b14610662575b600080fd5b3480156100f757600080fd5b506101006106a5565b604051808215151515815260200191505060405180910390f35b34801561012657600080fd5b5061012f6106b8565b6040518080602001828103825283818151815260200191508051906020019080838360005b8381101561016f578082015181840152602081019050610154565b50505050905090810190601f16801561019c5780820380516001836020036101000a031916815260200191505b509250505060405180910390f35b3480156101b657600080fd5b506101f5600480360381019080803573ffffffffffffffffffffffffffffffffffffffff169060200190929190803590602001909291905050506106f1565b604051808215151515815260200191505060405180910390f35b34801561021b57600080fd5b506102246107e3565b6040518082815260200191505060405180910390f35b34801561024657600080fd5b506102a5600480360381019080803573ffffffffffffffffffffffffffffffffffffffff169060200190929190803573ffffffffffffffffffffffffffffffffffffffff169060200190929190803590602001909291905050506107e9565b604051808215151515815260200191505060405180910390f35b3480156102cb57600080fd5b506102d4610ba8565b6040518082815260200191505060405180910390f35b3480156102f657600080fd5b50610335600480360381019080803573ffffffffffffffffffffffffffffffffffffffff16906020019092919080359060200190929190505050610bad565b604051808215151515815260200191505060405180910390f35b34801561035b57600080fd5b5061039a600480360381019080803573ffffffffffffffffffffffffffffffffffffffff16906020019092919080359060200190929190505050610d95565b604051808215151515815260200191505060405180910390f35b3480156103c057600080fd5b506103f5600480360381019080803573ffffffffffffffffffffffffffffffffffffffff169060200190929190505050611026565b6040518082815260200191505060405180910390f35b34801561041757600080fd5b5061042061106f565b604051808215151515815260200191505060405180910390f35b34801561044657600080fd5b5061044f611137565b604051808273ffffffffffffffffffffffffffffffffffffffff1673ffffffffffffffffffffffffffffffffffffffff16815260200191505060405180910390f35b34801561049d57600080fd5b506104a661115d565b6040518080602001828103825283818151815260200191508051906020019080838360005b838110156104e65780820151818401526020810190506104cb565b50505050905090810190601f1680156105135780820380516001836020036101000a031916815260200191505b509250505060405180910390f35b34801561052d57600080fd5b5061056c600480360381019080803573ffffffffffffffffffffffffffffffffffffffff16906020019092919080359060200190929190505050611196565b604051808215151515815260200191505060405180910390f35b34801561059257600080fd5b506105d1600480360381019080803573ffffffffffffffffffffffffffffffffffffffff169060200190929190803590602001909291905050506113ba565b604051808215151515815260200191505060405180910390f35b3480156105f757600080fd5b5061064c600480360381019080803573ffffffffffffffffffffffffffffffffffffffff169060200190929190803573ffffffffffffffffffffffffffffffffffffffff1690602001909291905050506115b6565b6040518082815260200191505060405180910390f35b34801561066e57600080fd5b506106a3600480360381019080803573ffffffffffffffffffffffffffffffffffffffff16906020019092919050505061163d565b005b600360149054906101000a900460ff1681565b6040805190810160405280601181526020017f437573746f6d204465616c20546f6b656e00000000000000000000000000000081525081565b600081600260003373ffffffffffffffffffffffffffffffffffffffff1673ffffffffffffffffffffffffffffffffffffffff16815260200190815260200160002060008573ffffffffffffffffffffffffffffffffffffffff1673ffffffffffffffffffffffffffffffffffffffff168152602001908152602001600020819055508273ffffffffffffffffffffffffffffffffffffffff163373ffffffffffffffffffffffffffffffffffffffff167f8c5be1e5ebec7d5bd14f71427d1e84f3dd0314c0f7b2291e5b200ac8c7c3b925846040518082815260200191505060405180910390a36001905092915050565b60005481565b60008073ffffffffffffffffffffffffffffffffffffffff168373ffffffffffffffffffffffffffffffffffffffff161415151561082657600080fd5b600160008573ffffffffffffffffffffffffffffffffffffffff1673ffffffffffffffffffffffffffffffffffffffff16815260200190815260200160002054821115151561087457600080fd5b600260008573ffffffffffffffffffffffffffffffffffffffff1673ffffffffffffffffffffffffffffffffffffffff16815260200190815260200160002060003373ffffffffffffffffffffffffffffffffffffffff1673ffffffffffffffffffffffffffffffffffffffff1681526020019081526020016000205482111515156108ff57600080fd5b61095182600160008773ffffffffffffffffffffffffffffffffffffffff1673ffffffffffffffffffffffffffffffffffffffff1681526020019081526020016000205461179590919063ffffffff16565b600160008673ffffffffffffffffffffffffffffffffffffffff1673ffffffffffffffffffffffffffffffffffffffff168152602001908152602001600020819055506109e682600160008673ffffffffffffffffffffffffffffffffffffffff1673ffffffffffffffffffffffffffffffffffffffff168152602001908152602001600020546117ae90919063ffffffff16565b600160008573ffffffffffffffffffffffffffffffffffffffff1673ffffffffffffffffffffffffffffffffffffffff16815260200190815260200160002081905550610ab882600260008773ffffffffffffffffffffffffffffffffffffffff1673ffffffffffffffffffffffffffffffffffffffff16815260200190815260200160002060003373ffffffffffffffffffffffffffffffffffffffff1673ffffffffffffffffffffffffffffffffffffffff1681526020019081526020016000205461179590919063ffffffff16565b600260008673ffffffffffffffffffffffffffffffffffffffff1673ffffffffffffffffffffffffffffffffffffffff16815260200190815260200160002060003373ffffffffffffffffffffffffffffffffffffffff1673ffffffffffffffffffffffffffffffffffffffff168152602001908152602001600020819055508273ffffffffffffffffffffffffffffffffffffffff168473ffffffffffffffffffffffffffffffffffffffff167fddf252ad1be2c89b69c2b068fc378daa952ba7f163c4a11628f55a4df523b3ef846040518082815260200191505060405180910390a3600190509392505050565b601281565b6000600360009054906101000a900473ffffffffffffffffffffffffffffffffffffffff1673ffffffffffffffffffffffffffffffffffffffff163373ffffffffffffffffffffffffffffffffffffffff16141515610c0b57600080fd5b600360149054906101000a900460ff16151515610c2757600080fd5b610c3c826000546117ae90919063ffffffff16565b600081905550610c9482600160008673ffffffffffffffffffffffffffffffffffffffff1673ffffffffffffffffffffffffffffffffffffffff168152602001908152602001600020546117ae90919063ffffffff16565b600160008573ffffffffffffffffffffffffffffffffffffffff1673ffffffffffffffffffffffffffffffffffffffff168152602001908152602001600020819055508273ffffffffffffffffffffffffffffffffffffffff167f0f6798a560793a54c3bcfe86a93cde1e73087d944c0ea20544137d4121396885836040518082815260200191505060405180910390a28273ffffffffffffffffffffffffffffffffffffffff16600073ffffffffffffffffffffffffffffffffffffffff167fddf252ad1be2c89b69c2b068fc378daa952ba7f163c4a11628f55a4df523b3ef846040518082815260200191505060405180910390a36001905092915050565b600080600260003373ffffffffffffffffffffffffffffffffffffffff1673ffffffffffffffffffffffffffffffffffffffff16815260200190815260200160002060008573ffffffffffffffffffffffffffffffffffffffff1673ffffffffffffffffffffffffffffffffffffffff16815260200190815260200160002054905080831115610ea6576000600260003373ffffffffffffffffffffffffffffffffffffffff1673ffffffffffffffffffffffffffffffffffffffff16815260200190815260200160002060008673ffffffffffffffffffffffffffffffffffffffff1673ffffffffffffffffffffffffffffffffffffffff16815260200190815260200160002081905550610f3a565b610eb9838261179590919063ffffffff16565b600260003373ffffffffffffffffffffffffffffffffffffffff1673ffffffffffffffffffffffffffffffffffffffff16815260200190815260200160002060008673ffffffffffffffffffffffffffffffffffffffff1673ffffffffffffffffffffffffffffffffffffffff168152602001908152602001600020819055505b8373ffffffffffffffffffffffffffffffffffffffff163373ffffffffffffffffffffffffffffffffffffffff167f8c5be1e5ebec7d5bd14f71427d1e84f3dd0314c0f7b2291e5b200ac8c7c3b925600260003373ffffffffffffffffffffffffffffffffffffffff1673ffffffffffffffffffffffffffffffffffffffff16815260200190815260200160002060008873ffffffffffffffffffffffffffffffffffffffff1673ffffffffffffffffffffffffffffffffffffffff168152602001908152602001600020546040518082815260200191505060405180910390a3600191505092915050565b6000600160008373ffffffffffffffffffffffffffffffffffffffff1673ffffffffffffffffffffffffffffffffffffffff168152602001908152602001600020549050919050565b6000600360009054906101000a900473ffffffffffffffffffffffffffffffffffffffff1673ffffffffffffffffffffffffffffffffffffffff163373ffffffffffffffffffffffffffffffffffffffff161415156110cd57600080fd5b600360149054906101000a900460ff161515156110e957600080fd5b6001600360146101000a81548160ff0219169083151502179055507fae5184fba832cb2b1f702aca6117b8d265eaf03ad33eb133f19dde0f5920fa0860405160405180910390a16001905090565b600360009054906101000a900473ffffffffffffffffffffffffffffffffffffffff1681565b6040805190810160405280600381526020017f43444c000000000000000000000000000000000000000000000000000000000081525081565b60008073ffffffffffffffffffffffffffffffffffffffff168373ffffffffffffffffffffffffffffffffffffffff16141515156111d357600080fd5b600160003373ffffffffffffffffffffffffffffffffffffffff1673ffffffffffffffffffffffffffffffffffffffff16815260200190815260200160002054821115151561122157600080fd5b61127382600160003373ffffffffffffffffffffffffffffffffffffffff1673ffffffffffffffffffffffffffffffffffffffff1681526020019081526020016000205461179590919063ffffffff16565b600160003373ffffffffffffffffffffffffffffffffffffffff1673ffffffffffffffffffffffffffffffffffffffff1681526020019081526020016000208190555061130882600160008673ffffffffffffffffffffffffffffffffffffffff1673ffffffffffffffffffffffffffffffffffffffff168152602001908152602001600020546117ae90919063ffffffff16565b600160008573ffffffffffffffffffffffffffffffffffffffff1673ffffffffffffffffffffffffffffffffffffffff168152602001908152602001600020819055508273ffffffffffffffffffffffffffffffffffffffff163373ffffffffffffffffffffffffffffffffffffffff167fddf252ad1be2c89b69c2b068fc378daa952ba7f163c4a11628f55a4df523b3ef846040518082815260200191505060405180910390a36001905092915050565b600061144b82600260003373ffffffffffffffffffffffffffffffffffffffff1673ffffffffffffffffffffffffffffffffffffffff16815260200190815260200160002060008673ffffffffffffffffffffffffffffffffffffffff1673ffffffffffffffffffffffffffffffffffffffff168152602001908152602001600020546117ae90919063ffffffff16565b600260003373ffffffffffffffffffffffffffffffffffffffff1673ffffffffffffffffffffffffffffffffffffffff16815260200190815260200160002060008573ffffffffffffffffffffffffffffffffffffffff1673ffffffffffffffffffffffffffffffffffffffff168152602001908152602001600020819055508273ffffffffffffffffffffffffffffffffffffffff163373ffffffffffffffffffffffffffffffffffffffff167f8c5be1e5ebec7d5bd14f71427d1e84f3dd0314c0f7b2291e5b200ac8c7c3b925600260003373ffffffffffffffffffffffffffffffffffffffff1673ffffffffffffffffffffffffffffffffffffffff16815260200190815260200160002060008773ffffffffffffffffffffffffffffffffffffffff1673ffffffffffffffffffffffffffffffffffffffff168152602001908152602001600020546040518082815260200191505060405180910390a36001905092915050565b6000600260008473ffffffffffffffffffffffffffffffffffffffff1673ffffffffffffffffffffffffffffffffffffffff16815260200190815260200160002060008373ffffffffffffffffffffffffffffffffffffffff1673ffffffffffffffffffffffffffffffffffffffff16815260200190815260200160002054905092915050565b600360009054906101000a900473ffffffffffffffffffffffffffffffffffffffff1673ffffffffffffffffffffffffffffffffffffffff163373ffffffffffffffffffffffffffffffffffffffff1614151561169957600080fd5b600073ffffffffffffffffffffffffffffffffffffffff168173ffffffffffffffffffffffffffffffffffffffff16141515156116d557600080fd5b8073ffffffffffffffffffffffffffffffffffffffff16600360009054906101000a900473ffffffffffffffffffffffffffffffffffffffff1673ffffffffffffffffffffffffffffffffffffffff167f8be0079c531659141344cd1fd0a4f28419497f9722a3daafe3b4186f6b6457e060405160405180910390a380600360006101000a81548173ffffffffffffffffffffffffffffffffffffffff021916908373ffffffffffffffffffffffffffffffffffffffff16021790555050565b60008282111515156117a357fe5b818303905092915050565b60008082840190508381101515156117c257fe5b80915050929150505600a165627a7a72305820f144488f3846d41d7aeaf638c3cde83ce0084eb43811bc220829e3781af25d8b0029",
  "source": "pragma solidity ^0.4.18;\n\n// File: node_modules/zeppelin-solidity/contracts/math/SafeMath.sol\n\n/**\n * @title SafeMath\n * @dev Math operations with safety checks that throw on error\n */\nlibrary SafeMath {\n  function mul(uint256 a, uint256 b) internal pure returns (uint256) {\n    if (a == 0) {\n      return 0;\n    }\n    uint256 c = a * b;\n    assert(c / a == b);\n    return c;\n  }\n\n  function div(uint256 a, uint256 b) internal pure returns (uint256) {\n    // assert(b > 0); // Solidity automatically throws when dividing by 0\n    uint256 c = a / b;\n    // assert(a == b * c + a % b); // There is no case in which this doesn't hold\n    return c;\n  }\n\n  function sub(uint256 a, uint256 b) internal pure returns (uint256) {\n    assert(b <= a);\n    return a - b;\n  }\n\n  function add(uint256 a, uint256 b) internal pure returns (uint256) {\n    uint256 c = a + b;\n    assert(c >= a);\n    return c;\n  }\n}\n\n// File: node_modules/zeppelin-solidity/contracts/ownership/Ownable.sol\n\n/**\n * @title Ownable\n * @dev The Ownable contract has an owner address, and provides basic authorization control\n * functions, this simplifies the implementation of \"user permissions\".\n */\ncontract Ownable {\n  address public owner;\n\n\n  event OwnershipTransferred(address indexed previousOwner, address indexed newOwner);\n\n\n  /**\n   * @dev The Ownable constructor sets the original `owner` of the contract to the sender\n   * account.\n   */\n  function Ownable() public {\n    owner = msg.sender;\n  }\n\n\n  /**\n   * @dev Throws if called by any account other than the owner.\n   */\n  modifier onlyOwner() {\n    require(msg.sender == owner);\n    _;\n  }\n\n\n  /**\n   * @dev Allows the current owner to transfer control of the contract to a newOwner.\n   * @param newOwner The address to transfer ownership to.\n   */\n  function transferOwnership(address newOwner) public onlyOwner {\n    require(newOwner != address(0));\n    OwnershipTransferred(owner, newOwner);\n    owner = newOwner;\n  }\n\n}\n\n// File: node_modules/zeppelin-solidity/contracts/token/ERC20Basic.sol\n\n/**\n * @title ERC20Basic\n * @dev Simpler version of ERC20 interface\n * @dev see https://github.com/ethereum/EIPs/issues/179\n */\ncontract ERC20Basic {\n  uint256 public totalSupply;\n  function balanceOf(address who) public view returns (uint256);\n  function transfer(address to, uint256 value) public returns (bool);\n  event Transfer(address indexed from, address indexed to, uint256 value);\n}\n\n// File: node_modules/zeppelin-solidity/contracts/token/BasicToken.sol\n\n/**\n * @title Basic token\n * @dev Basic version of StandardToken, with no allowances.\n */\ncontract BasicToken is ERC20Basic {\n  using SafeMath for uint256;\n\n  mapping(address => uint256) balances;\n\n  /**\n  * @dev transfer token for a specified address\n  * @param _to The address to transfer to.\n  * @param _value The amount to be transferred.\n  */\n  function transfer(address _to, uint256 _value) public returns (bool) {\n    require(_to != address(0));\n    require(_value <= balances[msg.sender]);\n\n    // SafeMath.sub will throw if there is not enough balance.\n    balances[msg.sender] = balances[msg.sender].sub(_value);\n    balances[_to] = balances[_to].add(_value);\n    Transfer(msg.sender, _to, _value);\n    return true;\n  }\n\n  /**\n  * @dev Gets the balance of the specified address.\n  * @param _owner The address to query the the balance of.\n  * @return An uint256 representing the amount owned by the passed address.\n  */\n  function balanceOf(address _owner) public view returns (uint256 balance) {\n    return balances[_owner];\n  }\n\n}\n\n// File: node_modules/zeppelin-solidity/contracts/token/ERC20.sol\n\n/**\n * @title ERC20 interface\n * @dev see https://github.com/ethereum/EIPs/issues/20\n */\ncontract ERC20 is ERC20Basic {\n  function allowance(address owner, address spender) public view returns (uint256);\n  function transferFrom(address from, address to, uint256 value) public returns (bool);\n  function approve(address spender, uint256 value) public returns (bool);\n  event Approval(address indexed owner, address indexed spender, uint256 value);\n}\n\n// File: node_modules/zeppelin-solidity/contracts/token/StandardToken.sol\n\n/**\n * @title Standard ERC20 token\n *\n * @dev Implementation of the basic standard token.\n * @dev https://github.com/ethereum/EIPs/issues/20\n * @dev Based on code by FirstBlood: https://github.com/Firstbloodio/token/blob/master/smart_contract/FirstBloodToken.sol\n */\ncontract StandardToken is ERC20, BasicToken {\n\n  mapping (address => mapping (address => uint256)) internal allowed;\n\n\n  /**\n   * @dev Transfer tokens from one address to another\n   * @param _from address The address which you want to send tokens from\n   * @param _to address The address which you want to transfer to\n   * @param _value uint256 the amount of tokens to be transferred\n   */\n  function transferFrom(address _from, address _to, uint256 _value) public returns (bool) {\n    require(_to != address(0));\n    require(_value <= balances[_from]);\n    require(_value <= allowed[_from][msg.sender]);\n\n    balances[_from] = balances[_from].sub(_value);\n    balances[_to] = balances[_to].add(_value);\n    allowed[_from][msg.sender] = allowed[_from][msg.sender].sub(_value);\n    Transfer(_from, _to, _value);\n    return true;\n  }\n\n  /**\n   * @dev Approve the passed address to spend the specified amount of tokens on behalf of msg.sender.\n   *\n   * Beware that changing an allowance with this method brings the risk that someone may use both the old\n   * and the new allowance by unfortunate transaction ordering. One possible solution to mitigate this\n   * race condition is to first reduce the spender's allowance to 0 and set the desired value afterwards:\n   * https://github.com/ethereum/EIPs/issues/20#issuecomment-263524729\n   * @param _spender The address which will spend the funds.\n   * @param _value The amount of tokens to be spent.\n   */\n  function approve(address _spender, uint256 _value) public returns (bool) {\n    allowed[msg.sender][_spender] = _value;\n    Approval(msg.sender, _spender, _value);\n    return true;\n  }\n\n  /**\n   * @dev Function to check the amount of tokens that an owner allowed to a spender.\n   * @param _owner address The address which owns the funds.\n   * @param _spender address The address which will spend the funds.\n   * @return A uint256 specifying the amount of tokens still available for the spender.\n   */\n  function allowance(address _owner, address _spender) public view returns (uint256) {\n    return allowed[_owner][_spender];\n  }\n\n  /**\n   * @dev Increase the amount of tokens that an owner allowed to a spender.\n   *\n   * approve should be called when allowed[_spender] == 0. To increment\n   * allowed value is better to use this function to avoid 2 calls (and wait until\n   * the first transaction is mined)\n   * From MonolithDAO Token.sol\n   * @param _spender The address which will spend the funds.\n   * @param _addedValue The amount of tokens to increase the allowance by.\n   */\n  function increaseApproval(address _spender, uint _addedValue) public returns (bool) {\n    allowed[msg.sender][_spender] = allowed[msg.sender][_spender].add(_addedValue);\n    Approval(msg.sender, _spender, allowed[msg.sender][_spender]);\n    return true;\n  }\n\n  /**\n   * @dev Decrease the amount of tokens that an owner allowed to a spender.\n   *\n   * approve should be called when allowed[_spender] == 0. To decrement\n   * allowed value is better to use this function to avoid 2 calls (and wait until\n   * the first transaction is mined)\n   * From MonolithDAO Token.sol\n   * @param _spender The address which will spend the funds.\n   * @param _subtractedValue The amount of tokens to decrease the allowance by.\n   */\n  function decreaseApproval(address _spender, uint _subtractedValue) public returns (bool) {\n    uint oldValue = allowed[msg.sender][_spender];\n    if (_subtractedValue > oldValue) {\n      allowed[msg.sender][_spender] = 0;\n    } else {\n      allowed[msg.sender][_spender] = oldValue.sub(_subtractedValue);\n    }\n    Approval(msg.sender, _spender, allowed[msg.sender][_spender]);\n    return true;\n  }\n\n}\n\n// File: node_modules/zeppelin-solidity/contracts/token/MintableToken.sol\n\n/**\n * @title Mintable token\n * @dev Simple ERC20 Token example, with mintable token creation\n * @dev Issue: * https://github.com/OpenZeppelin/zeppelin-solidity/issues/120\n * Based on code by TokenMarketNet: https://github.com/TokenMarketNet/ico/blob/master/contracts/MintableToken.sol\n */\n\ncontract MintableToken is StandardToken, Ownable {\n  event Mint(address indexed to, uint256 amount);\n  event MintFinished();\n\n  bool public mintingFinished = false;\n\n\n  modifier canMint() {\n    require(!mintingFinished);\n    _;\n  }\n\n  /**\n   * @dev Function to mint tokens\n   * @param _to The address that will receive the minted tokens.\n   * @param _amount The amount of tokens to mint.\n   * @return A boolean that indicates if the operation was successful.\n   */\n  function mint(address _to, uint256 _amount) onlyOwner canMint public returns (bool) {\n    totalSupply = totalSupply.add(_amount);\n    balances[_to] = balances[_to].add(_amount);\n    Mint(_to, _amount);\n    Transfer(address(0), _to, _amount);\n    return true;\n  }\n\n  /**\n   * @dev Function to stop minting new tokens.\n   * @return True if the operation was successful.\n   */\n  function finishMinting() onlyOwner canMint public returns (bool) {\n    mintingFinished = true;\n    MintFinished();\n    return true;\n  }\n}\n\n// File: node_modules/zeppelin-solidity/contracts/crowdsale/Crowdsale.sol\n\n/**\n * @title Crowdsale\n * @dev Crowdsale is a base contract for managing a token crowdsale.\n * Crowdsales have a start and end timestamps, where investors can make\n * token purchases and the crowdsale will assign them tokens based\n * on a token per ETH rate. Funds collected are forwarded to a wallet\n * as they arrive.\n */\ncontract Crowdsale {\n  using SafeMath for uint256;\n\n  // The token being sold\n  MintableToken public token;\n\n  // start and end timestamps where investments are allowed (both inclusive)\n  uint256 public startTime;\n  uint256 public endTime;\n\n  // address where funds are collected\n  address public wallet;\n\n  // how many token units a buyer gets per wei\n  uint256 public rate;\n\n  // amount of raised money in wei\n  uint256 public weiRaised;\n\n  /**\n   * event for token purchase logging\n   * @param purchaser who paid for the tokens\n   * @param beneficiary who got the tokens\n   * @param value weis paid for purchase\n   * @param amount amount of tokens purchased\n   */\n  event TokenPurchase(address indexed purchaser, address indexed beneficiary, uint256 value, uint256 amount);\n\n\n  function Crowdsale(uint256 _startTime, uint256 _endTime, uint256 _rate, address _wallet) public {\n    require(_startTime >= now);\n    require(_endTime >= _startTime);\n    require(_rate > 0);\n    require(_wallet != address(0));\n\n    token = createTokenContract();\n    startTime = _startTime;\n    endTime = _endTime;\n    rate = _rate;\n    wallet = _wallet;\n  }\n\n  // creates the token to be sold.\n  // override this method to have crowdsale of a specific mintable token.\n  function createTokenContract() internal returns (MintableToken) {\n    return new MintableToken();\n  }\n\n\n  // fallback function can be used to buy tokens\n  function () external payable {\n    buyTokens(msg.sender);\n  }\n\n  // low level token purchase function\n  function buyTokens(address beneficiary) public payable {\n    require(beneficiary != address(0));\n    require(validPurchase());\n\n    uint256 weiAmount = msg.value;\n\n    // calculate token amount to be created\n    uint256 tokens = weiAmount.mul(rate);\n\n    // update state\n    weiRaised = weiRaised.add(weiAmount);\n\n    token.mint(beneficiary, tokens);\n    TokenPurchase(msg.sender, beneficiary, weiAmount, tokens);\n\n    forwardFunds();\n  }\n\n  // send ether to the fund collection wallet\n  // override to create custom fund forwarding mechanisms\n  function forwardFunds() internal {\n    wallet.transfer(msg.value);\n  }\n\n  // @return true if the transaction can buy tokens\n  function validPurchase() internal view returns (bool) {\n    bool withinPeriod = now >= startTime && now <= endTime;\n    bool nonZeroPurchase = msg.value != 0;\n    return withinPeriod && nonZeroPurchase;\n  }\n\n  // @return true if crowdsale event has ended\n  function hasEnded() public view returns (bool) {\n    return now > endTime;\n  }\n\n\n}\n\n// File: node_modules/zeppelin-solidity/contracts/crowdsale/CappedCrowdsale.sol\n\n/**\n * @title CappedCrowdsale\n * @dev Extension of Crowdsale with a max amount of funds raised\n */\ncontract CappedCrowdsale is Crowdsale {\n  using SafeMath for uint256;\n\n  uint256 public cap;\n\n  function CappedCrowdsale(uint256 _cap) public {\n    require(_cap > 0);\n    cap = _cap;\n  }\n\n  // overriding Crowdsale#validPurchase to add extra cap logic\n  // @return true if investors can buy at the moment\n  function validPurchase() internal view returns (bool) {\n    bool withinCap = weiRaised.add(msg.value) <= cap;\n    return super.validPurchase() && withinCap;\n  }\n\n  // overriding Crowdsale#hasEnded to add cap logic\n  // @return true if crowdsale event has ended\n  function hasEnded() public view returns (bool) {\n    bool capReached = weiRaised >= cap;\n    return super.hasEnded() || capReached;\n  }\n\n}\n\n// File: node_modules/zeppelin-solidity/contracts/crowdsale/FinalizableCrowdsale.sol\n\n/**\n * @title FinalizableCrowdsale\n * @dev Extension of Crowdsale where an owner can do extra work\n * after finishing.\n */\ncontract FinalizableCrowdsale is Crowdsale, Ownable {\n  using SafeMath for uint256;\n\n  bool public isFinalized = false;\n\n  event Finalized();\n\n  /**\n   * @dev Must be called after crowdsale ends, to do some extra finalization\n   * work. Calls the contract's finalization function.\n   */\n  function finalize() onlyOwner public {\n    require(!isFinalized);\n    require(hasEnded());\n\n    finalization();\n    Finalized();\n\n    isFinalized = true;\n  }\n\n  /**\n   * @dev Can be overridden to add finalization logic. The overriding function\n   * should call super.finalization() to ensure the chain of finalization is\n   * executed entirely.\n   */\n  function finalization() internal {\n  }\n}\n\n// File: node_modules/zeppelin-solidity/contracts/crowdsale/RefundVault.sol\n\n/**\n * @title RefundVault\n * @dev This contract is used for storing funds while a crowdsale\n * is in progress. Supports refunding the money if crowdsale fails,\n * and forwarding it if crowdsale is successful.\n */\ncontract RefundVault is Ownable {\n  using SafeMath for uint256;\n\n  enum State { Active, Refunding, Closed }\n\n  mapping (address => uint256) public deposited;\n  address public wallet;\n  State public state;\n\n  event Closed();\n  event RefundsEnabled();\n  event Refunded(address indexed beneficiary, uint256 weiAmount);\n\n  function RefundVault(address _wallet) public {\n    require(_wallet != address(0));\n    wallet = _wallet;\n    state = State.Active;\n  }\n\n  function deposit(address investor) onlyOwner public payable {\n    require(state == State.Active);\n    deposited[investor] = deposited[investor].add(msg.value);\n  }\n\n  function close() onlyOwner public {\n    require(state == State.Active);\n    state = State.Closed;\n    Closed();\n    wallet.transfer(this.balance);\n  }\n\n  function enableRefunds() onlyOwner public {\n    require(state == State.Active);\n    state = State.Refunding;\n    RefundsEnabled();\n  }\n\n  function refund(address investor) public {\n    require(state == State.Refunding);\n    uint256 depositedValue = deposited[investor];\n    deposited[investor] = 0;\n    investor.transfer(depositedValue);\n    Refunded(investor, depositedValue);\n  }\n}\n\n// File: node_modules/zeppelin-solidity/contracts/crowdsale/RefundableCrowdsale.sol\n\n/**\n * @title RefundableCrowdsale\n * @dev Extension of Crowdsale contract that adds a funding goal, and\n * the possibility of users getting a refund if goal is not met.\n * Uses a RefundVault as the crowdsale's vault.\n */\ncontract RefundableCrowdsale is FinalizableCrowdsale {\n  using SafeMath for uint256;\n\n  // minimum amount of funds to be raised in weis\n  uint256 public goal;\n\n  // refund vault used to hold funds while crowdsale is running\n  RefundVault public vault;\n\n  function RefundableCrowdsale(uint256 _goal) public {\n    require(_goal > 0);\n    vault = new RefundVault(wallet);\n    goal = _goal;\n  }\n\n  // We're overriding the fund forwarding from Crowdsale.\n  // In addition to sending the funds, we want to call\n  // the RefundVault deposit function\n  function forwardFunds() internal {\n    vault.deposit.value(msg.value)(msg.sender);\n  }\n\n  // if crowdsale is unsuccessful, investors can claim refunds here\n  function claimRefund() public {\n    require(isFinalized);\n    require(!goalReached());\n\n    vault.refund(msg.sender);\n  }\n\n  // vault finalization task, called when owner calls finalize()\n  function finalization() internal {\n    if (goalReached()) {\n      vault.close();\n    } else {\n      vault.enableRefunds();\n    }\n\n    super.finalization();\n  }\n\n  function goalReached() public view returns (bool) {\n    return weiRaised >= goal;\n  }\n\n}\n\n// File: contracts/CustomDealToken.sol\n\n/**\n * @title CustomDealToken\n * @author Aleksandar Djordjevic\n * @dev Custom Deal Mintable Token is a base contract for managing a token contract\n */\ncontract CustomDealToken is MintableToken {\n\n    // Name of the token\n    string public constant name = 'Custom Deal Token';\n\n    // Symbol of the token\n    string public constant symbol = 'CDL';\n\n    // Number of decimal places of the token\n    uint256 public constant decimals = 18;\n}\n\n// File: contracts/CustomDealICO.sol\n\n/**\n * @title CustomDealICO\n * @author Aleksandar Djordjevic\n * @dev Crowdsale is a base contract for managing a token crowdsale\n * Crowdsales have a start and end timestamps, where investors can make\n * token purchases and the crowdsale will assign them CDL tokens based\n * on a CDL token per ETH rate. Funds collected are forwarded to a wallet\n * as they arrive\n */\ncontract CustomDealICO is CappedCrowdsale, RefundableCrowdsale {\n\n    // ICO Stages\n    // ============\n    enum CrowdsaleStage { PreICOFirst, PreICOSecond, ICOFirst, ICOSecond }\n    CrowdsaleStage public stage = CrowdsaleStage.PreICOFirst; // By default it's Pre ICO First\n    // =============\n\n    // Token Distribution\n    // =============================\n    uint256 public maxTokens = 400000000000000000000000000; // There will be total 400 000 000 Custom Deal Tokens\n    uint256 public tokensForEcosystem = 120000000000000000000000000; // 120 000 000 CDL will be reserved for ecosystem\n    uint256 public totalTokensForSale = 280000000000000000000000000; // 280 000 000 CDL will be sold in Crowdsale\n    uint256 public totalTokensForSaleDuringPreICO = 100000000000000000000000000; // 100 000 000 CDL will be reserved for PreICO Crowdsale\n    // ==============================\n\n    // Amount raised in PreICO\n    // ==================\n    uint256 public totalWeiRaisedDuringPreICO;\n    // ===================\n\n    // Events\n    event EthTransferred(string text);\n    event EthRefunded(string text);\n\n    // Constructor\n    // ============\n    function CustomDealICO(uint256 _startTime, uint256 _endTime, uint256 _rate, address _wallet, uint256 _goal, uint256 _cap) CappedCrowdsale(_cap) FinalizableCrowdsale() RefundableCrowdsale(_goal) Crowdsale(_startTime, _endTime, _rate, _wallet) public {\n        require(_goal <= _cap);\n    }\n    // =============\n\n    // Token Deployment\n    // =================\n    function createTokenContract() internal returns (MintableToken) {\n        return new CustomDealToken(); // Deploys the ERC20 token. Automatically called when crowdsale contract is deployed\n    }\n    // ==================\n\n    // Crowdsale Stage Management\n    // =========================================================\n\n    // Change Crowdsale Stage. Available Options: PreICO, ICO\n    function setCrowdsaleStage(uint value) public onlyOwner {\n\n        CrowdsaleStage _stage;\n\n        if (uint(CrowdsaleStage.PreICOFirst) == value) {\n            _stage = CrowdsaleStage.PreICOFirst;\n        } else if (uint(CrowdsaleStage.PreICOSecond) == value) {\n            _stage = CrowdsaleStage.PreICOSecond;\n        } else if (uint(CrowdsaleStage.ICOFirst) == value) {\n            _stage = CrowdsaleStage.ICOFirst;\n        } else if (uint(CrowdsaleStage.ICOSecond) == value) {\n            _stage = CrowdsaleStage.ICOSecond;\n        }\n\n        stage = _stage;\n\n        if (stage == CrowdsaleStage.PreICOFirst) {\n            setCurrentRate(43750);\n        } else if (stage == CrowdsaleStage.PreICOSecond) {\n            setCurrentRate(38500);\n        } else if (stage == CrowdsaleStage.ICOFirst) {\n            setCurrentRate(17500);\n        } else if (stage == CrowdsaleStage.ICOSecond) {\n            setCurrentRate(11666);\n        }\n    }\n\n    // Change the current rate\n    function setCurrentRate(uint256 _rate) private {\n        rate = _rate;\n    }\n\n    // ================ Stage Management Over =====================\n\n    // Token Purchase\n    // =========================\n    function () external payable {\n        uint256 tokensThatWillBeMintedAfterPurchase = msg.value.mul(rate);\n\n        if ((stage == CrowdsaleStage.PreICOFirst) && (token.totalSupply() + tokensThatWillBeMintedAfterPurchase > totalTokensForSaleDuringPreICO)) {\n            msg.sender.transfer(msg.value);\n            // Refund them\n            EthRefunded(\"PreICOFirst Limit Hit\");\n            return;\n        }\n\n        if ((stage == CrowdsaleStage.PreICOSecond) && (token.totalSupply() + tokensThatWillBeMintedAfterPurchase > totalTokensForSaleDuringPreICO)) {\n            msg.sender.transfer(msg.value); // Refund them\n            EthRefunded(\"PreICOSecond Limit Hit\");\n            return;\n        }\n\n        buyTokens(msg.sender);\n\n        if (stage == CrowdsaleStage.PreICOFirst) {\n            totalWeiRaisedDuringPreICO = totalWeiRaisedDuringPreICO.add(msg.value);\n        }\n\n        if (stage == CrowdsaleStage.PreICOSecond) {\n            totalWeiRaisedDuringPreICO = totalWeiRaisedDuringPreICO.add(msg.value);\n        }\n    }\n\n    function forwardFunds() internal {\n        if (stage == CrowdsaleStage.PreICOFirst || stage == CrowdsaleStage.PreICOSecond) {\n            wallet.transfer(msg.value);\n            EthTransferred(\"forwarding funds to wallet\");\n        } else if (stage == CrowdsaleStage.ICOFirst || stage == CrowdsaleStage.ICOSecond) {\n            EthTransferred(\"forwarding funds to refundable vault\");\n            super.forwardFunds();\n        }\n    }\n    // ===========================\n\n    // Finish: Mint Extra Tokens as needed before finalizing the Crowdsale.\n    // ====================================================================\n\n    function finish(address _ecosystemFund) public onlyOwner {\n\n        require(!isFinalized);\n        uint256 alreadyMinted = token.totalSupply();\n        require(alreadyMinted < maxTokens);\n\n        uint256 unsoldTokens = totalTokensForSale - alreadyMinted;\n        if (unsoldTokens > 0) {\n            tokensForEcosystem = tokensForEcosystem + unsoldTokens;\n        }\n\n        token.mint(_ecosystemFund,tokensForEcosystem);\n        finalize();\n    }\n    // ===============================\n}\n",
  "sourcePath": "/Users/elly/custom-deal-ico-smart-contracts/contracts/CustomDealICO_flat.sol",
  "compiler": {
    "name": "solc",
    "version": "0.4.24+commit.e67f0147.Emscripten.clang"
  },
  "schemaVersion": "2.0.0",
  "updatedAt": "2018-06-04T09:39:33.862Z"
}