{
  "contractName": "CustomDealICO",
  "abi": [
    {
      "constant": true,
      "inputs": [],
      "name": "rate",
      "outputs": [
        {
          "name": "",
          "type": "uint256"
        }
      ],
      "payable": false,
      "stateMutability": "view",
      "type": "function"
    },
    {
      "constant": true,
      "inputs": [],
      "name": "endTime",
      "outputs": [
        {
          "name": "",
          "type": "uint256"
        }
      ],
      "payable": false,
      "stateMutability": "view",
      "type": "function"
    },
    {
      "constant": true,
      "inputs": [],
      "name": "cap",
      "outputs": [
        {
          "name": "",
          "type": "uint256"
        }
      ],
      "payable": false,
      "stateMutability": "view",
      "type": "function"
    },
    {
      "constant": true,
      "inputs": [],
      "name": "goal",
      "outputs": [
        {
          "name": "",
          "type": "uint256"
        }
      ],
      "payable": false,
      "stateMutability": "view",
      "type": "function"
    },
    {
      "constant": true,
      "inputs": [],
      "name": "weiRaised",
      "outputs": [
        {
          "name": "",
          "type": "uint256"
        }
      ],
      "payable": false,
      "stateMutability": "view",
      "type": "function"
    },
    {
      "constant": false,
      "inputs": [],
      "name": "finalize",
      "outputs": [],
      "payable": false,
      "stateMutability": "nonpayable",
      "type": "function"
    },
    {
      "constant": true,
      "inputs": [],
      "name": "tokensForEcosystem",
      "outputs": [
        {
          "name": "",
          "type": "uint256"
        }
      ],
      "payable": false,
      "stateMutability": "view",
      "type": "function"
    },
    {
      "constant": true,
      "inputs": [],
      "name": "wallet",
      "outputs": [
        {
          "name": "",
          "type": "address"
        }
      ],
      "payable": false,
      "stateMutability": "view",
      "type": "function"
    },
    {
      "constant": true,
      "inputs": [],
      "name": "totalTokensForSale",
      "outputs": [
        {
          "name": "",
          "type": "uint256"
        }
      ],
      "payable": false,
      "stateMutability": "view",
      "type": "function"
    },
    {
      "constant": true,
      "inputs": [],
      "name": "startTime",
      "outputs": [
        {
          "name": "",
          "type": "uint256"
        }
      ],
      "payable": false,
      "stateMutability": "view",
      "type": "function"
    },
    {
      "constant": true,
      "inputs": [],
      "name": "goalReached",
      "outputs": [
        {
          "name": "",
          "type": "bool"
        }
      ],
      "payable": false,
      "stateMutability": "view",
      "type": "function"
    },
    {
      "constant": true,
      "inputs": [],
      "name": "isFinalized",
      "outputs": [
        {
          "name": "",
          "type": "bool"
        }
      ],
      "payable": false,
      "stateMutability": "view",
      "type": "function"
    },
    {
      "constant": true,
      "inputs": [],
      "name": "owner",
      "outputs": [
        {
          "name": "",
          "type": "address"
        }
      ],
      "payable": false,
      "stateMutability": "view",
      "type": "function"
    },
    {
      "constant": true,
      "inputs": [],
      "name": "totalWeiRaisedDuringPreICO",
      "outputs": [
        {
          "name": "",
          "type": "uint256"
        }
      ],
      "payable": false,
      "stateMutability": "view",
      "type": "function"
    },
    {
      "constant": false,
      "inputs": [],
      "name": "claimRefund",
      "outputs": [],
      "payable": false,
      "stateMutability": "nonpayable",
      "type": "function"
    },
    {
      "constant": true,
      "inputs": [],
      "name": "totalTokensForSaleDuringPreICO",
      "outputs": [
        {
          "name": "",
          "type": "uint256"
        }
      ],
      "payable": false,
      "stateMutability": "view",
      "type": "function"
    },
    {
      "constant": true,
      "inputs": [],
      "name": "stage",
      "outputs": [
        {
          "name": "",
          "type": "uint8"
        }
      ],
      "payable": false,
      "stateMutability": "view",
      "type": "function"
    },
    {
      "constant": true,
      "inputs": [],
      "name": "maxTokens",
      "outputs": [
        {
          "name": "",
          "type": "uint256"
        }
      ],
      "payable": false,
      "stateMutability": "view",
      "type": "function"
    },
    {
      "constant": false,
      "inputs": [
        {
          "name": "beneficiary",
          "type": "address"
        }
      ],
      "name": "buyTokens",
      "outputs": [],
      "payable": true,
      "stateMutability": "payable",
      "type": "function"
    },
    {
      "constant": true,
      "inputs": [],
      "name": "hasEnded",
      "outputs": [
        {
          "name": "",
          "type": "bool"
        }
      ],
      "payable": false,
      "stateMutability": "view",
      "type": "function"
    },
    {
      "constant": false,
      "inputs": [
        {
          "name": "newOwner",
          "type": "address"
        }
      ],
      "name": "transferOwnership",
      "outputs": [],
      "payable": false,
      "stateMutability": "nonpayable",
      "type": "function"
    },
    {
      "constant": true,
      "inputs": [],
      "name": "vault",
      "outputs": [
        {
          "name": "",
          "type": "address"
        }
      ],
      "payable": false,
      "stateMutability": "view",
      "type": "function"
    },
    {
      "constant": true,
      "inputs": [],
      "name": "token",
      "outputs": [
        {
          "name": "",
          "type": "address"
        }
      ],
      "payable": false,
      "stateMutability": "view",
      "type": "function"
    },
    {
      "inputs": [
        {
          "name": "_startTime",
          "type": "uint256"
        },
        {
          "name": "_endTime",
          "type": "uint256"
        },
        {
          "name": "_rate",
          "type": "uint256"
        },
        {
          "name": "_wallet",
          "type": "address"
        },
        {
          "name": "_goal",
          "type": "uint256"
        },
        {
          "name": "_cap",
          "type": "uint256"
        }
      ],
      "payable": false,
      "stateMutability": "nonpayable",
      "type": "constructor"
    },
    {
      "payable": true,
      "stateMutability": "payable",
      "type": "fallback"
    },
    {
      "anonymous": false,
      "inputs": [
        {
          "indexed": false,
          "name": "text",
          "type": "string"
        }
      ],
      "name": "EthTransferred",
      "type": "event"
    },
    {
      "anonymous": false,
      "inputs": [
        {
          "indexed": false,
          "name": "text",
          "type": "string"
        }
      ],
      "name": "EthRefunded",
      "type": "event"
    },
    {
      "anonymous": false,
      "inputs": [],
      "name": "Finalized",
      "type": "event"
    },
    {
      "anonymous": false,
      "inputs": [
        {
          "indexed": true,
          "name": "previousOwner",
          "type": "address"
        },
        {
          "indexed": true,
          "name": "newOwner",
          "type": "address"
        }
      ],
      "name": "OwnershipTransferred",
      "type": "event"
    },
    {
      "anonymous": false,
      "inputs": [
        {
          "indexed": true,
          "name": "purchaser",
          "type": "address"
        },
        {
          "indexed": true,
          "name": "beneficiary",
          "type": "address"
        },
        {
          "indexed": false,
          "name": "value",
          "type": "uint256"
        },
        {
          "indexed": false,
          "name": "amount",
          "type": "uint256"
        }
      ],
      "name": "TokenPurchase",
      "type": "event"
    },
    {
      "constant": false,
      "inputs": [
        {
          "name": "value",
          "type": "uint256"
        }
      ],
      "name": "setCrowdsaleStage",
      "outputs": [],
      "payable": false,
      "stateMutability": "nonpayable",
      "type": "function"
    },
    {
      "constant": false,
      "inputs": [
        {
          "name": "_ecosystemFund",
          "type": "address"
        }
      ],
      "name": "finish",
      "outputs": [],
      "payable": false,
      "stateMutability": "nonpayable",
      "type": "function"
    }
  ],
  "bytecode": "0x60806040526000600760146101000a81548160ff0219169083151502179055506000600960146101000a81548160ff021916908360038111156200003f57fe5b02179055506b014adf4b7320334b90000000600a556a6342fd08f00f6378000000600b556ae79c4e6a3023e818000000600c556a52b7d2dcc80cd2e4000000600d553480156200008e57600080fd5b5060405160c08062004184833981018060405281019080805190602001909291908051906020019092919080519060200190929190805190602001909291908051906020019092919080519060200190929190505050818187878787428410151515620000fa57600080fd5b8383101515156200010a57600080fd5b6000821115156200011a57600080fd5b600073ffffffffffffffffffffffffffffffffffffffff168173ffffffffffffffffffffffffffffffffffffffff16141515156200015757600080fd5b6200017062000357640100000000026401000000009004565b6000806101000a81548173ffffffffffffffffffffffffffffffffffffffff021916908373ffffffffffffffffffffffffffffffffffffffff16021790555083600181905550826002819055508160048190555080600360006101000a81548173ffffffffffffffffffffffffffffffffffffffff021916908373ffffffffffffffffffffffffffffffffffffffff160217905550505050506000811115156200021957600080fd5b806006819055505033600760006101000a81548173ffffffffffffffffffffffffffffffffffffffff021916908373ffffffffffffffffffffffffffffffffffffffff1602179055506000811115156200027257600080fd5b600360009054906101000a900473ffffffffffffffffffffffffffffffffffffffff166200029f62000386565b808273ffffffffffffffffffffffffffffffffffffffff1673ffffffffffffffffffffffffffffffffffffffff168152602001915050604051809103906000f080158015620002f2573d6000803e3d6000fd5b50600960006101000a81548173ffffffffffffffffffffffffffffffffffffffff021916908373ffffffffffffffffffffffffffffffffffffffff16021790555080600881905550508082111515156200034b57600080fd5b505050505050620003a8565b60006200036362000397565b604051809103906000f08015801562000380573d6000803e3d6000fd5b50905090565b604051610abd8062001e6083390190565b604051611867806200291d83390190565b611aa880620003b86000396000f300608060405260043610610149576000357c0100000000000000000000000000000000000000000000000000000000900463ffffffff1680632c4e722e14610563578063305ec69e1461058e5780633197cbb6146105d1578063355274ea146105fc57806340193883146106275780634042b66f146106525780634bb278f31461067d5780634c4cfc3b14610694578063521eb273146106bf57806360219c7b1461071657806378e97925146107415780637d3d65221461076c5780638d4e40831461079b5780638da5cb5b146107ca578063a997f82f14610821578063abe8014a1461084e578063b5545a3c14610879578063c02aaea114610890578063c040e6b8146108bb578063e8315742146108f4578063ec8ac4d81461091f578063ecb70fb714610955578063f2fde38b14610984578063fbfa77cf146109c7578063fc0c546a14610a1e575b600061016060045434610a7590919063ffffffff16565b90506000600381111561016f57fe5b600960149054906101000a900460ff16600381111561018a57fe5b1480156102595750600d54816000809054906101000a900473ffffffffffffffffffffffffffffffffffffffff1673ffffffffffffffffffffffffffffffffffffffff166318160ddd6040518163ffffffff167c0100000000000000000000000000000000000000000000000000000000028152600401602060405180830381600087803b15801561021b57600080fd5b505af115801561022f573d6000803e3d6000fd5b505050506040513d602081101561024557600080fd5b810190808051906020019092919050505001115b15610312573373ffffffffffffffffffffffffffffffffffffffff166108fc349081150290604051600060405180830381858888f193505050501580156102a4573d6000803e3d6000fd5b507fc0283f9c45b2118c7ec26e4f4bf06fc486f94a186fb38dc5dff372d9cb709d376040518080602001828103825260158152602001807f50726549434f4669727374204c696d697420486974000000000000000000000081525060200191505060405180910390a1610560565b6001600381111561031f57fe5b600960149054906101000a900460ff16600381111561033a57fe5b1480156104095750600d54816000809054906101000a900473ffffffffffffffffffffffffffffffffffffffff1673ffffffffffffffffffffffffffffffffffffffff166318160ddd6040518163ffffffff167c0100000000000000000000000000000000000000000000000000000000028152600401602060405180830381600087803b1580156103cb57600080fd5b505af11580156103df573d6000803e3d6000fd5b505050506040513d60208110156103f557600080fd5b810190808051906020019092919050505001115b156104c2573373ffffffffffffffffffffffffffffffffffffffff166108fc349081150290604051600060405180830381858888f19350505050158015610454573d6000803e3d6000fd5b507fc0283f9c45b2118c7ec26e4f4bf06fc486f94a186fb38dc5dff372d9cb709d376040518080602001828103825260168152602001807f50726549434f5365636f6e64204c696d6974204869740000000000000000000081525060200191505060405180910390a1610560565b6104cb33610ab0565b600060038111156104d857fe5b600960149054906101000a900460ff1660038111156104f357fe5b14156105155761050e34600e54610cb190919063ffffffff16565b600e819055505b6001600381111561052257fe5b600960149054906101000a900460ff16600381111561053d57fe5b141561055f5761055834600e54610cb190919063ffffffff16565b600e819055505b5b50005b34801561056f57600080fd5b50610578610ccf565b6040518082815260200191505060405180910390f35b34801561059a57600080fd5b506105cf600480360381019080803573ffffffffffffffffffffffffffffffffffffffff169060200190929190505050610cd5565b005b3480156105dd57600080fd5b506105e6610f4d565b6040518082815260200191505060405180910390f35b34801561060857600080fd5b50610611610f53565b6040518082815260200191505060405180910390f35b34801561063357600080fd5b5061063c610f59565b6040518082815260200191505060405180910390f35b34801561065e57600080fd5b50610667610f5f565b6040518082815260200191505060405180910390f35b34801561068957600080fd5b50610692610f65565b005b3480156106a057600080fd5b506106a9611041565b6040518082815260200191505060405180910390f35b3480156106cb57600080fd5b506106d4611047565b604051808273ffffffffffffffffffffffffffffffffffffffff1673ffffffffffffffffffffffffffffffffffffffff16815260200191505060405180910390f35b34801561072257600080fd5b5061072b61106d565b6040518082815260200191505060405180910390f35b34801561074d57600080fd5b50610756611073565b6040518082815260200191505060405180910390f35b34801561077857600080fd5b50610781611079565b604051808215151515815260200191505060405180910390f35b3480156107a757600080fd5b506107b0611088565b604051808215151515815260200191505060405180910390f35b3480156107d657600080fd5b506107df61109b565b604051808273ffffffffffffffffffffffffffffffffffffffff1673ffffffffffffffffffffffffffffffffffffffff16815260200191505060405180910390f35b34801561082d57600080fd5b5061084c600480360381019080803590602001909291905050506110c1565b005b34801561085a57600080fd5b506108636112ae565b6040518082815260200191505060405180910390f35b34801561088557600080fd5b5061088e6112b4565b005b34801561089c57600080fd5b506108a56113ba565b6040518082815260200191505060405180910390f35b3480156108c757600080fd5b506108d06113c0565b604051808260038111156108e057fe5b60ff16815260200191505060405180910390f35b34801561090057600080fd5b506109096113d3565b6040518082815260200191505060405180910390f35b610953600480360381019080803573ffffffffffffffffffffffffffffffffffffffff169060200190929190505050610ab0565b005b34801561096157600080fd5b5061096a6113d9565b604051808215151515815260200191505060405180910390f35b34801561099057600080fd5b506109c5600480360381019080803573ffffffffffffffffffffffffffffffffffffffff1690602001909291905050506113fc565b005b3480156109d357600080fd5b506109dc611554565b604051808273ffffffffffffffffffffffffffffffffffffffff1673ffffffffffffffffffffffffffffffffffffffff16815260200191505060405180910390f35b348015610a2a57600080fd5b50610a3361157a565b604051808273ffffffffffffffffffffffffffffffffffffffff1673ffffffffffffffffffffffffffffffffffffffff16815260200191505060405180910390f35b6000806000841415610a8a5760009150610aa9565b8284029050828482811515610a9b57fe5b04141515610aa557fe5b8091505b5092915050565b600080600073ffffffffffffffffffffffffffffffffffffffff168373ffffffffffffffffffffffffffffffffffffffff1614151515610aef57600080fd5b610af761159f565b1515610b0257600080fd5b349150610b1a60045483610a7590919063ffffffff16565b9050610b3182600554610cb190919063ffffffff16565b6005819055506000809054906101000a900473ffffffffffffffffffffffffffffffffffffffff1673ffffffffffffffffffffffffffffffffffffffff166340c10f1984836040518363ffffffff167c0100000000000000000000000000000000000000000000000000000000028152600401808373ffffffffffffffffffffffffffffffffffffffff1673ffffffffffffffffffffffffffffffffffffffff16815260200182815260200192505050602060405180830381600087803b158015610bfb57600080fd5b505af1158015610c0f573d6000803e3d6000fd5b505050506040513d6020811015610c2557600080fd5b8101908080519060200190929190505050508273ffffffffffffffffffffffffffffffffffffffff163373ffffffffffffffffffffffffffffffffffffffff167f623b3804fa71d67900d064613da8f94b9617215ee90799290593e1745087ad188484604051808381526020018281526020019250505060405180910390a3610cac6115d5565b505050565b6000808284019050838110151515610cc557fe5b8091505092915050565b60045481565b600080600760009054906101000a900473ffffffffffffffffffffffffffffffffffffffff1673ffffffffffffffffffffffffffffffffffffffff163373ffffffffffffffffffffffffffffffffffffffff16141515610d3457600080fd5b600760149054906101000a900460ff16151515610d5057600080fd5b6000809054906101000a900473ffffffffffffffffffffffffffffffffffffffff1673ffffffffffffffffffffffffffffffffffffffff166318160ddd6040518163ffffffff167c0100000000000000000000000000000000000000000000000000000000028152600401602060405180830381600087803b158015610dd557600080fd5b505af1158015610de9573d6000803e3d6000fd5b505050506040513d6020811015610dff57600080fd5b81019080805190602001909291905050509150600a5482101515610e2257600080fd5b81600c540390506000811115610e3e5780600b5401600b819055505b6000809054906101000a900473ffffffffffffffffffffffffffffffffffffffff1673ffffffffffffffffffffffffffffffffffffffff166340c10f1984600b546040518363ffffffff167c0100000000000000000000000000000000000000000000000000000000028152600401808373ffffffffffffffffffffffffffffffffffffffff1673ffffffffffffffffffffffffffffffffffffffff16815260200182815260200192505050602060405180830381600087803b158015610f0457600080fd5b505af1158015610f18573d6000803e3d6000fd5b505050506040513d6020811015610f2e57600080fd5b810190808051906020019092919050505050610f48610f65565b505050565b60025481565b60065481565b60085481565b60055481565b600760009054906101000a900473ffffffffffffffffffffffffffffffffffffffff1673ffffffffffffffffffffffffffffffffffffffff163373ffffffffffffffffffffffffffffffffffffffff16141515610fc157600080fd5b600760149054906101000a900460ff16151515610fdd57600080fd5b610fe56113d9565b1515610ff057600080fd5b610ff8611800565b7f6823b073d48d6e3a7d385eeb601452d680e74bb46afe3255a7d778f3a9b1768160405160405180910390a16001600760146101000a81548160ff021916908315150217905550565b600b5481565b600360009054906101000a900473ffffffffffffffffffffffffffffffffffffffff1681565b600c5481565b60015481565b60006008546005541015905090565b600760149054906101000a900460ff1681565b600760009054906101000a900473ffffffffffffffffffffffffffffffffffffffff1681565b6000600760009054906101000a900473ffffffffffffffffffffffffffffffffffffffff1673ffffffffffffffffffffffffffffffffffffffff163373ffffffffffffffffffffffffffffffffffffffff1614151561111f57600080fd5b816000600381111561112d57fe5b141561113c5760009050611191565b816001600381111561114a57fe5b14156111595760019050611190565b816002600381111561116757fe5b1415611176576002905061118f565b8160038081111561118357fe5b141561118e57600390505b5b5b5b80600960146101000a81548160ff021916908360038111156111af57fe5b0217905550600060038111156111c157fe5b600960149054906101000a900460ff1660038111156111dc57fe5b14156111f2576111ed61aae6611959565b6112aa565b600160038111156111ff57fe5b600960149054906101000a900460ff16600381111561121a57fe5b14156112305761122b619664611959565b6112a9565b6002600381111561123d57fe5b600960149054906101000a900460ff16600381111561125857fe5b141561126e5761126961445c611959565b6112a8565b60038081111561127a57fe5b600960149054906101000a900460ff16600381111561129557fe5b14156112a7576112a6612d92611959565b5b5b5b5b5050565b600e5481565b600760149054906101000a900460ff1615156112cf57600080fd5b6112d7611079565b1515156112e357600080fd5b600960009054906101000a900473ffffffffffffffffffffffffffffffffffffffff1673ffffffffffffffffffffffffffffffffffffffff1663fa89401a336040518263ffffffff167c0100000000000000000000000000000000000000000000000000000000028152600401808273ffffffffffffffffffffffffffffffffffffffff1673ffffffffffffffffffffffffffffffffffffffff168152602001915050600060405180830381600087803b1580156113a057600080fd5b505af11580156113b4573d6000803e3d6000fd5b50505050565b600d5481565b600960149054906101000a900460ff1681565b600a5481565b600080600654600554101590506113ee611963565b806113f65750805b91505090565b600760009054906101000a900473ffffffffffffffffffffffffffffffffffffffff1673ffffffffffffffffffffffffffffffffffffffff163373ffffffffffffffffffffffffffffffffffffffff1614151561145857600080fd5b600073ffffffffffffffffffffffffffffffffffffffff168173ffffffffffffffffffffffffffffffffffffffff161415151561149457600080fd5b8073ffffffffffffffffffffffffffffffffffffffff16600760009054906101000a900473ffffffffffffffffffffffffffffffffffffffff1673ffffffffffffffffffffffffffffffffffffffff167f8be0079c531659141344cd1fd0a4f28419497f9722a3daafe3b4186f6b6457e060405160405180910390a380600760006101000a81548173ffffffffffffffffffffffffffffffffffffffff021916908373ffffffffffffffffffffffffffffffffffffffff16021790555050565b600960009054906101000a900473ffffffffffffffffffffffffffffffffffffffff1681565b6000809054906101000a900473ffffffffffffffffffffffffffffffffffffffff1681565b6000806006546115ba34600554610cb190919063ffffffff16565b111590506115c661196f565b80156115cf5750805b91505090565b600060038111156115e257fe5b600960149054906101000a900460ff1660038111156115fd57fe5b148061162e57506001600381111561161157fe5b600960149054906101000a900460ff16600381111561162c57fe5b145b1561170957600360009054906101000a900473ffffffffffffffffffffffffffffffffffffffff1673ffffffffffffffffffffffffffffffffffffffff166108fc349081150290604051600060405180830381858888f1935050505015801561169b573d6000803e3d6000fd5b507f47af8c4076c54a76f613f82e4296a2c5e2167698d368157a82e62398393e345e60405180806020018281038252601a8152602001807f666f7277617264696e672066756e647320746f2077616c6c657400000000000081525060200191505060405180910390a16117fe565b6002600381111561171657fe5b600960149054906101000a900460ff16600381111561173157fe5b1480611761575060038081111561174457fe5b600960149054906101000a900460ff16600381111561175f57fe5b145b156117fd577f47af8c4076c54a76f613f82e4296a2c5e2167698d368157a82e62398393e345e6040518080602001828103825260248152602001807f666f7277617264696e672066756e647320746f20726566756e6461626c65207681526020017f61756c740000000000000000000000000000000000000000000000000000000081525060400191505060405180910390a16117fc6119a2565b5b5b565b611808611079565b156118b057600960009054906101000a900473ffffffffffffffffffffffffffffffffffffffff1673ffffffffffffffffffffffffffffffffffffffff166343d726d66040518163ffffffff167c0100000000000000000000000000000000000000000000000000000000028152600401600060405180830381600087803b15801561189357600080fd5b505af11580156118a7573d6000803e3d6000fd5b5050505061194f565b600960009054906101000a900473ffffffffffffffffffffffffffffffffffffffff1673ffffffffffffffffffffffffffffffffffffffff16638c52dc416040518163ffffffff167c0100000000000000000000000000000000000000000000000000000000028152600401600060405180830381600087803b15801561193657600080fd5b505af115801561194a573d6000803e3d6000fd5b505050505b611957611a7a565b565b8060048190555050565b60006002544211905090565b6000806000600154421015801561198857506002544211155b91506000341415905081801561199b5750805b9250505090565b600960009054906101000a900473ffffffffffffffffffffffffffffffffffffffff1673ffffffffffffffffffffffffffffffffffffffff1663f340fa0134336040518363ffffffff167c0100000000000000000000000000000000000000000000000000000000028152600401808273ffffffffffffffffffffffffffffffffffffffff1673ffffffffffffffffffffffffffffffffffffffff1681526020019150506000604051808303818588803b158015611a5f57600080fd5b505af1158015611a73573d6000803e3d6000fd5b5050505050565b5600a165627a7a72305820d208bd56931a9c20e2232757e4bb8874194f17b0732ffbd279ea3e70f276d1a60029608060405234801561001057600080fd5b50604051602080610abd83398101806040528101908080519060200190929190505050336000806101000a81548173ffffffffffffffffffffffffffffffffffffffff021916908373ffffffffffffffffffffffffffffffffffffffff160217905550600073ffffffffffffffffffffffffffffffffffffffff168173ffffffffffffffffffffffffffffffffffffffff16141515156100af57600080fd5b80600260006101000a81548173ffffffffffffffffffffffffffffffffffffffff021916908373ffffffffffffffffffffffffffffffffffffffff1602179055506000600260146101000a81548160ff0219169083600281111561010f57fe5b021790555050610999806101246000396000f300608060405260043610610099576000357c0100000000000000000000000000000000000000000000000000000000900463ffffffff16806343d726d61461009e578063521eb273146100b55780638c52dc411461010c5780638da5cb5b14610123578063c19d93fb1461017a578063cb13cddb146101b3578063f2fde38b1461020a578063f340fa011461024d578063fa89401a14610283575b600080fd5b3480156100aa57600080fd5b506100b36102c6565b005b3480156100c157600080fd5b506100ca610426565b604051808273ffffffffffffffffffffffffffffffffffffffff1673ffffffffffffffffffffffffffffffffffffffff16815260200191505060405180910390f35b34801561011857600080fd5b5061012161044c565b005b34801561012f57600080fd5b5061013861052d565b604051808273ffffffffffffffffffffffffffffffffffffffff1673ffffffffffffffffffffffffffffffffffffffff16815260200191505060405180910390f35b34801561018657600080fd5b5061018f610552565b6040518082600281111561019f57fe5b60ff16815260200191505060405180910390f35b3480156101bf57600080fd5b506101f4600480360381019080803573ffffffffffffffffffffffffffffffffffffffff169060200190929190505050610565565b6040518082815260200191505060405180910390f35b34801561021657600080fd5b5061024b600480360381019080803573ffffffffffffffffffffffffffffffffffffffff16906020019092919050505061057d565b005b610281600480360381019080803573ffffffffffffffffffffffffffffffffffffffff1690602001909291905050506106d2565b005b34801561028f57600080fd5b506102c4600480360381019080803573ffffffffffffffffffffffffffffffffffffffff1690602001909291905050506107f9565b005b6000809054906101000a900473ffffffffffffffffffffffffffffffffffffffff1673ffffffffffffffffffffffffffffffffffffffff163373ffffffffffffffffffffffffffffffffffffffff1614151561032157600080fd5b6000600281111561032e57fe5b600260149054906101000a900460ff16600281111561034957fe5b14151561035557600080fd5b60028060146101000a81548160ff0219169083600281111561037357fe5b02179055507f1cdde67b72a90f19919ac732a437ac2f7a10fc128d28c2a6e525d89ce5cd9d3a60405160405180910390a1600260009054906101000a900473ffffffffffffffffffffffffffffffffffffffff1673ffffffffffffffffffffffffffffffffffffffff166108fc3073ffffffffffffffffffffffffffffffffffffffff16319081150290604051600060405180830381858888f19350505050158015610423573d6000803e3d6000fd5b50565b600260009054906101000a900473ffffffffffffffffffffffffffffffffffffffff1681565b6000809054906101000a900473ffffffffffffffffffffffffffffffffffffffff1673ffffffffffffffffffffffffffffffffffffffff163373ffffffffffffffffffffffffffffffffffffffff161415156104a757600080fd5b600060028111156104b457fe5b600260149054906101000a900460ff1660028111156104cf57fe5b1415156104db57600080fd5b6001600260146101000a81548160ff021916908360028111156104fa57fe5b02179055507f599d8e5a83cffb867d051598c4d70e805d59802d8081c1c7d6dffc5b6aca2b8960405160405180910390a1565b6000809054906101000a900473ffffffffffffffffffffffffffffffffffffffff1681565b600260149054906101000a900460ff1681565b60016020528060005260406000206000915090505481565b6000809054906101000a900473ffffffffffffffffffffffffffffffffffffffff1673ffffffffffffffffffffffffffffffffffffffff163373ffffffffffffffffffffffffffffffffffffffff161415156105d857600080fd5b600073ffffffffffffffffffffffffffffffffffffffff168173ffffffffffffffffffffffffffffffffffffffff161415151561061457600080fd5b8073ffffffffffffffffffffffffffffffffffffffff166000809054906101000a900473ffffffffffffffffffffffffffffffffffffffff1673ffffffffffffffffffffffffffffffffffffffff167f8be0079c531659141344cd1fd0a4f28419497f9722a3daafe3b4186f6b6457e060405160405180910390a3806000806101000a81548173ffffffffffffffffffffffffffffffffffffffff021916908373ffffffffffffffffffffffffffffffffffffffff16021790555050565b6000809054906101000a900473ffffffffffffffffffffffffffffffffffffffff1673ffffffffffffffffffffffffffffffffffffffff163373ffffffffffffffffffffffffffffffffffffffff1614151561072d57600080fd5b6000600281111561073a57fe5b600260149054906101000a900460ff16600281111561075557fe5b14151561076157600080fd5b6107b334600160008473ffffffffffffffffffffffffffffffffffffffff1673ffffffffffffffffffffffffffffffffffffffff1681526020019081526020016000205461094f90919063ffffffff16565b600160008373ffffffffffffffffffffffffffffffffffffffff1673ffffffffffffffffffffffffffffffffffffffff1681526020019081526020016000208190555050565b60006001600281111561080857fe5b600260149054906101000a900460ff16600281111561082357fe5b14151561082f57600080fd5b600160008373ffffffffffffffffffffffffffffffffffffffff1673ffffffffffffffffffffffffffffffffffffffff1681526020019081526020016000205490506000600160008473ffffffffffffffffffffffffffffffffffffffff1673ffffffffffffffffffffffffffffffffffffffff168152602001908152602001600020819055508173ffffffffffffffffffffffffffffffffffffffff166108fc829081150290604051600060405180830381858888f193505050501580156108fc573d6000803e3d6000fd5b508173ffffffffffffffffffffffffffffffffffffffff167fd7dee2702d63ad89917b6a4da9981c90c4d24f8c2bdfd64c604ecae57d8d0651826040518082815260200191505060405180910390a25050565b600080828401905083811015151561096357fe5b80915050929150505600a165627a7a72305820a21cbcc4fed71db56d5f74ad0b055c6772e17591e13fdcabeee19d77dac965cd002960806040526000600360146101000a81548160ff02191690831515021790555033600360006101000a81548173ffffffffffffffffffffffffffffffffffffffff021916908373ffffffffffffffffffffffffffffffffffffffff1602179055506117f88061006f6000396000f3006080604052600436106100e6576000357c0100000000000000000000000000000000000000000000000000000000900463ffffffff16806305d2035b146100eb57806306fdde031461011a578063095ea7b3146101aa57806318160ddd1461020f57806323b872dd1461023a578063313ce567146102bf57806340c10f19146102ea578063661884631461034f57806370a08231146103b45780637d64bcb41461040b5780638da5cb5b1461043a57806395d89b4114610491578063a9059cbb14610521578063d73dd62314610586578063dd62ed3e146105eb578063f2fde38b14610662575b600080fd5b3480156100f757600080fd5b506101006106a5565b604051808215151515815260200191505060405180910390f35b34801561012657600080fd5b5061012f6106b8565b6040518080602001828103825283818151815260200191508051906020019080838360005b8381101561016f578082015181840152602081019050610154565b50505050905090810190601f16801561019c5780820380516001836020036101000a031916815260200191505b509250505060405180910390f35b3480156101b657600080fd5b506101f5600480360381019080803573ffffffffffffffffffffffffffffffffffffffff169060200190929190803590602001909291905050506106f1565b604051808215151515815260200191505060405180910390f35b34801561021b57600080fd5b506102246107e3565b6040518082815260200191505060405180910390f35b34801561024657600080fd5b506102a5600480360381019080803573ffffffffffffffffffffffffffffffffffffffff169060200190929190803573ffffffffffffffffffffffffffffffffffffffff169060200190929190803590602001909291905050506107e9565b604051808215151515815260200191505060405180910390f35b3480156102cb57600080fd5b506102d4610ba8565b6040518082815260200191505060405180910390f35b3480156102f657600080fd5b50610335600480360381019080803573ffffffffffffffffffffffffffffffffffffffff16906020019092919080359060200190929190505050610bad565b604051808215151515815260200191505060405180910390f35b34801561035b57600080fd5b5061039a600480360381019080803573ffffffffffffffffffffffffffffffffffffffff16906020019092919080359060200190929190505050610d95565b604051808215151515815260200191505060405180910390f35b3480156103c057600080fd5b506103f5600480360381019080803573ffffffffffffffffffffffffffffffffffffffff169060200190929190505050611026565b6040518082815260200191505060405180910390f35b34801561041757600080fd5b5061042061106f565b604051808215151515815260200191505060405180910390f35b34801561044657600080fd5b5061044f611137565b604051808273ffffffffffffffffffffffffffffffffffffffff1673ffffffffffffffffffffffffffffffffffffffff16815260200191505060405180910390f35b34801561049d57600080fd5b506104a661115d565b6040518080602001828103825283818151815260200191508051906020019080838360005b838110156104e65780820151818401526020810190506104cb565b50505050905090810190601f1680156105135780820380516001836020036101000a031916815260200191505b509250505060405180910390f35b34801561052d57600080fd5b5061056c600480360381019080803573ffffffffffffffffffffffffffffffffffffffff16906020019092919080359060200190929190505050611196565b604051808215151515815260200191505060405180910390f35b34801561059257600080fd5b506105d1600480360381019080803573ffffffffffffffffffffffffffffffffffffffff169060200190929190803590602001909291905050506113ba565b604051808215151515815260200191505060405180910390f35b3480156105f757600080fd5b5061064c600480360381019080803573ffffffffffffffffffffffffffffffffffffffff169060200190929190803573ffffffffffffffffffffffffffffffffffffffff1690602001909291905050506115b6565b6040518082815260200191505060405180910390f35b34801561066e57600080fd5b506106a3600480360381019080803573ffffffffffffffffffffffffffffffffffffffff16906020019092919050505061163d565b005b600360149054906101000a900460ff1681565b6040805190810160405280601181526020017f437573746f6d204465616c20546f6b656e00000000000000000000000000000081525081565b600081600260003373ffffffffffffffffffffffffffffffffffffffff1673ffffffffffffffffffffffffffffffffffffffff16815260200190815260200160002060008573ffffffffffffffffffffffffffffffffffffffff1673ffffffffffffffffffffffffffffffffffffffff168152602001908152602001600020819055508273ffffffffffffffffffffffffffffffffffffffff163373ffffffffffffffffffffffffffffffffffffffff167f8c5be1e5ebec7d5bd14f71427d1e84f3dd0314c0f7b2291e5b200ac8c7c3b925846040518082815260200191505060405180910390a36001905092915050565b60005481565b60008073ffffffffffffffffffffffffffffffffffffffff168373ffffffffffffffffffffffffffffffffffffffff161415151561082657600080fd5b600160008573ffffffffffffffffffffffffffffffffffffffff1673ffffffffffffffffffffffffffffffffffffffff16815260200190815260200160002054821115151561087457600080fd5b600260008573ffffffffffffffffffffffffffffffffffffffff1673ffffffffffffffffffffffffffffffffffffffff16815260200190815260200160002060003373ffffffffffffffffffffffffffffffffffffffff1673ffffffffffffffffffffffffffffffffffffffff1681526020019081526020016000205482111515156108ff57600080fd5b61095182600160008773ffffffffffffffffffffffffffffffffffffffff1673ffffffffffffffffffffffffffffffffffffffff1681526020019081526020016000205461179590919063ffffffff16565b600160008673ffffffffffffffffffffffffffffffffffffffff1673ffffffffffffffffffffffffffffffffffffffff168152602001908152602001600020819055506109e682600160008673ffffffffffffffffffffffffffffffffffffffff1673ffffffffffffffffffffffffffffffffffffffff168152602001908152602001600020546117ae90919063ffffffff16565b600160008573ffffffffffffffffffffffffffffffffffffffff1673ffffffffffffffffffffffffffffffffffffffff16815260200190815260200160002081905550610ab882600260008773ffffffffffffffffffffffffffffffffffffffff1673ffffffffffffffffffffffffffffffffffffffff16815260200190815260200160002060003373ffffffffffffffffffffffffffffffffffffffff1673ffffffffffffffffffffffffffffffffffffffff1681526020019081526020016000205461179590919063ffffffff16565b600260008673ffffffffffffffffffffffffffffffffffffffff1673ffffffffffffffffffffffffffffffffffffffff16815260200190815260200160002060003373ffffffffffffffffffffffffffffffffffffffff1673ffffffffffffffffffffffffffffffffffffffff168152602001908152602001600020819055508273ffffffffffffffffffffffffffffffffffffffff168473ffffffffffffffffffffffffffffffffffffffff167fddf252ad1be2c89b69c2b068fc378daa952ba7f163c4a11628f55a4df523b3ef846040518082815260200191505060405180910390a3600190509392505050565b601281565b6000600360009054906101000a900473ffffffffffffffffffffffffffffffffffffffff1673ffffffffffffffffffffffffffffffffffffffff163373ffffffffffffffffffffffffffffffffffffffff16141515610c0b57600080fd5b600360149054906101000a900460ff16151515610c2757600080fd5b610c3c826000546117ae90919063ffffffff16565b600081905550610c9482600160008673ffffffffffffffffffffffffffffffffffffffff1673ffffffffffffffffffffffffffffffffffffffff168152602001908152602001600020546117ae90919063ffffffff16565b600160008573ffffffffffffffffffffffffffffffffffffffff1673ffffffffffffffffffffffffffffffffffffffff168152602001908152602001600020819055508273ffffffffffffffffffffffffffffffffffffffff167f0f6798a560793a54c3bcfe86a93cde1e73087d944c0ea20544137d4121396885836040518082815260200191505060405180910390a28273ffffffffffffffffffffffffffffffffffffffff16600073ffffffffffffffffffffffffffffffffffffffff167fddf252ad1be2c89b69c2b068fc378daa952ba7f163c4a11628f55a4df523b3ef846040518082815260200191505060405180910390a36001905092915050565b600080600260003373ffffffffffffffffffffffffffffffffffffffff1673ffffffffffffffffffffffffffffffffffffffff16815260200190815260200160002060008573ffffffffffffffffffffffffffffffffffffffff1673ffffffffffffffffffffffffffffffffffffffff16815260200190815260200160002054905080831115610ea6576000600260003373ffffffffffffffffffffffffffffffffffffffff1673ffffffffffffffffffffffffffffffffffffffff16815260200190815260200160002060008673ffffffffffffffffffffffffffffffffffffffff1673ffffffffffffffffffffffffffffffffffffffff16815260200190815260200160002081905550610f3a565b610eb9838261179590919063ffffffff16565b600260003373ffffffffffffffffffffffffffffffffffffffff1673ffffffffffffffffffffffffffffffffffffffff16815260200190815260200160002060008673ffffffffffffffffffffffffffffffffffffffff1673ffffffffffffffffffffffffffffffffffffffff168152602001908152602001600020819055505b8373ffffffffffffffffffffffffffffffffffffffff163373ffffffffffffffffffffffffffffffffffffffff167f8c5be1e5ebec7d5bd14f71427d1e84f3dd0314c0f7b2291e5b200ac8c7c3b925600260003373ffffffffffffffffffffffffffffffffffffffff1673ffffffffffffffffffffffffffffffffffffffff16815260200190815260200160002060008873ffffffffffffffffffffffffffffffffffffffff1673ffffffffffffffffffffffffffffffffffffffff168152602001908152602001600020546040518082815260200191505060405180910390a3600191505092915050565b6000600160008373ffffffffffffffffffffffffffffffffffffffff1673ffffffffffffffffffffffffffffffffffffffff168152602001908152602001600020549050919050565b6000600360009054906101000a900473ffffffffffffffffffffffffffffffffffffffff1673ffffffffffffffffffffffffffffffffffffffff163373ffffffffffffffffffffffffffffffffffffffff161415156110cd57600080fd5b600360149054906101000a900460ff161515156110e957600080fd5b6001600360146101000a81548160ff0219169083151502179055507fae5184fba832cb2b1f702aca6117b8d265eaf03ad33eb133f19dde0f5920fa0860405160405180910390a16001905090565b600360009054906101000a900473ffffffffffffffffffffffffffffffffffffffff1681565b6040805190810160405280600381526020017f43444c000000000000000000000000000000000000000000000000000000000081525081565b60008073ffffffffffffffffffffffffffffffffffffffff168373ffffffffffffffffffffffffffffffffffffffff16141515156111d357600080fd5b600160003373ffffffffffffffffffffffffffffffffffffffff1673ffffffffffffffffffffffffffffffffffffffff16815260200190815260200160002054821115151561122157600080fd5b61127382600160003373ffffffffffffffffffffffffffffffffffffffff1673ffffffffffffffffffffffffffffffffffffffff1681526020019081526020016000205461179590919063ffffffff16565b600160003373ffffffffffffffffffffffffffffffffffffffff1673ffffffffffffffffffffffffffffffffffffffff1681526020019081526020016000208190555061130882600160008673ffffffffffffffffffffffffffffffffffffffff1673ffffffffffffffffffffffffffffffffffffffff168152602001908152602001600020546117ae90919063ffffffff16565b600160008573ffffffffffffffffffffffffffffffffffffffff1673ffffffffffffffffffffffffffffffffffffffff168152602001908152602001600020819055508273ffffffffffffffffffffffffffffffffffffffff163373ffffffffffffffffffffffffffffffffffffffff167fddf252ad1be2c89b69c2b068fc378daa952ba7f163c4a11628f55a4df523b3ef846040518082815260200191505060405180910390a36001905092915050565b600061144b82600260003373ffffffffffffffffffffffffffffffffffffffff1673ffffffffffffffffffffffffffffffffffffffff16815260200190815260200160002060008673ffffffffffffffffffffffffffffffffffffffff1673ffffffffffffffffffffffffffffffffffffffff168152602001908152602001600020546117ae90919063ffffffff16565b600260003373ffffffffffffffffffffffffffffffffffffffff1673ffffffffffffffffffffffffffffffffffffffff16815260200190815260200160002060008573ffffffffffffffffffffffffffffffffffffffff1673ffffffffffffffffffffffffffffffffffffffff168152602001908152602001600020819055508273ffffffffffffffffffffffffffffffffffffffff163373ffffffffffffffffffffffffffffffffffffffff167f8c5be1e5ebec7d5bd14f71427d1e84f3dd0314c0f7b2291e5b200ac8c7c3b925600260003373ffffffffffffffffffffffffffffffffffffffff1673ffffffffffffffffffffffffffffffffffffffff16815260200190815260200160002060008773ffffffffffffffffffffffffffffffffffffffff1673ffffffffffffffffffffffffffffffffffffffff168152602001908152602001600020546040518082815260200191505060405180910390a36001905092915050565b6000600260008473ffffffffffffffffffffffffffffffffffffffff1673ffffffffffffffffffffffffffffffffffffffff16815260200190815260200160002060008373ffffffffffffffffffffffffffffffffffffffff1673ffffffffffffffffffffffffffffffffffffffff16815260200190815260200160002054905092915050565b600360009054906101000a900473ffffffffffffffffffffffffffffffffffffffff1673ffffffffffffffffffffffffffffffffffffffff163373ffffffffffffffffffffffffffffffffffffffff1614151561169957600080fd5b600073ffffffffffffffffffffffffffffffffffffffff168173ffffffffffffffffffffffffffffffffffffffff16141515156116d557600080fd5b8073ffffffffffffffffffffffffffffffffffffffff16600360009054906101000a900473ffffffffffffffffffffffffffffffffffffffff1673ffffffffffffffffffffffffffffffffffffffff167f8be0079c531659141344cd1fd0a4f28419497f9722a3daafe3b4186f6b6457e060405160405180910390a380600360006101000a81548173ffffffffffffffffffffffffffffffffffffffff021916908373ffffffffffffffffffffffffffffffffffffffff16021790555050565b60008282111515156117a357fe5b818303905092915050565b60008082840190508381101515156117c257fe5b80915050929150505600a165627a7a72305820a83e06ce4f457f43f9ec88fdf2d59c71265a610bbfdd644f941d0895e7b1f5310029",
  "source": "pragma solidity ^0.4.18;\r\n\r\nimport './CustomDealToken.sol';\r\nimport '../node_modules/zeppelin-solidity/contracts/crowdsale/CappedCrowdsale.sol';\r\nimport '../node_modules/zeppelin-solidity/contracts/crowdsale/RefundableCrowdsale.sol';\r\n\r\n/**\r\n * @title CustomDealICO\r\n * @author Aleksandar Djordjevic\r\n * @dev Crowdsale is a base contract for managing a token crowdsale\r\n * Crowdsales have a start and end timestamps, where investors can make\r\n * token purchases and the crowdsale will assign them CDL tokens based\r\n * on a CDL token per ETH rate. Funds collected are forwarded to a wallet\r\n * as they arrive\r\n */\r\ncontract CustomDealICO is CappedCrowdsale, RefundableCrowdsale {\r\n\r\n    // ICO Stages\r\n    // ============\r\n    enum CrowdsaleStage { PreICOFirst, PreICOSecond, ICOFirst, ICOSecond }\r\n    CrowdsaleStage public stage = CrowdsaleStage.PreICOFirst; // By default it's Pre ICO First\r\n    // =============\r\n\r\n    // Token Distribution\r\n    // =============================\r\n    uint256 public maxTokens = 400000000000000000000000000; // There will be total 400 000 000 Custom Deal Tokens\r\n    uint256 public tokensForEcosystem = 120000000000000000000000000; // 120 000 000 CDL will be reserved for ecosystem\r\n    uint256 public totalTokensForSale = 280000000000000000000000000; // 280 000 000 CDL will be sold in Crowdsale\r\n    uint256 public totalTokensForSaleDuringPreICO = 100000000000000000000000000; // 100 000 000 CDL will be reserved for PreICO Crowdsale\r\n    // ==============================\r\n\r\n    // Amount raised in PreICO\r\n    // ==================\r\n    uint256 public totalWeiRaisedDuringPreICO;\r\n    // ===================\r\n\r\n    // Events\r\n    event EthTransferred(string text);\r\n    event EthRefunded(string text);\r\n\r\n    // Constructor\r\n    // ============\r\n    function CustomDealICO(uint256 _startTime, uint256 _endTime, uint256 _rate, address _wallet, uint256 _goal, uint256 _cap) CappedCrowdsale(_cap) FinalizableCrowdsale() RefundableCrowdsale(_goal) Crowdsale(_startTime, _endTime, _rate, _wallet) public {\r\n        require(_goal <= _cap);\r\n    }\r\n    // =============\r\n\r\n    // Token Deployment\r\n    // =================\r\n    function createTokenContract() internal returns (MintableToken) {\r\n        return new CustomDealToken(); // Deploys the ERC20 token. Automatically called when crowdsale contract is deployed\r\n    }\r\n    // ==================\r\n\r\n    // Crowdsale Stage Management\r\n    // =========================================================\r\n\r\n    // Change Crowdsale Stage. Available Options: PreICO, ICO\r\n    function setCrowdsaleStage(uint value) public onlyOwner {\r\n\r\n        CrowdsaleStage _stage;\r\n\r\n        if (uint(CrowdsaleStage.PreICOFirst) == value) {\r\n            _stage = CrowdsaleStage.PreICOFirst;\r\n        } else if (uint(CrowdsaleStage.PreICOSecond) == value) {\r\n            _stage = CrowdsaleStage.PreICOSecond;\r\n        } else if (uint(CrowdsaleStage.ICOFirst) == value) {\r\n            _stage = CrowdsaleStage.ICOFirst;\r\n        } else if (uint(CrowdsaleStage.ICOSecond) == value) {\r\n            _stage = CrowdsaleStage.ICOSecond;\r\n        }\r\n\r\n        stage = _stage;\r\n\r\n        if (stage == CrowdsaleStage.PreICOFirst) {\r\n            setCurrentRate(43750);\r\n        } else if (stage == CrowdsaleStage.PreICOSecond) {\r\n            setCurrentRate(38500);\r\n        } else if (stage == CrowdsaleStage.ICOFirst) {\r\n            setCurrentRate(17500);\r\n        } else if (stage == CrowdsaleStage.ICOSecond) {\r\n            setCurrentRate(11666);\r\n        }\r\n    }\r\n\r\n    // Change the current rate\r\n    function setCurrentRate(uint256 _rate) private {\r\n        rate = _rate;\r\n    }\r\n\r\n    // ================ Stage Management Over =====================\r\n\r\n    // Token Purchase\r\n    // =========================\r\n    function () external payable {\r\n        uint256 tokensThatWillBeMintedAfterPurchase = msg.value.mul(rate);\r\n\r\n        if ((stage == CrowdsaleStage.PreICOFirst) && (token.totalSupply() + tokensThatWillBeMintedAfterPurchase > totalTokensForSaleDuringPreICO)) {\r\n            msg.sender.transfer(msg.value);\r\n            // Refund them\r\n            EthRefunded(\"PreICOFirst Limit Hit\");\r\n            return;\r\n        }\r\n\r\n        if ((stage == CrowdsaleStage.PreICOSecond) && (token.totalSupply() + tokensThatWillBeMintedAfterPurchase > totalTokensForSaleDuringPreICO)) {\r\n            msg.sender.transfer(msg.value); // Refund them\r\n            EthRefunded(\"PreICOSecond Limit Hit\");\r\n            return;\r\n        }\r\n\r\n        buyTokens(msg.sender);\r\n\r\n        if (stage == CrowdsaleStage.PreICOFirst) {\r\n            totalWeiRaisedDuringPreICO = totalWeiRaisedDuringPreICO.add(msg.value);\r\n        }\r\n\r\n        if (stage == CrowdsaleStage.PreICOSecond) {\r\n            totalWeiRaisedDuringPreICO = totalWeiRaisedDuringPreICO.add(msg.value);\r\n        }\r\n    }\r\n\r\n    function forwardFunds() internal {\r\n        if (stage == CrowdsaleStage.PreICOFirst || stage == CrowdsaleStage.PreICOSecond) {\r\n            wallet.transfer(msg.value);\r\n            EthTransferred(\"forwarding funds to wallet\");\r\n        } else if (stage == CrowdsaleStage.ICOFirst || stage == CrowdsaleStage.ICOSecond) {\r\n            EthTransferred(\"forwarding funds to refundable vault\");\r\n            super.forwardFunds();\r\n        }\r\n    }\r\n    // ===========================\r\n\r\n    // Finish: Mint Extra Tokens as needed before finalizing the Crowdsale.\r\n    // ====================================================================\r\n\r\n    function finish(address _ecosystemFund) public onlyOwner {\r\n\r\n        require(!isFinalized);\r\n        uint256 alreadyMinted = token.totalSupply();\r\n        require(alreadyMinted < maxTokens);\r\n\r\n        uint256 unsoldTokens = totalTokensForSale - alreadyMinted;\r\n        if (unsoldTokens > 0) {\r\n            tokensForEcosystem = tokensForEcosystem + unsoldTokens;\r\n        }\r\n\r\n        token.mint(_ecosystemFund,tokensForEcosystem);\r\n        finalize();\r\n    }\r\n    // ===============================\r\n}",
  "sourcePath": "/Users/elly/custom-deal-ico-smart-contracts/contracts/CustomDealICO.sol",
  "compiler": {
    "name": "solc",
    "version": "0.4.24+commit.e67f0147.Emscripten.clang"
  },
  "schemaVersion": "2.0.0",
  "updatedAt": "2018-06-02T00:43:07.585Z"
}