{
  "contractName": "Ownable",
  "abi": [
    {
      "inputs": [],
      "payable": false,
      "stateMutability": "nonpayable",
      "type": "constructor"
    },
    {
      "anonymous": false,
      "inputs": [
        {
          "indexed": true,
          "name": "previousOwner",
          "type": "address"
        },
        {
          "indexed": true,
          "name": "newOwner",
          "type": "address"
        }
      ],
      "name": "OwnershipTransferred",
      "type": "event"
    },
    {
      "constant": false,
      "inputs": [
        {
          "name": "newOwner",
          "type": "address"
        }
      ],
      "name": "transferOwnership",
      "outputs": [],
      "payable": false,
      "stateMutability": "nonpayable",
      "type": "function"
    }
  ],
  "bytecode": "0x6060604052341561000f57600080fd5b336000806101000a81548173ffffffffffffffffffffffffffffffffffffffff021916908373ffffffffffffffffffffffffffffffffffffffff1602179055506102008061005e6000396000f300606060405260043610610041576000357c0100000000000000000000000000000000000000000000000000000000900463ffffffff168063f2fde38b14610046575b600080fd5b341561005157600080fd5b61007d600480803573ffffffffffffffffffffffffffffffffffffffff1690602001909190505061007f565b005b6000809054906101000a900473ffffffffffffffffffffffffffffffffffffffff1673ffffffffffffffffffffffffffffffffffffffff163373ffffffffffffffffffffffffffffffffffffffff161415156100da57600080fd5b600073ffffffffffffffffffffffffffffffffffffffff168173ffffffffffffffffffffffffffffffffffffffff161415151561011657600080fd5b8073ffffffffffffffffffffffffffffffffffffffff166000809054906101000a900473ffffffffffffffffffffffffffffffffffffffff1673ffffffffffffffffffffffffffffffffffffffff167f8be0079c531659141344cd1fd0a4f28419497f9722a3daafe3b4186f6b6457e060405160405180910390a3806000806101000a81548173ffffffffffffffffffffffffffffffffffffffff021916908373ffffffffffffffffffffffffffffffffffffffff160217905550505600a165627a7a723058209bccb08d604ecb4b11ac72c29c484ee002836c7c1b1bbabd72c3ef4d5832c1a30029",
  "source": "pragma solidity ^0.4.11;\n\n/**\n * @title Ownable\n * @dev The Ownable contract has an owner address, and provides basic authorization control\n * functions, this simplifies the implementation of 'user permissions'\n */\ncontract Ownable {\n\n    // Address of the owner\n    address internal owner;\n\n    /**\n     * OwnershipTransferred Event\n     * @dev Fired when the ownership of the contract is transfered from one previous owner to new owner\n     * @param previousOwner Previous owner address\n     * @param newOwner New owner address\n     */\n    event OwnershipTransferred(address indexed previousOwner, address indexed newOwner);\n\n    /**\n     * @dev The Ownable constructor sets the original `owner` of the contract to the sender\n     * account\n     */\n    function Ownable() public {\n        owner = msg.sender;\n    }\n\n    // onlyOwner Modifier - Throws if called by any account other than the owner\n    modifier onlyOwner() {\n        require(msg.sender == owner);\n        _;\n    }\n\n    /**\n     * @dev Allows the current owner to transfer control of the contract to a newOwner\n     * @param newOwner The address to transfer ownership to.\n     */\n    function transferOwnership(address newOwner) onlyOwner public {\n        require(newOwner != address(0));\n        OwnershipTransferred(owner, newOwner);\n        owner = newOwner;\n    }\n}\n",
  "sourcePath": "/Users/elly/custom-deal-ico-smart-contracts/contracts/Ownable.sol",
  "compiler": {
    "name": "solc",
    "version": "0.4.19+commit.c4cbbb05.Emscripten.clang"
  },
  "schemaVersion": "2.0.0",
  "updatedAt": "2018-03-20T12:25:44.268Z"
}