{
  "contractName": "Pausable",
  "abi": [
    {
      "constant": true,
      "inputs": [],
      "name": "stopped",
      "outputs": [
        {
          "name": "",
          "type": "bool"
        }
      ],
      "payable": false,
      "stateMutability": "view",
      "type": "function"
    },
    {
      "constant": false,
      "inputs": [
        {
          "name": "newOwner",
          "type": "address"
        }
      ],
      "name": "transferOwnership",
      "outputs": [],
      "payable": false,
      "stateMutability": "nonpayable",
      "type": "function"
    },
    {
      "anonymous": false,
      "inputs": [
        {
          "indexed": true,
          "name": "previousOwner",
          "type": "address"
        },
        {
          "indexed": true,
          "name": "newOwner",
          "type": "address"
        }
      ],
      "name": "OwnershipTransferred",
      "type": "event"
    },
    {
      "constant": false,
      "inputs": [],
      "name": "emergencyStop",
      "outputs": [],
      "payable": false,
      "stateMutability": "nonpayable",
      "type": "function"
    },
    {
      "constant": false,
      "inputs": [],
      "name": "release",
      "outputs": [],
      "payable": false,
      "stateMutability": "nonpayable",
      "type": "function"
    }
  ],
  "bytecode": "0x6060604052336000806101000a81548173ffffffffffffffffffffffffffffffffffffffff021916908373ffffffffffffffffffffffffffffffffffffffff160217905550610395806100536000396000f300606060405260043610610062576000357c0100000000000000000000000000000000000000000000000000000000900463ffffffff16806363a599a41461006757806375f12b211461007c57806386d1a69f146100a9578063f2fde38b146100be575b600080fd5b341561007257600080fd5b61007a6100f7565b005b341561008757600080fd5b61008f61016f565b604051808215151515815260200191505060405180910390f35b34156100b457600080fd5b6100bc610182565b005b34156100c957600080fd5b6100f5600480803573ffffffffffffffffffffffffffffffffffffffff16906020019091905050610214565b005b6000809054906101000a900473ffffffffffffffffffffffffffffffffffffffff1673ffffffffffffffffffffffffffffffffffffffff163373ffffffffffffffffffffffffffffffffffffffff1614151561015257600080fd5b6001600060146101000a81548160ff021916908315150217905550565b600060149054906101000a900460ff1681565b6000809054906101000a900473ffffffffffffffffffffffffffffffffffffffff1673ffffffffffffffffffffffffffffffffffffffff163373ffffffffffffffffffffffffffffffffffffffff161415156101dd57600080fd5b600060149054906101000a900460ff1615156101f857600080fd5b60008060146101000a81548160ff021916908315150217905550565b6000809054906101000a900473ffffffffffffffffffffffffffffffffffffffff1673ffffffffffffffffffffffffffffffffffffffff163373ffffffffffffffffffffffffffffffffffffffff1614151561026f57600080fd5b600073ffffffffffffffffffffffffffffffffffffffff168173ffffffffffffffffffffffffffffffffffffffff16141515156102ab57600080fd5b8073ffffffffffffffffffffffffffffffffffffffff166000809054906101000a900473ffffffffffffffffffffffffffffffffffffffff1673ffffffffffffffffffffffffffffffffffffffff167f8be0079c531659141344cd1fd0a4f28419497f9722a3daafe3b4186f6b6457e060405160405180910390a3806000806101000a81548173ffffffffffffffffffffffffffffffffffffffff021916908373ffffffffffffffffffffffffffffffffffffffff160217905550505600a165627a7a723058203d3b8c809f387b35a63c3d69a02ba60ea9b3ece1f0dc220315cd65757fcaebb20029",
  "source": "pragma solidity ^0.4.8;\r\n\r\nimport './Ownable.sol';\r\n\r\n/*\r\n * @title Pausable\r\n * @dev Abstract contract that allows children to implement an\r\n * emergency stop mechanism.\r\n */\r\ncontract Pausable is Ownable {\r\n\r\n    // Stopped true/false state\r\n    bool public stopped;\r\n\r\n    // stopInEmergency modifier\r\n    modifier stopInEmergency {\r\n        if (stopped) {\r\n            revert();\r\n        }\r\n        _;\r\n    }\r\n\r\n    // onlyInEmergency modifier\r\n    modifier onlyInEmergency {\r\n        if (!stopped) {\r\n            revert();\r\n        }\r\n        _;\r\n    }\r\n\r\n    /**\r\n     * @dev Called by the owner on emergency, triggers stopped state\r\n     */\r\n    function emergencyStop() external onlyOwner {\r\n        stopped = true;\r\n    }\r\n\r\n    /**\r\n     * @dev Called by the owner on end of emergency, returns to normal state\r\n     */\r\n    function release() external onlyOwner onlyInEmergency {\r\n        stopped = false;\r\n    }\r\n}",
  "sourcePath": "/Users/elly/custom-deal-ico-smart-contracts/contracts/Pausable.sol",
  "compiler": {
    "name": "solc",
    "version": "0.4.19+commit.c4cbbb05.Emscripten.clang"
  },
  "schemaVersion": "2.0.0",
  "updatedAt": "2018-03-20T12:11:59.742Z"
}